:100000000C9456010C947E010C947E010C947E019C
:100010000C947E010C947E010C947E010C947E0164
:100020000C947E010C947E010C947E010C942708A4
:100030000C947E010C947E010C947E010C947E0144
:100040000C9485070C947E010C94F5070C94CF0753
:100050000C947E010C947E010C947E010C947E0124
:100060000C947E010C947E012F2A2A2A2A2A2A2AFD
:100070002A2A2A2A2A2A2A2A2A2A2A2A2A2A2A2AE0
:100080002A2A2A2A2A2A2A2A2A2A2A2A2A2A2A2AD0
:100090002A2A2A2A2A2A2A2A2A2A2A2A2A2A2A2AC0
:1000A0002A2A2A2A2A2A2A2A2A2A2A2A2A2A2A2AB0
:1000B0002A2F00506C6561736520656E746572202F
:1000C0007468652042616E6B2050494E3A2000579B
:1000D0006861742069732074686520656D706C6F49
:1000E0007965652063617264206E756D6265723F2B
:1000F000200053656E64696E672064696769747374
:100100002000504841534520313A20466173742005
:10011000616E64205365637572652053656E64007B
:1001200057686F6D702057686F6D702C20747279EE
:1001300020616761696E2E2E2E00456D706C6F799F
:1001400065652043617264204E756D626572204161
:100150006363657074656421000D0A0D0A506C6557
:1001600061736520656E74657220746865204261F4
:100170006E6B2050494E3A20000D0A506C65617339
:100180006520706C6163652074686520456D706CD6
:100190006F7965652043617264204E756D6265728A
:1001A0002C2042616E6B2050494E2C20616E6420E1
:1001B000466C616720696E20746865207265706F97
:1001C00072742E00205375636365737321210000E0
:1001D0000000080002010000030407000000000006
:1001E000000000536861667420696E20706F736947
:1001F00074696F6E2121005741524E494E473A2093
:100200005765616B2050494E207365637572697440
:10021000792E2000496E636F727265637420526F8D
:10022000746174696F6E20416D6F756E7400496EF4
:10023000636F727265637420526F746174696F6E5C
:1002400020416D6F756E74004D696E696D756D201E
:1002500050494E20726571756972656D656E747373
:10026000206E6F74206D6574202D2000000000004A
:10027000250028002B0000000000240027002A0091
:10028000040404040404040402020202020203033C
:100290000303030301020408102040800102040844
:1002A0001020010204081020E308620C11241FBE74
:1002B000CFEFD8E0DEBFCDBF11E0A0E0B1E0E2EBD0
:1002C000FFE102C005900D92A63DB107D9F722E0EB
:1002D000A6EDB1E001C01D92AD3CB207E1F711E01F
:1002E000C5E5D1E004C02197FE010E94CC0DC435C4
:1002F000D107C9F70E945A090C94CC0F0C94000046
:1003000090E0FC01EC56FD4F249180589D4FFC017C
:100310008491882399F090E0880F991FFC01EA5896
:10032000FD4FA591B491FC01E459FD4F8591949145
:100330008FB7F894EC91E22BEC938FBF08958F92D6
:100340009F92AF92BF92FF920F931F93CF93DF9331
:10035000F090C6022BE02F1508F44CC02091C80283
:1003600008E512E0021B110927FD1395000F111F6C
:10037000000F111F2091C702C8E8D0E0C21BD109AD
:1003800027FDD395CC0FDD1FCC0FDD1F4E010D2EA9
:10039000000CAA08BB089801012E000C440B550B59
:1003A000281939094A095B09DC010E943C0D24EB3C
:1003B00030E040E050E00E94120D820E931EA41E19
:1003C000B51E8C169D062CF0E801801691060CF4E3
:1003D000E4012297CC0FDD1F2FB7F8948F2D90E00A
:1003E000FC01EE0FFF1FE80FF91FE357FD4FD2830B
:1003F000C1832FBFDF91CF911F910F91FF90BF90CD
:10040000AF909F908F90089590E0FC01E153FE4FD4
:100410002491FC01EC56FD4F3491FC01E058FD4F56
:10042000E491EE23C9F0222339F0233001F1A8F43E
:10043000213019F1223029F1F0E0EE0FFF1FE459CD
:10044000FD4FA591B4918FB7F894EC91611126C03E
:1004500030953E233C938FBF08952730A9F0283074
:10046000C9F0243049F7809180008F7D03C08091CE
:1004700080008F7780938000DFCF84B58F7784BD35
:10048000DBCF84B58F7DFBCF8091B0008F778093D9
:10049000B000D2CF8091B0008F7DF9CF3E2BDACF64
:1004A000CF93DF9360E08CE00E94040260E088E07C
:1004B0000E940402C7E0D0E060E084E00E940402F1
:1004C00080918B0290E00C2E02C0959587950A943E
:1004D000E2F761E080FF60E088E00E94040261E0F2
:1004E00084E00E940402219738F761E08CE0DF91FC
:1004F000CF910C9404028CE00E94800187E00E945E
:10050000800188E00E94800184E00E9480011092B6
:100510008B020E94500260E087E00C9404023FB717
:10052000F8948091E6019091E701A091E801B091E3
:10053000E90126B5A89B05C02F3F19F00196A11D22
:10054000B11D3FBFBA2FA92F982F8827BC01CD011D
:10055000620F711D811D911D42E0660F771F881F7C
:10056000991F4A95D1F708958F929F92AF92BF92AB
:10057000CF92DF92EF92FF926B017C010E948F027B
:100580004B015C01C114D104E104F104B9F00E94F3
:100590008F02681979098A099B09683E73408105B1
:1005A000910580F321E0C21AD108E108F10888EE34
:1005B000880E83E0981EA11CB11CE4CFFF90EF9041
:1005C000DF90CF90BF90AF909F908F900895089547
:1005D000FC01248135816217730720F480819181A9
:1005E000009729F41092D70187ED91E00895860FC6
:1005F000971F0895AF92BF92CF92DF92EF92FF9232
:100600000F931F93CF93DF936C017B018B01040F3A
:10061000151FEB015E01AE18BF08C017D10759F0D6
:100620006991D601ED91FC910190F081E02DC60118
:100630000995892B79F7C501DF91CF911F910F9112
:10064000FF90EF90DF90CF90BF90AF900895FC01A6
:10065000538D448D252F30E0842F90E0821B930B27
:10066000541710F0CF96089501970895FC01918DCD
:10067000828D981761F0A28DAE0FBF2FB11D5D96D0
:100680008C91928D9F5F9F73928F90E008958FEF72
:100690009FEF08952FB7F8948091EA019091EB01B4
:1006A000A091EC01B091ED012FBF8093F6019093E2
:1006B000F701A093F801B093F9018EEE91E00E944A
:1006C000360397FF26C02FB7F8948091EA019091E6
:1006D000EB01A091EC01B091ED012FBF4091F6012B
:1006E0005091F7016091F8017091F901841B950B0D
:1006F000A60BB70B4091F2015091F3016091F40108
:100700007091F50184179507A607B707B0F28FEF30
:100710009FEF0895FC01918D828D981731F0828DA5
:10072000E80FF11D858D90E008958FEF9FEF0895FC
:10073000FC01918D228D892F90E0805C9F4F821B60
:1007400091098F73992708958EEE91E00E94980386
:1007500021E0892B09F420E0822F089580E090E0C9
:10076000892B29F00E94A40381110C9400000895A4
:10077000FC01A48DA80FB92FB11DA35ABF4F2C9116
:10078000848D90E001968F739927848FA689B7890D
:100790002C93A089B1898C91837080648C93938D04
:1007A000848D981306C00288F389E02D80818F7DA7
:1007B00080830895EF92FF920F931F93CF93DF935F
:1007C000EC0181E0888F9B8D8C8D98131AC0E8898D
:1007D000F989808185FF15C09FB7F894EE89FF895C
:1007E0006083E889F98980818370806480839FBFFA
:1007F00081E090E0DF91CF911F910F91FF90EF90FA
:100800000895F62E0B8D10E00F5F1F4F0F73112709
:10081000E02E8C8D8E110CC00FB607FCFACFE88944
:10082000F989808185FFF5CFCE010E94B803F1CF11
:10083000EB8DEC0FFD2FF11DE35AFF4FF0829FB7B8
:10084000F8940B8FEA89FB8980818062CFCF0F9368
:100850001F93CF93DF938C01D0E0C0E0F801EC0F41
:10086000FD1F6491662341F08EEE91E00E94DA0351
:10087000892B11F02196F2CFCE01DF91CF911F91FC
:100880000F910895CF93DF93EC01888D8823B9F001
:10089000AA89BB89E889F9898C9185FD03C080818B
:1008A00086FD0DC00FB607FCF7CF8C9185FFF2CF08
:1008B000808185FFEDCFCE010E94B803E9CFDF91A3
:1008C000CF910895FC0101900020E9F73197AF0125
:1008D000481B590BBC018EEE91E00C94FA02CF93A9
:1008E000DF930E942704EC0188E391E00E946204F8
:1008F0008C0F9D1FDF91CF91089588E690E00C94B6
:100900006F048F929F92AF92BF920F931F93CF93DA
:10091000DF93CDB7DEB7A1970FB6F894DEBF0FBE59
:10092000CDBF19A2423008F44AE08E010F5D1F4F7F
:10093000842E912CB12CA12CA50194010E947B0D39
:10094000E62FB901CA01EA30F4F4E05DD801EE9374
:100950008D01232B242B252B79F790E080E0109735
:1009600019F0CD010E946204A1960FB6F894DEBF83
:100970000FBECDBFDF91CF911F910F91BF90AF9070
:100980009F908F900895E95CE1CFCF92DF92EF9234
:10099000FF92CF93DF936B017C016DE28EEE91E0CD
:1009A0000E94DA03EC0166277727CB016C197D09D9
:1009B0008E099F094AE00E9481048C0F9D1FDF91E0
:1009C000CF91FF90EF90DF90CF900895CF93DF937A
:1009D0000E946204EC0188E391E00E9462048C0FA3
:1009E0009D1FDF91CF9108952F923F924F925F927A
:1009F0006F927F928F929F92AF92BF92CF92DF922F
:100A0000EF92FF920F931F93CF93DF93CDB7DEB793
:100A100065970FB6F894DEBF0FBECDBF5C010E9494
:100A20007B0280918B028E7180938B020E94500218
:100A300085E00E94800186E00E94800161E085E0FF
:100A40000E94040261E086E00E94040284B583688B
:100A500084BD17BC86E00E94800184B5836284BD9A
:100A600018BC85E00E9480018FEF87BD88BD1A8287
:100A700019821C821B821E821D8280910A01909124
:100A80000B01A0910C018F839887A987D50114963B
:100A90002D913C91C90163E070E00E94B80D6A8716
:100AA000662349F07727660F771F6F5F7F4F261702
:100AB000370708F05FC088E492E00E94270410E046
:100AC00000E0DE0111967D016E01B7E0CB0ED11C76
:100AD000560121E0F701419151917F01D6018D919D
:100AE0006D0190E04817590708F043C1222321F017
:100AF0008EE292E00E94270483ED91E00E9462045E
:100B000010E020E0AE14BF0429F780918B028E71B3
:100B100080938B020E94500288E391E00E9462045D
:100B2000003120F487EF91E00E942704112341F067
:100B300083EE91E00E946F0411E0003108F410E0B0
:100B4000812F65960FB6F894DEBF0FBECDBFDF9143
:100B5000CF911F910F91FF90EF90DF90CF90BF90BA
:100B6000AF909F908F907F906F905F904F903F904D
:100B70002F900895FE0131961F01812C912C10E0D9
:100B800000E0F0E4F98B22E092128CC0D5011496BB
:100B9000BC91B88B90FE8AC0F2E0FF87E82CF12C64
:100BA0003889E31608F0D6C0B701C5010E94E802F3
:100BB000DC018C91082E000C990BB989B817190625
:100BC00011F00CF0C3C0B701C5010E94E802FC019E
:100BD00080818B350CF0BAC0B701C5010E94E802D4
:100BE000DC016C918EEE91E00E94DA030F5FB70199
:100BF000C5010E94E802FC0180818054C82ED12CDE
:100C0000D1018D919C9111978C0D9D1D8D939C937D
:100C1000B701C5010E94E802FC01F081F98BCC0C00
:100C2000DD1CCC0CDD1C9601DD0C440B550B2A8B16
:100C30003B8B4C8B5D8B1B861C861D861E868A8992
:100C40009B89AC89BD892B853C854D855E852817A0
:100C500039074A075B0708F073C013FF6AC08F8526
:100C6000813009F464C010511F733FEF37BD38BDA8
:100C700080918B028E71E12FF0E093E0F595E7957E
:100C80009A95E1F73197E730F10508F04EC0E55B42
:100C9000F94F0C94CC0D930691068F068D068B06AA
:100CA00089065906EA85E80DE88B74CF21E02F8785
:100CB00075CF806680938B020E94500260E070E0E6
:100CC000CB010E94B40258EE451653E0550661046C
:100CD000710460F061E070E080E090E00E94B40296
:100CE000A8EE4A1AA3E05A0A6108710862E070E0AF
:100CF00080E090E00E94B4022B853C854D855E85A6
:100D00002F5F3F4F4F4F5F4F2B873C874D875E874D
:100D100096CF8064CFCF806CCDCF8068CBCF8168F9
:100D2000C9CF8160C7CF8162C5CF8062C3CF105F5A
:100D30009BCF9F85913011F0185096CF185F94CFBC
:100D400063ED72E080E090E00E94B4023FEFE31AAE
:100D5000F30A26CF93944A85840E52E0250E311C67
:100D600083E0981210CF88E391E00E94620411E0C2
:100D7000A8CE8417950708F0C5CE222309F4BCCE6F
:100D800084E192E00E946F04B7CEFC0180819181E2
:100D9000009711F00C946E0E08950F931F93CF934C
:100DA000DF93EC0188819981009759F02A813B817A
:100DB0002617370730F081E0DF91CF911F910F9117
:100DC00008958B016F5F7F4F0E94F70E009759F0D7
:100DD000998388831B830A832C813D81232B59F7B8
:100DE000FC011082E8CF80E0E7CFEF92FF920F93F3
:100DF0001F93CF93DF93EC017B018A01BA010E941C
:100E0000CD0628813981811114C02115310519F0D1
:100E1000C9010E946E0E198218821D821C821B82DB
:100E20001A82CE01DF91CF911F910F91FF90EF9029
:100E300008951D830C83B701C9010E94C50FF1CF2E
:100E4000FC01118210821382128215821482FB012E
:100E500001900020E9F73197AF01461B570B0C9426
:100E6000F506CF93DF93CDB7DEB72C970FB6F89486
:100E7000DEBF0FBECDBF64EF71E080E090E00E9466
:100E8000B4020E947D048BE391E00E94E6040E947C
:100E90007D0464EF71E080E090E00E94B40267E5B9
:100EA00071E0CE0107960E9420071A8219821C82E7
:100EB0001B821E821D826F8178856115710531F05C
:100EC0004B855C85CE0101960E94F506CE01019608
:100ED0000E94F404CE0101960E94C50660ED77E001
:100EE00080E090E00E94B40283EB90E00E946F04E7
:100EF000CE0107960E94C5062C960FB6F894DEBF69
:100F00000FBECDBFDF91CF9108951F920F920FB604
:100F10000F9211242F933F938F939F93AF93BF937F
:100F20008091EA019091EB01A091EC01B091ED016B
:100F30003091E50123E0230F2D3758F50196A11DCF
:100F4000B11D2093E5018093EA019093EB01A093FA
:100F5000EC01B093ED018091E6019091E701A09141
:100F6000E801B091E9010196A11DB11D8093E60150
:100F70009093E701A093E801B093E901BF91AF918D
:100F80009F918F913F912F910F900FBE0F901F90C7
:100F9000189526E8230F0296A11DB11DD2CF1F92EE
:100FA0000F920FB60F9211242F933F934F935F939D
:100FB0006F937F938F939F93AF93BF93EF93FF9321
:100FC0008EEE91E00E94B803FF91EF91BF91AF9137
:100FD0009F918F917F916F915F914F913F912F9151
:100FE0000F900FBE0F901F9018951F920F920FB683
:100FF0000F9211242F938F939F93EF93FF93E09180
:10100000FE01F091FF018081E0910402F091050260
:1010100082FD1BC09081809107028F5F8F732091AA
:101020000802821741F0E0910702F0E0E251FE4F22
:10103000958F80930702FF91EF919F918F912F9150
:101040000F900FBE0F901F9018958081F4CF1F92C4
:101050000F920FB60F9211242F933F934F935F93EC
:101060006F937F938F939F93AF93BF93CF93DF93B0
:10107000EF93FF938091D601C091B102D0E087FF3A
:1010800024C010928500109284008091D6018F5F59
:101090008093D6018091D601082E000C990B8C17F5
:1010A0009D0724F48091D6018C30C4F18091840096
:1010B00090918500049680349C4908F47AC0809110
:1010C000840090918500049676C08091D601082E08
:1010D000000C990B8C179D07C4F6E091D6018E2F5A
:1010E000EE0F990BFC01EE0FFF1FE80FF91FE357FE
:1010F000FD4F808186FFC9CFE091D6018E2FEE0F84
:10110000990BFC01EE0FFF1FE80FF91FE357FD4F8E
:10111000808160E08F730E940402B7CF2091840029
:1011200030918500E091D6018E2FEE0F990BFC01D6
:10113000EE0FFF1FE80FF91FE357FD4F81819281EA
:10114000820F931F9093890080938800E091D601CD
:101150008E2FEE0F990BFC01EE0FFF1FE80FF91F0A
:10116000E357FD4F808186FF11C0E091D6018E2F9D
:10117000EE0F990BFC01EE0FFF1FE80FF91FE3576D
:10118000FD4F808161E08F730E940402FF91EF9117
:10119000DF91CF91BF91AF919F918F917F916F918F
:1011A0005F914F913F912F910F900FBE0F901F9025
:1011B000189580E49CE990938900809388008FEFD4
:1011C0008093D601E3CF1092F1011092F00188EEE6
:1011D00093E0A0E0B0E08093F2019093F301A0933C
:1011E000F401B093F5018AE291E09093EF018093CE
:1011F000EE0185EC90E09093FB018093FA0184EC82
:1012000090E09093FD018093FC0180EC90E090933E
:10121000FF018093FE0181EC90E0909301028093A6
:10122000000282EC90E0909303028093020286EC2D
:1012300090E09093050280930402109207021092AE
:1012400008021092090210920A0210928C028091F8
:10125000B1028C3058F591E0980F9093B1028093D1
:10126000C60290E0FC01EE0FFF1FE80FF91FE357E5
:10127000FD4F88EB9BE0928381836AE371E080EC11
:1012800092E00E9420076AE371E08AEB92E00E94FC
:1012900020071092B80282E08093B9020E947B027C
:1012A0006DE071E082EB92E00C9420078FEF809369
:1012B000C602E3CFCF93DF93CDB7DEB728970FB643
:1012C000F894DEBF0FBECDBF789484B5826084BD34
:1012D00084B5816084BD85B5826085BD85B581603A
:1012E00085BD80916E00816080936E0010928100B8
:1012F0008091810082608093810080918100816073
:101300008093810080918000816080938000809133
:10131000B10084608093B1008091B00081608093BF
:10132000B00080917A00846080937A0080917A0086
:10133000826080937A0080917A00816080937A0045
:1013400080917A00806880937A001092C100E091C9
:10135000FE01F091FF0182E08083E091FA01F091BB
:10136000FB011082E091FC01F091FD0180E180839E
:1013700010920602E0910202F091030286E080835F
:10138000E0910002F0910102808180618083E09110
:101390000002F0910102808188608083E091000268
:1013A000F0910102808180688083E0910002F091D9
:1013B000010280818F7D808360ED77E080E090E0A6
:1013C0000E94B4028091D8019091D901805C9D4126
:1013D0009093D9018093D8010E947D0481E691E029
:1013E0000E94E6040E947D048091C6028C3008F0C1
:1013F00050C089E00E9480018091C602282F30E011
:10140000F901EE0FFF1FE20FF31FE357FD4F90812D
:10141000907C996090831092C7021092C8022CE0D1
:10142000622F0E94AC0D829FB001112430E020E0B9
:10143000AB01420F531FFA01EE0FFF1FE40FF51F20
:10144000E357FD4F908196FD16C02F5F3F4F2C3024
:10145000310571F781110FC01092800082E08093F6
:1014600081001092850010928400B19A80916F00E3
:10147000826080936F00E091C6028E2F90E0FC01A5
:10148000EE0FFF1FE80FF91FE357FD4F80818064C7
:1014900080838AE590E00E949F0168E877E080E021
:1014A00090E00E94090D83E090E09093E401809326
:1014B000E30188E791E00E94E6048091E3019091C6
:1014C000E4018130910509F010C10E947D0482E0A1
:1014D00091E00E946F040E947D0464EF71E080E05F
:1014E00090E00E94B402BAED8B2EB1E09B2E8401F5
:1014F00088E2C82E83E2D82EE12CF12C0E94BA0C8F
:10150000A70196010E94120D68517C4F8F4F9F4F8B
:10151000F801619371938F01F1E0023E1F0771F7AB
:10152000412C512C32014394312C82EF90E00E94E7
:1015300027044AE0C301B2010E9481048FEC91E0CC
:101540000E9462044AE0C301B2016D5F7F4F8F4F7A
:101550009F4F0E94810481ED91E00E94E60464EFB8
:1015600071E080E090E00E94B402F401C190D1905B
:101570004F01F12CE12C0CE310E0F4E1AF2EB12C83
:1015800030FC05C00AEA10E0E2E8AE2EB12CC1142E
:10159000D104E104F104D1F0C501C0FEC8010E94EC
:1015A0009F016CE271E080E090E00E94B402F6944A
:1015B000E794D794C7948AE590E00E949F0164E67F
:1015C00070E080E090E00E94B402E1CF3394F4E058
:1015D0004F0E511C611C711C84E03812A6CF8FEC99
:1015E00090E00E946F048E010F5F1F4F80902201D8
:1015F00090902301A0902401B090250163E0462E35
:10160000512C42E0C42ED12C50E0652E50E0752EB6
:101610008091E3019091E4018130910509F086C049
:1016200091E09093E2013AEDE32E31E0F32E222493
:101630002394F701819191917F0189829A82AB82F3
:10164000BC82FE0135966AE070E00E94B80D82937C
:10165000CB010E171F07B9F7312C8EEE91E00E94D7
:10166000360390ED980F9A3008F445C064EF71E0AE
:1016700080E090E00E94B402F4E03F12EECF82EEF0
:1016800091E08E159F05A9F6222009F444C08AE353
:1016900091E00E946F04D092E401C092E301E091D6
:1016A000C6028E2F90E0FC01EE0FFF1FE80FF91F1E
:1016B000E357FD4F80818F7B80831092E2010E946F
:1016C00031071092E20164EF71E080E090E00E9447
:1016D000B4026114710409F49BCF0E94A40388230F
:1016E00009F48FCF0E9400008CCF029709F07BCFC6
:1016F0000E94310778CF082E000C990BC097F80193
:10170000E30DF11D37FCFA9520812817190609F021
:10171000212C3394B1CF80E291E00E946F0460ED00
:1017200077E080E090E00E94B402CBCF029759F6B8
:101730008EEE91E00E949803181619060CF050C026
:101740001A8219821C821B821E821D8250E040E098
:101750006AE371E0C8010E94F5060E944A0397FD02
:101760001BC08F831886ED80FE809FEFE91AF90A6F
:10177000B701C8010E94CD06882379F329813A81F7
:101780008D819E81BE01695F7F4F820F931F0E94F2
:10179000C50FFE82ED82E1CF8091C0029091C1021F
:1017A0000097D1F169817A816115710599F14091B4
:1017B000C2025091C3022D813E814217530750F15E
:1017C0000E94C50F8D819E819093C5028093C402B3
:1017D0001E821D82C8010E94C506E1E0E093E2017D
:1017E0008091E201882309F46ECFE090C002F0906E
:1017F000C102E114F10439F1F70181917F018823DD
:1018000011F1082E000C990B0E94B40FF7013197CB
:101810008083F2CF0E946E0E89819A819093C102DB
:101820008093C0028B819C819093C3028093C202FB
:101830008D819E819093C5028093C4021A82198281
:101840001C821B82C5CF1A8219821C821B821E82B7
:101850001D826091C0027091C1026115710539F05D
:101860004091C4025091C502C8010E94F506C8010A
:101870000E94F404F82EC8010E94C5068AE391E094
:101880000E94E604FF20C9F084EC91E00E946F04FE
:101890004091B6025091B7026091B2027091B302CA
:1018A0008EEE91E00E94FA0289E791E00E946F04B7
:1018B0005092E4014092E30104CF89E591E00E9457
:1018C0006F04FFCE82EB92E00E94C5068AEB92E0A5
:1018D0000E94C50680EC92E00C94C5068F929F9200
:1018E000AF92BF92CF92DF92EF92FF92CF93DF93AE
:1018F000EC01688179818A819B816115710581057F
:10190000910521F464E279ED8BE597E02DE133EF69
:1019100041E050E00E94120D49015A019B01AC01C7
:10192000A7EAB1E40E94310D6B017C01ACEEB4EF8B
:10193000A50194010E943F0DC60ED71EE81EF91E98
:10194000F7FE06C081E0C81AD108E10880E8F80A6D
:10195000C882D982EA82FB82C701B6019F77DF91F4
:10196000CF91FF90EF90DF90CF90BF90AF909F907E
:101970008F9008958F929F92AF92BF92CF92DF92F5
:10198000EF92FF926091000170910101809102013C
:1019900090910301611571058105910521F464E2BF
:1019A00079ED8BE597E02DE133EF41E050E00E94C7
:1019B000120D49015A019B01AC01A7EAB1E40E9452
:1019C000310D6B017C01ACEEB4EFA50194010E94D6
:1019D0003F0DC60ED71EE81EF91EF7FE06C081E0B9
:1019E000C81AD108E10880E8F80AC0920001D09234
:1019F0000101E0920201F0920301C701B6019F7755
:101A0000FF90EF90DF90CF90BF90AF909F908F901E
:101A100008956093000170930101809302019093F7
:101A200003010895052E97FB1EF400940E94290DD2
:101A300057FD07D00E947B0D07FC03D04EF40C9499
:101A4000290D50954095309521953F4F4F4F5F4F51
:101A5000089590958095709561957F4F8F4F9F4F1A
:101A600008950E949D0DA59F900DB49F900DA49F79
:101A7000800D911D11240895B7FF0C94310D0E9423
:101A8000310D821B930B08952F923F924F925F92DC
:101A90006F927F928F929F92AF92BF92CF92DF927E
:101AA000EF92FF920F931F93CF93DF93CDB7DEB7E3
:101AB000CA1BDB0B0FB6F894DEBF0FBECDBF099477
:101AC0002A88398848885F846E847D848C849B84CE
:101AD000AA84B984C884DF80EE80FD800C811B81DC
:101AE000AA81B981CE0FD11D0FB6F894DEBF0FBE0B
:101AF000CDBFED010895A1E21A2EAA1BBB1BFD016B
:101B00000DC0AA1FBB1FEE1FFF1FA217B307E407DC
:101B1000F50720F0A21BB30BE40BF50B661F771F34
:101B2000881F991F1A9469F7609570958095909514
:101B30009B01AC01BD01CF010895A29FB001B39FED
:101B4000C001A39F700D811D1124911DB29F700DC6
:101B5000811D1124911D0895991B79E004C0991FDE
:101B6000961708F0961B881F7A95C9F780950895F7
:101B7000AA1BBB1B51E107C0AA1FBB1FA617B707B3
:101B800010F0A61BB70B881F991F5A95A9F78095CF
:101B90009095BC01CD010895EE0FFF1F0590F491C3
:101BA000E02D09940F931F93CF93DF93823091051B
:101BB00010F482E090E0E091CB02F091CC0230E0B2
:101BC00020E0B0E0A0E0309799F42115310509F448
:101BD0004AC0281B390B24303105D8F58A819B81F6
:101BE0006115710589F1FB0193838283FE0111C0A8
:101BF000408151810281138148175907E0F048174D
:101C0000590799F4109761F012960C931297139656
:101C10001C933296CF01DF91CF911F910F910895C0
:101C20000093CB021093CC02F4CF2115310551F073
:101C30004217530738F0A901DB019A01BD01DF010A
:101C4000F801C1CFEF01F9CF9093CC028093CB0282
:101C5000CDCFFE01E20FF31F819391932250310902
:101C600039832883D7CF2091C9023091CA02232B10
:101C700041F420910601309107013093CA0220936C
:101C8000C90220910401309105012115310541F46B
:101C90002DB73EB74091080150910901241B350B27
:101CA000E091C902F091CA02E217F307A0F42E1BDB
:101CB0003F0B2817390778F0AC014E5F5F4F2417B0
:101CC000350748F04E0F5F1F5093CA024093C90278
:101CD000819391939FCFF0E0E0E09CCFCF93DF938F
:101CE0000097E9F0FC01329713821282A091CB0297
:101CF000B091CC02ED0130E020E01097A1F42081FA
:101D00003181820F931F2091C9023091CA02281796
:101D1000390709F061C0F093CA02E093C902DF916C
:101D2000CF910895EA01CE17DF07E8F54A815B817C
:101D30009E0141155105B1F7E901FB83EA83499101
:101D40005991C40FD51FEC17FD0761F48081918173
:101D50000296840F951FE90199838883828193817C
:101D60009B838A83F0E0E0E012968D919C9113971B
:101D70000097B9F52D913C911197CD010296820FF4
:101D8000931F2091C9023091CA022817390739F6EA
:101D9000309751F51092CC021092CB02B093CA0248
:101DA000A093C902BCCFD383C28340815181840FE9
:101DB000951FC817D90761F44E5F5F4F88819981DD
:101DC000480F591F518340838A819B81938382836B
:101DD0002115310509F0B0CFF093CC02E093CB028E
:101DE0009ECFFD01DC01C0CF13821282D7CFB0E0BD
:101DF000A0E0EDEFFEE00C94460D8C01009751F44D
:101E0000CB010E94D20D8C01C801CDB7DEB7E0E155
:101E10000C94620DFC01E60FF71F9C012250310962
:101E2000E217F30708F49DC0D901CD91DC91119719
:101E3000C617D70798F0C530D10530F3CE01049707
:101E40008617970708F3C61BD70B2297C193D19328
:101E50006D937C93CF010E946E0ED6CF5B01AC1ABE
:101E6000BD0A4C018C0E9D1EA091CB02B091CC02FC
:101E7000512C412CF12CE12C109731F58091C902A5
:101E80009091CA028815990509F05CC0461657065C
:101E900008F058C08091040190910501009741F429
:101EA0008DB79EB74091080150910901841B950B95
:101EB000E817F90708F055C0F093CA02E093C90289
:101EC000F90171836083A0CF8D919C911197129637
:101ED0006C90129713967C901397A815B90559F535
:101EE0006C0142E0C40ED11CCA14DB0420F1AC0129
:101EF0004A195B09DA011296159780F062827382A3
:101F000051834083D9016D937C93E114F10471F006
:101F1000D7011396FC93EE93129776CF22968C0FEF
:101F20009D1FF90191838083F301EFCFF093CC02E1
:101F3000E093CB0269CF4816590608F42C017D01C5
:101F4000D3019ACFCB010E94D20D7C01009749F0BA
:101F5000AE01B8010E94BC0FC8010E946E0E87013D
:101F600053CF10E000E050CF9111089581568A516F
:101F700008F4805285580895FB01DC0102C00190ED
:101F80000D9241505040D8F70895FB01DC010190BB
:101F90000D920020E1F7089511E0C5E5D1E004C0FD
:101FA000FE010E94CC0D2196C635D107C9F7F894E1
:021FB000FFCF61
:101FB200010000000000CD028000153C635468312E
:101FC200537B69536144754D6D59466C61673F7D22
:101FD2000000FFFFFFFF00000000DA03FA02270300
:101FE2004204980336038A030D0A005048415345C0
:101FF20020323A20546865204C6F6E6765737420F6
:102002005061726164650041424344454647484914
:102012000057656C636F6D6520746F204661737441
:102022002026204D6178210054686973206973204D
:10203200612064756D6D792066696C652E20497426
:1020420020697320666F72207265766572736520EF
:10205200656E67696E656572696E67207468652072
:10206200636F6465206C6F676963206F6E6C792C97
:102072002062757420776F6E742072756E2E002D3B
:06208200002E2E2E0000CE
:00000001FF
