:100000000C9456010C947E010C947E010C947E019C
:100010000C947E010C947E010C947E010C947E0164
:100020000C947E010C947E010C947E010C94591268
:100030000C947E010C947E010C947E010C947E0144
:100040000C94B7110C947E010C9427120C9401129D
:100050000C947E010C947E010C947E010C947E0124
:100060000C947E010C947E012F2A2A2A2A2A2A2AFD
:100070002A2A2A2A2A2A2A2A2A2A2A2A2A2A2A2AE0
:100080002A2A2A2A2A2A2A2A2A2A2A2A2A2A2A2AD0
:100090002A2A2A2A2A2A2A2A2A2A2A2A2A2A2A2AC0
:1000A0002A2A2A2A2A2A2A2A2A2A2A2A2A2A2A2AB0
:1000B0002A2F005768617420697320746865206571
:1000C0006D706C6F7965652063617264206E756D0B
:1000D0006265723F200053656E64696E67206469D3
:1000E000676974732000504841534520313A2046D7
:1000F00061737420616E642053656375726520536B
:10010000656E6400506C6561736520656E74657220
:10011000207468652042616E6B2050494E3A200081
:1001200057686F6D702057686F6D702C20747279EE
:1001300020616761696E2E2E2E00456D706C6F799F
:1001400065652043617264204E756D626572204161
:100150006363657074656421000D0A0D0A506C6557
:1001600061736520656E74657220746865204261F4
:100170006E6B2050494E3A20000D0A506C65617339
:100180006520706C6163652074686520456D706CD6
:100190006F7965652043617264204E756D6265728A
:1001A0002C2042616E6B2050494E2C20616E6420E1
:1001B000466C616720696E20746865207265706F97
:1001C00072742E00205375636365737321210000E0
:1001D0000000080002010000030407000000000006
:1001E000000000536861667420696E20706F736947
:1001F00074696F6E2121005741524E494E473A2093
:100200005765616B2050494E207365637572697440
:10021000792E2000496E636F727265637420526F8D
:10022000746174696F6E20416D6F756E7400496EF4
:10023000636F727265637420526F746174696F6E5C
:1002400020416D6F756E74004D696E696D756D201E
:1002500050494E20726571756972656D656E747373
:10026000206E6F74206D6574202D2000000000004A
:10027000250028002B0000000000240027002A0091
:10028000040404040404040402020202020203033C
:100290000303030301020408102040800102040844
:1002A000102001020408102015132D1711241FBE61
:1002B000CFEFD8E0DEBFCDBF12E0A0E0B1E0E2E8D2
:1002C000F5E302C005900D92A431B107D9F723E000
:1002D000A4E1B2E001C01D92AB30B207E1F711E03A
:1002E000C5E5D1E004C02197FE010E949718C435EE
:1002F000D107C9F70E948C130C94B41A0C94000017
:1003000090E0FC01EC56FD4F249180589D4FFC017C
:100310008491882399F090E0880F991FFC01EA5896
:10032000FD4FA591B491FC01E459FD4F8591949145
:100330008FB7F894EC91E22BEC938FBF08958F92D6
:100340009F92AF92BF92FF920F931F93CF93DF9331
:10035000F09004032BE02F1508F44CC02091060305
:1003600008E512E0021B110927FD1395000F111F6C
:10037000000F111F20910503C8E8D0E0C21BD1096E
:1003800027FDD395CC0FDD1FCC0FDD1F4E010D2EA9
:10039000000CAA08BB089801012E000C440B550B59
:1003A000281939094A095B09DC010E94071824EB66
:1003B00030E040E050E00E94DD17820E931EA41E44
:1003C000B51E8C169D062CF0E801801691060CF4E3
:1003D000E4012297CC0FDD1F2FB7F8948F2D90E00A
:1003E000FC01EE0FFF1FE80FF91FE553FD4FD2830D
:1003F000C1832FBFDF91CF911F910F91FF90BF90CD
:10040000AF909F908F90089590E0FC01E153FE4FD4
:100410002491FC01EC56FD4F3491FC01E058FD4F56
:10042000E491EE23C9F0222339F0233001F1A8F43E
:10043000213019F1223029F1F0E0EE0FFF1FE459CD
:10044000FD4FA591B4918FB7F894EC91611126C03E
:1004500030953E233C938FBF08952730A9F0283074
:10046000C9F0243049F7809180008F7D03C08091CE
:1004700080008F7780938000DFCF84B58F7784BD35
:10048000DBCF84B58F7DFBCF8091B0008F778093D9
:10049000B000D2CF8091B0008F7DF9CF3E2BDACF64
:1004A000CF93DF9360E08CE00E94040260E088E07C
:1004B0000E940402C7E0D0E060E084E00E940402F1
:1004C0008091C90290E00C2E02C0959587950A9400
:1004D000E2F761E080FF60E088E00E94040261E0F2
:1004E00084E00E940402219738F761E08CE0DF91FC
:1004F000CF910C9404028CE00E94800187E00E945E
:10050000800188E00E94800184E00E9480011092B6
:10051000C9020E94500260E087E00C9404023FB7D9
:10052000F8948091220290912302A0912402B0912C
:10053000250226B5A89B05C02F3F19F00196A11DE5
:10054000B11D3FBFBA2FA92F982F8827BC01CD011D
:10055000620F711D811D911D42E0660F771F881F7C
:10056000991F4A95D1F708958F929F92AF92BF92AB
:10057000CF92DF92EF92FF926B017C010E948F027B
:100580004B015C01C114D104E104F104B9F00E94F3
:100590008F02681979098A099B09683E73408105B1
:1005A000910580F321E0C21AD108E108F10888EE34
:1005B000880E83E0981EA11CB11CE4CFFF90EF9041
:1005C000DF90CF90BF90AF909F908F900895089547
:1005D000FC01248135816217730720F480819181A9
:1005E000009729F41092150285E192E00895860F94
:1005F000971F0895AF92BF92CF92DF92EF92FF9232
:100600000F931F93CF93DF936C017B018B01040F3A
:10061000151FEB015E01AE18BF08C017D10759F0D6
:100620006991D601ED91FC910190F081E02DC60118
:100630000995892B79F7C501DF91CF911F910F9112
:10064000FF90EF90DF90CF90BF90AF900895FC01A6
:10065000538D448D252F30E0842F90E0821B930B27
:10066000541710F0CF96089501970895FC01918DCD
:10067000828D981761F0A28DAE0FBF2FB11D5D96D0
:100680008C91928D9F5F9F73928F90E008958FEF72
:100690009FEF08952FB7F89480912602909127023A
:1006A000A0912802B09129022FBF80933402909329
:1006B0003502A0933602B09337028CE292E00E949A
:1006C000360397FF26C02FB7F894809126029091A9
:1006D0002702A0912802B09129022FBF4091340235
:1006E000509135026091360270913702841B950B50
:1006F000A60BB70B4091300250913102609132024B
:100700007091330284179507A607B707B0F28FEFF1
:100710009FEF0895FC01918D828D981731F0828DA5
:10072000E80FF11D858D90E008958FEF9FEF0895FC
:10073000FC01918D228D892F90E0805C9F4F821B60
:1007400091098F73992708958CE292E00E94980393
:1007500021E0892B09F420E0822F089580E090E0C9
:10076000892B29F00E94A40381110C9400000895A4
:10077000FC01A48DA80FB92FB11DA35ABF4F2C9116
:10078000848D90E001968F739927848FA689B7890D
:100790002C93A089B1898C91837080648C93938D04
:1007A000848D981306C00288F389E02D80818F7DA7
:1007B00080830895EF92FF920F931F93CF93DF935F
:1007C000EC0181E0888F9B8D8C8D98131AC0E8898D
:1007D000F989808185FF15C09FB7F894EE89FF895C
:1007E0006083E889F98980818370806480839FBFFA
:1007F00081E090E0DF91CF911F910F91FF90EF90FA
:100800000895F62E0B8D10E00F5F1F4F0F73112709
:10081000E02E8C8D8E110CC00FB607FCFACFE88944
:10082000F989808185FFF5CFCE010E94B803F1CF11
:10083000EB8DEC0FFD2FF11DE35AFF4FF0829FB7B8
:10084000F8940B8FEA89FB8980818062CFCF0F9368
:100850001F93CF93DF938C01D0E0C0E0F801EC0F41
:10086000FD1F6491662341F08CE292E00E94DA035E
:10087000892B11F02196F2CFCE01DF91CF911F91FC
:100880000F910895CF93DF93EC01888D8823B9F001
:10089000AA89BB89E889F9898C9185FD03C080818B
:1008A00086FD0DC00FB607FCF7CF8C9185FFF2CF08
:1008B000808185FFEDCFCE010E94B803E9CFDF91A3
:1008C000CF910895FC0101900020E9F73197AF0125
:1008D000481B590BBC018CE292E00C94FA028F92F7
:1008E0009F92AF92BF920F931F93CF93DF93CDB799
:1008F000DEB7A1970FB6F894DEBF0FBECDBF19A229
:10090000423008F44AE08E010F5D1F4F842E912C77
:10091000B12CA12CA50194010E944618E62FB90123
:10092000CA01EA30F4F4E05DD801EE938D01232B87
:10093000242B252B79F790E080E0109719F0CD015A
:100940000E946204A1960FB6F894DEBF0FBECDBF21
:10095000DF91CF911F910F91BF90AF909F908F909B
:100960000895E95CE1CFCF92DF92EF92FF92CF93AF
:10097000DF936B017C016DE28CE292E00E94DA036E
:10098000EC0166277727CB016C197D098E099F0939
:100990004AE00E946F048C0F9D1FDF91CF91FF9062
:1009A000EF90DF90CF900895CF93DF930E94620481
:1009B000EC018EE891E00E9462048C0F9D1FDF9194
:1009C000CF910895CF93DF930E942704EC018EE826
:1009D00091E00E9462048C0F9D1FDF91CF910895DA
:1009E00088E690E00C94E2042F923F924F925F923F
:1009F0006F927F928F929F92AF92BF92CF92DF922F
:100A0000EF92FF920F931F93CF93DF93CDB7DEB793
:100A100065970FB6F894DEBF0FBECDBF5C010E9494
:100A20007B028091C9028E718093C9020E9450029C
:100A300085E00E94800186E00E94800161E085E0FF
:100A40000E94040261E086E00E94040284B583688B
:100A500084BD17BC86E00E94800184B5836284BD9A
:100A600018BC85E00E9480018FEF87BD88BD1A8287
:100A700019821C821B821E821D82809140019091EE
:100A80004101A09142018F839887A987D5011496CF
:100A90002D913C91C90163E070E00E9483186A8740
:100AA000662349F07727660F771F6F5F7F4F261702
:100AB000370708F05FC088E492E00E94270410E046
:100AC00000E0DE0111967D016E01B7E0CB0ED11C76
:100AD000560121E0F701419151917F01D6018D919D
:100AE0006D0190E04817590708F043C1222321F017
:100AF0008EE292E00E9427048CEE91E00E94620454
:100B000010E020E0AE14BF0429F78091C9028E7175
:100B10008093C9020E9450028EE891E00E94620414
:100B2000003120F487EF91E00E942704112341F067
:100B300083EE91E00E94E20411E0003108F410E03D
:100B4000812F65960FB6F894DEBF0FBECDBFDF9143
:100B5000CF911F910F91FF90EF90DF90CF90BF90BA
:100B6000AF909F908F907F906F905F904F903F904D
:100B70002F900895FE0131961F01812C912C10E0D9
:100B800000E0F0E4F98B22E092128CC0D5011496BB
:100B9000BC91B88B90FE8AC0F2E0FF87E82CF12C64
:100BA0003889E31608F0D6C0B701C5010E94E802F3
:100BB000DC018C91082E000C990BB989B817190625
:100BC00011F00CF0C3C0B701C5010E94E802FC019E
:100BD00080818B350CF0BAC0B701C5010E94E802D4
:100BE000DC016C918CE292E00E94DA030F5FB701A6
:100BF000C5010E94E802FC0180818054C82ED12CDE
:100C0000D1018D919C9111978C0D9D1D8D939C937D
:100C1000B701C5010E94E802FC01F081F98BCC0C00
:100C2000DD1CCC0CDD1C9601DD0C440B550B2A8B16
:100C30003B8B4C8B5D8B1B861C861D861E868A8992
:100C40009B89AC89BD892B853C854D855E852817A0
:100C500039074A075B0708F073C013FF6AC08F8526
:100C6000813009F464C010511F733FEF37BD38BDA8
:100C70008091C9028E71E12FF0E093E0F595E79540
:100C80009A95E1F73197E730F10508F04EC0E55B42
:100C9000F94F0C949718930691068F068D068B06D4
:100CA00089065906EA85E80DE88B74CF21E02F8785
:100CB00075CF80668093C9020E94500260E070E0A8
:100CC000CB010E94B40258EE451653E0550661046C
:100CD000710460F061E070E080E090E00E94B40296
:100CE000A8EE4A1AA3E05A0A6108710862E070E0AF
:100CF00080E090E00E94B4022B853C854D855E85A6
:100D00002F5F3F4F4F4F5F4F2B873C874D875E874D
:100D100096CF8064CFCF806CCDCF8068CBCF8168F9
:100D2000C9CF8160C7CF8162C5CF8062C3CF105F5A
:100D30009BCF9F85913011F0185096CF185F94CFBC
:100D400063ED72E080E090E00E94B4023FEFE31AAE
:100D5000F30A26CF93944A85840E52E0250E311C67
:100D600083E0981210CF8EE891E00E94620411E0B7
:100D7000A8CE8417950708F0C5CE222309F4BCCE6F
:100D800084E192E00E94E204B7CE2F923F924F920C
:100D90005F926F927F928F929F92AF92BF92CF920B
:100DA000DF92EF92FF920F931F93CF93DF93CDB714
:100DB000DEB7CE52D2400FB6F894DEBF0FBECDBF25
:100DC000C55DDD4F8883CB52D240C45DDD4F988333
:100DD000CC52D240C35DDD4F6883CD52D240C25D5C
:100DE000DD4F7883CE52D240B901CA012DB63EB64E
:100DF000C75DDD4F39822882C952D240FE01EF51D2
:100E0000FE4F28E0DF011D922A95E9F7DF011896D1
:100E1000E1929701A80108E00E949F1879018A01D8
:100E2000AE17BF07A9F780E2E3E4F1E0DE01AF53BC
:100E3000BE4F01900D928A95E1F720912A023091E0
:100E40002B026901032E000CEE08FF08CD2CDE2CCE
:100E5000EF2CFF24EDB7FEB7CB5FDD4FF983E883BE
:100E6000C550D24081E093E2A5E4B7E6CF53DE4F10
:100E700088839983AA83BB83C15CD14089E89BEABC
:100E8000ADECBFEECB53DE4F88839983AA83BB833F
:100E9000C55CD1408EEF9CEDAAEBB8E9C753DE4F9D
:100EA00088839983AA83BB83C95CD14086E794E594
:100EB000A2E3B0E1C353DE4F88839983AA83BB8347
:100EC000CD5CD14080EF91EEA2EDB3ECCF52DE4F7E
:100ED00088839983AA83BB83C15DD1400DB71EB7B8
:100EE000005411090FB6F8941EBF0FBE0DBFFF9737
:100EF0004DB75EB74F5B5F4FDF011D921D921D9294
:100F00001D92A417B507C9F7C9019927092E000C2E
:100F1000AA0BBB0BB82FAA279927882790687601C0
:100F2000DD24CC24CC24DD24FF248C299D29AE296A
:100F3000BF294081518162817381842B952BA62B1F
:100F4000B72B80839183A283B38380E190E0A0E0FC
:100F5000B0E084AF95AFA6AFB7AFAE014F5F5F4FC4
:100F600080E491E0DA018C011D9201501040E1F71C
:100F7000CF50DE4F59834883C15FD140C350DE4F0D
:100F8000F983E883CD5FD1401E011FE3211A3108A8
:100F900020EF31EE42ED53ECC750DE4F288339830A
:100FA0004A835B83C95FD14041E053E265E477E661
:100FB000C351DE4F488359836A837B83CD5ED14022
:100FC00049E8442E4BEA542E4DEC642E4FEE742E1D
:100FD00046E754E562E370E10EEF1CED2AEB38E9D9
:100FE000C751DE4F1882C95ED140C751DE4F88819C
:100FF000C95ED140803110F00C947B10C350DE4F9D
:10100000E881F981CD5FD14080819181A281B38156
:10101000CF50DE4FE881F981C15FD1408083918359
:10102000A283B383D901C80184279527A627B727B0
:1010300084219521A621B7214C015D0184269526A6
:10104000A626B726C75FDD4F88829982AA82BB8217
:10105000C950D24099E9C92E99E7D92E92E8E92ED4
:101060009AE5F92EC351DE4F88819981AA81BB810F
:10107000CD5ED140EBE1B695A79597958795EA951A
:10108000D1F7C351DE4F88809980AA80BB80CD5EA6
:10109000D140F5E0880C991CAA1CBB1CFA95D1F72D
:1010A000882A992AAA2ABB2ACF50DE4FE881F981E3
:1010B000C15FD14081919191A191B191CF50DE4F0B
:1010C000F983E883C15FD140880E991EAA1EBB1E1A
:1010D000C75FDD4F88819981AA81BB81C950D24009
:1010E000880D991DAA1DBB1DC80ED91EEA1EFB1E28
:1010F000C750DE4F88809980AA80BB80C95FD140ED
:10110000C80CD91CEA1CFB1CD301C201E2E0B69555
:10111000A79597958795EA95D1F753014201FEE18E
:10112000880C991CAA1CBB1CFA95D1F7882A992A0D
:10113000AA2ABB2AC751DE4F8881C95ED1408F5F82
:10114000C751DE4F8883C95ED140C350DE4FA881AE
:10115000B981CD5FD1401496C350DE4FB983A883C7
:10116000CD5FD140B4E02B0E311CC351DE4F48801F
:1011700059806A807B80CD5ED140C750DE4F488366
:1011800059836A837B83C95FD140803509F0A5C745
:10119000EFEFCE1AECEDDE0AEAEBEE0AE8E9FE0A22
:1011A000CF53DE4FC882D982EA82FB82C15CD14034
:1011B000F7E74F1AF4E55F0AF2E36F0AF0E17F0AFE
:1011C000CB53DE4F488259826A827B82C55CD14014
:1011D00082E0881A83E2980A85E4A80A87E6B80ABA
:1011E000C753DE4F88829982AA82BB82C95CD140F4
:1011F000D901C8018A589B4AAD4CBF4EC751DE4F3A
:1012000088839983AA83BB83C95ED140C353DE4FD1
:1012100088839983AA83BB83CD5CD1408A019B01DB
:1012200000511E412D423C43C351DE4F08831983B8
:101230002A833B83CD5ED140CF52DE4F0883198392
:101240002A833B83C15DD140CB5FDD4F288139814B
:10125000C550D2400FB6F8943EBF0FBE2DBFFE0161
:10126000EF53FE4F9F01205E3F4F80E090E0DC0196
:10127000419151916191719184279527A627B727B4
:101280002E173F07A9F7843F954DA943B54D21F08F
:1012900081E991E00E94D404C358DE4F188219827C
:1012A0001A821B82CD57D14085E698E7A0E7B1E6C8
:1012B000CF5BDE4F88839983AA83BB83C154D1401F
:1012C0008EE694E6A0E2B3E3CB5BDE4F888399839E
:1012D000AA83BB83C554D14082E39DE2A2E6B9E76D
:1012E000C75BDE4F88839983AA83BB83C954D140EF
:1012F00084E795E6A0E2BBE6C35BDE4F8883998373
:10130000AA83BB83CD54D140CF5ADE4FC882D98245
:10131000EA82FB82C155D140CB5ADE4F48825982C6
:101320006A827B82C555D140C75ADE4F8882998236
:10133000AA82BB82C955D140C751DE4F288039806F
:101340004A805B80C95ED140C35ADE4F2882398211
:101350004A825B82CD55D140C351DE4F48805980CF
:101360006A807B80CD5ED140CF59DE4F4882598262
:101370006A827B82C156D14080E49EEBACE4BAEE37
:10138000CB59DE4F88839983AA83BB83C556D1404E
:101390008CE89BE6A6EFB7E5C759DE4F88839983B3
:1013A000AA83BB83C956D1408AE990EFACE5B0E48B
:1013B000C359DE4F88839983AA83BB83CD56D1401E
:1013C000CF58DE4F188219821A821B82C157D14032
:1013D000CF51DE4F88819981AA81BB81C15ED14006
:1013E000CB58DE4F88839983AA83BB83C557D140EE
:1013F000CB51DE4F88819981AA81BB81C55ED140E6
:10140000C758DE4F88839983AA83BB83C957D140CD
:1014100080E4FE01EF5BFE4FDE01119601900D921C
:101420008A95E1F769807A808B809C80CB50DE4F73
:10143000688279828A829B82C55FD14021968CAC7A
:101440009DACAEACBFAC2197C75FDD4F888299825F
:10145000AA82BB82C950D240A9A4BAA4CBA4DCA45E
:10146000CB5FDD4FA882B982CA82DB82C550D240F1
:101470004D885E886F88788CCD80DE80EF80F88420
:10148000C350DE4FC882D982EA82FB82CD5FD14051
:1014900089A89AA8ABA8BCA8EDA4FEA40FA518A97A
:1014A000C35FDD4FE882F9820A831B83CD50D240AF
:1014B000098D1A8D2B8D3C8DCF50DE4F08831983FB
:1014C0002A833B83C15FD14029853A854B855C8562
:1014D000CB5EDD4F288339834A835B83C551D2407D
:1014E0004DA95EA96FA978ADCF5FDD4F48835983C1
:1014F0006A837B83C150D24009A11AA12BA13CA1D0
:101500006D8D7E8D8F8D98A1C351DE4F6883798359
:101510008A839B83CD5ED1408D859E85AF85B889BA
:10152000C751DE4F88839983AA83BB83C95ED140AC
:10153000C9ACDAACEBACFCACC750DE4FC882D98288
:10154000EA82FB82C95FD1404DA15EA16FA178A55F
:1015500089899A89AB89BC89EAE0F0E0CB50DE4FFB
:10156000C880D980EA80FB80C55FD140C80ED91EF3
:10157000EA1EFB1EC75EDD4FC882D982EA82FB826B
:10158000C951D2408C249D24AE24BF24740145014E
:10159000570168017901C80CD91CEA1CFB1CCF5EFD
:1015A000DD4FC882D982EA82FB82C151D2408C25AC
:1015B0009D25AE25BF256C017D012CE0CC0CDD1CEA
:1015C000EE1CFF1C2A95D1F734E1B695A7959795A7
:1015D00087953A95D1F78C299D29AE29BF29C75EF9
:1015E000DD4FE880F9800A811B81C951D240E80EA5
:1015F000F91E0A1F1B1FCB50DE4FE882F9820A83B7
:101600001B83C55FD1408E249F24A026B126182DB0
:10161000292D3A2D0B2DC75EDD4F088319832A83B0
:101620003B83C951D240CF5EDD4F88809980AA802C
:10163000BB80C151D240080D191D2A1D3B1DC35E40
:10164000DD4F088319832A833B83CD51D240802705
:101650009127A227B3278C019D01689416F8000FEB
:10166000111F221F331F1694D1F75C016D0189E110
:10167000D694C794B794A7948A95D1F7A02AB12A93
:10168000C22AD32ACF5EDD4FA882B982CA82DB820A
:10169000C151D240C350DE4FC880D980EA80FB8060
:1016A000CD5FD140C40CD51CE61CF71CCF5FDD4FCD
:1016B000088119812A813B81C150D2400C251D250A
:1016C0002E253F25C80189019C01400F511F621F33
:1016D000731FDB01CA0184259525A625B7254C017A
:1016E0005D01072E7CE0880C991CAA1CBB1C7A9516
:1016F000D1F7702D072E74E1B695A795979587952C
:101700007A95D1F7702D88299929AA29BB29160124
:101710002701280E391E4A1E5B1EC350DE4F288249
:1017200039824A825B82CD5FD14002251325242570
:101730003525502E612E722E432ECF5FDD4F48820D
:1017400059826A827B82C150D240440E551E661E69
:10175000771ECF5DDD4F488259826A827B82C152FB
:10176000D24084259525A625B725AC01BD0127E0EB
:10177000440F551F661F771F2A95D1F74C015D0155
:1017800039E1B694A794979487943A95D1F7842A2F
:10179000952AA62AB72ACF50DE4FC880D980EA8082
:1017A000FB80C15FD140CB5EDD4F088119812A816A
:1017B0003B81C551D240C00ED11EE21EF31EC75060
:1017C000DE4F488159816A817B81C95FD1404C25B8
:1017D0005D256E257F259A01AB01B901CB5FDD4FF9
:1017E000488059806A807B80C550D240440E551E87
:1017F000661E771ECF50DE4F88819981AA81BB81FA
:10180000C15FD14084259525A625B7258C019D0172
:101810000F2EFCE0000F111F221F331FFA95D1F786
:10182000F02D072E74E1B695A795979587957A9533
:10183000D1F7702D802B912BA22BB32B9701860112
:10184000080F191F2A1F3B1FC750DE4F088319833B
:101850002A833B83C95FD1404027512762277327E2
:10186000D42EE52EF62EC72ECB5DDD4FC882D98251
:10187000EA82FB82C552D240C40CD51CE61CF71C80
:10188000CB5FDD4FC882D982EA82FB82C550D2404D
:101890008C259D25AE25BF25AC01BD0127E0440F59
:1018A000551F661F771F2A95D1F71C012D0139E1BD
:1018B00056944794379427943A95D1F7242A352A99
:1018C000462A572ACF50DE4F288239824A825B82CD
:1018D000C15FD140C351DE4FC880D980EA80FB8010
:1018E000CD5ED140C751DE4F488059806A807B80F1
:1018F000C95ED140C40CD51CE61CF71CC75FDD4F88
:10190000488159816A817B81C950D2404C255D252F
:101910006E257F253A01AB01B301C35FDD4F08811E
:1019200019812A813B81CD50D240040F151F261FFB
:10193000371FC351DE4F88819981AA81BB81CD5E5B
:10194000D14080279127A227B3271C012D01012E0A
:101950001CE0220C331C441C551C1A95D1F7102D89
:10196000072E74E1B695A795979587957A95D1F747
:10197000702D82299329A429B52926013701480E03
:10198000591E6A1E7B1EC751DE4F488259826A82E9
:101990007B82C95ED1404425552566257725542E86
:1019A000472F762F652F552D040F151F261F371F24
:1019B00080279127A227B3276C017D01689416F830
:1019C000CC0CDD1CEE1CFF1C1694D1F71C012D0164
:1019D00089E156944794379427948A95D1F72C2817
:1019E0003D284E285F28C351DE4F288239824A8223
:1019F0005B82CD5ED140CB50DE4FC880D980EA807B
:101A0000FB80C55FD140C80CD91CEA1CFB1C4C25CF
:101A10005D256E257F252A01AB01B201CB5FDD4F2D
:101A2000488059806A807B80C550D240440E551E44
:101A3000661E771ED501C40184259525A625B725E8
:101A40004C015D01072E7CE0880C991CAA1CBB1C74
:101A50007A95D1F7702D072E74E1B695A7959795D5
:101A600087957A95D1F7702D88299929AA29BB29BC
:101A700046015701880E991EAA1EBB1ECB50DE4F91
:101A800088829982AA82BB82C55FD14048255925A8
:101A90006A257B25B42EC52ED62EA72EC75FDD4F17
:101AA000A882B982CA82DB82C950D240A40CB51C7C
:101AB000C61CD71CCB5FDD4FA882B982CA82DB82ED
:101AC000C550D2408A259B25AC25BD25AC01BD0162
:101AD000689416F8440F551F661F771F1694D1F7A8
:101AE0002C013D0189E176946794579447948A9537
:101AF000D1F7442A552A662A772AC350DE4FC88078
:101B0000D980EA80FB80CD5FD140CF50DE4F488145
:101B100059816A817B81C15FD140C40ED51EE61E0A
:101B2000F71EC75EDD4F88809980AA80BB80C951AF
:101B3000D2408C249D24AE24BF24B40145015B0116
:101B4000080D191D2A1D3B1DCF50DE4F888199813C
:101B5000AA81BB81C15FD14080279127A227B327EB
:101B6000AC01BD01032E3CE0440F551F661F771FDB
:101B70003A95D1F7302D072E74E1B695A795979534
:101B800087957A95D1F7702D842B952BA62BB72BA3
:101B9000B701A601480F591F6A1F7B1FC350DE4FB4
:101BA000488359836A837B83CD5FD1408426952601
:101BB000A626B726582D8B2CBA2CA92C952E680159
:101BC0007901C80CD91CEA1CFB1CC35FDD4FC8821D
:101BD000D982EA82FB82CD50D2408C259D25AE254C
:101BE000BF25AC01BD0127E0440F551F661F771FBD
:101BF0002A95D1F77C018D0139E116950795F79467
:101C0000E7943A95D1F7E42AF52A062B172BCF5003
:101C1000DE4FE882F9820A831B83C15FD140C7503F
:101C2000DE4FC880D980EA80FB80C95FD140C351B4
:101C3000DE4F088119812A813B81CD5ED140C00EE3
:101C4000D11EE21EF31ECF5FDD4F488159816A81AC
:101C50007B81C150D2404C255D256E257F259A01A0
:101C6000AB01B901C35EDD4F88819981AA81BB8137
:101C7000CD51D240840F951FA61FB71FC750DE4F0E
:101C800088839983AA83BB83C95FD140C351DE4F48
:101C900088819981AA81BB81CD5ED140C750DE4F3A
:101CA000088119812A813B81C95FD1408027912712
:101CB000A227B3278C019D010F2EFCE0000F111FFE
:101CC000221F331FFA95D1F7F02D072E74E1B69538
:101CD000A795979587957A95D1F7702D802B912BA5
:101CE000A22BB32B97018601080F191F2A1F3B1F38
:101CF000CB5EDD4F088319832A833B83C551D240D5
:101D00004027512762277327D42EE52EF62EC72EA3
:101D1000CF5FDD4FC882D982EA82FB82C150D240B8
:101D2000C750DE4F088119812A813B81C95FD140AC
:101D30000C0D1D1D2E1D3F1D80279127A227B327A7
:101D4000AC01BD01689416F8440F551F661F771F3C
:101D50001694D1F76C017D0189E1F694E794D7944C
:101D6000C7948A95D1F7C42AD52AE62AF72AC351FF
:101D7000DE4FC882D982EA82FB82CD5ED140CF5E3F
:101D8000DD4F488159816A817B81C151D240C75161
:101D9000DE4F88819981AA81BB81C95ED140480FFD
:101DA000591F6A1F7B1FC751DE4F488359836A83BF
:101DB0007B83C95ED140CB5DDD4FC880D980EA808E
:101DC000FB80C552D240C426D526E626F726D6018A
:101DD00067017D01CF5DDD4F488159816A817B813B
:101DE000C152D2404C0D5D1D6E1D7F1DC75EDD4F83
:101DF000488359836A837B83C951D240CF5EDD4FCC
:101E000088819981AA81BB81C151D24084279527BD
:101E1000A627B727AC01BD01032E3CE0440F551F98
:101E2000661F771F3A95D1F7302D072E74E1B695CE
:101E3000A795979587957A95D1F7702D842B952B3B
:101E4000A62BB72BC751DE4F488159816A817B8110
:101E5000C95ED140480F591F6A1F7B1FC751DE4F13
:101E6000488359836A837B83C95ED140C426D526C3
:101E7000E626F7265C2D6D2D7E2D4F2DC750DE4FAB
:101E8000488359836A837B83C95FD140C75EDD4F36
:101E9000488159816A817B81C951D240C750DE4F48
:101EA000C880D980EA80FB80C95FD1404C0D5D1DA0
:101EB0006E1D7F1D84279527A627B7276C017D01FE
:101EC000689416F8CC0CDD1CEE1CFF1C1694D1F7A0
:101ED000072E79E1B695A795979587957A95D1F7CD
:101EE000702D8C299D29AE29BF29319709F036CB59
:101EF000CB50DE4FC880D980EA80FB80C55FD140DF
:101F0000C982DA82EB82FC82898B9A8BAB8BBC8B89
:101F100089AA9AAAABAABCAA09A31AA32BA33CA379
:101F2000C350DE4FE880F9800A811B81CD5FD1402C
:101F3000ED82FE820F8318874D8A5E8A6F8A788EC3
:101F4000CF5FDD4F088119812A813B81C150D2408A
:101F50000DAB1EAB2FAB38AF4DA35EA36FA378A71D
:101F6000CB5EDD4F288139814A815B81C551D240EA
:101F700029873A874B875C87CF50DE4F488159814C
:101F80006A817B81C15FD140498F5A8F6B8F7C8F73
:101F9000C750DE4F688179818A819B81C95FD140BA
:101FA00069AF7AAF8BAF9CAFCB5FDD4F88819981F2
:101FB000AA81BB81C550D24089A79AA7ABA7BCA76D
:101FC000C751DE4F288039804A805B80C95ED1408E
:101FD0002D863E864F86588AC351DE4F48805980F1
:101FE0006A807B80CD5ED1404D8E5E8E6F8E78A2F2
:101FF000C75FDD4F688079808A809B80C950D2405E
:1020000021966CAE7DAE8EAE9FAE2197C35FDD4F45
:1020100088809980AA80BB80CD50D2408DA69EA694
:10202000AFA6B8AA8E010F5F1F4FCE018F5B9E4FE8
:102030009E012F5B3F4FF801C190D190E190F1904C
:10204000DC018D909D90AD90BD90CD01AF014450CD
:102050005109C80CD91CEA1CFB1CDA01CD92DD9297
:10206000ED92FC9213972E173F0731F79E012F57E1
:102070003E4FC901D8014D915D916D917D918D01CA
:10208000DC014D935D936D937D93CD01E017F107D6
:1020900089F7C35DDD4FE881CD52D240C25DDD4F8F
:1020A000F881CE52D240C55DDD4F6881CB52D2401F
:1020B000C45DDD4F7881CC52D240AF01445E5F4FAA
:1020C0004E175F0709F4C2C08191D9019D919D010E
:1020D0008927DB018D93BD01F3CFC351DE4FC88249
:1020E000D982EA82FB82CD5ED140B901A801950177
:1020F00084010C94F507D101D496CD90DD90ED903C
:10210000FC90D79790968D919D910D90BC91A02DAC
:102110008C259D25AE25BF25F101C084D184E284A4
:10212000F3848C259D25AE25BF25C080D180E2801B
:10213000F3808C259D25AE25BF25880F991FAA1FEA
:10214000BB1F811DCF50DE4FE881F981C15FD140B7
:1021500080839183A283B383C751DE4FF881C95E28
:10216000D140F43110F40C941208C751DE4F88812D
:10217000C95ED1408832F0F4D901C801842795277F
:10218000A627B7274C015D0184249524A624B724F3
:10219000C75FDD4F88829982AA82BB82C950D24034
:1021A00081EAC82E8BEED82E89EDE82E8EE6F82E29
:1021B0000C943208C751DE4F8881C95ED140D901E5
:1021C0008C3338F5C801842B952BA62BB72B842193
:1021D0009521A621B72168017901C422D522E622E2
:1021E000F7224C015D018C289D28AE28BF28C75FCF
:1021F000DD4F88829982AA82BB82C950D240BCED51
:10220000CB2EBCEBDB2EBBE1EB2EBFE8FB2E0C9400
:102210003208C80184279527A627B7275C016D01DE
:10222000A424B524C624D724C75FDD4FA882B98271
:10223000CA82DB82C950D240A6EDCA2EA1ECDA2EAA
:10224000A2E6EA2EAAECFA2E0C943208C75DDD4F06
:1022500028803980C952D2400FB6F8943EBE0FBED6
:102260002DBEC25DDD4F0FB6F894DEBF0FBECDBFF1
:10227000DF91CF911F910F91FF90EF90DF90CF9062
:10228000BF90AF909F908F907F906F905F904F9096
:102290003F902F900895FC0180819181009711F06B
:1022A0000C94561908950F931F93CF93DF93EC016D
:1022B00088819981009759F02A813B812617370739
:1022C00030F081E0DF91CF911F910F9108958B0144
:1022D0006F5F7F4F0E94DF19009759F099838883C1
:1022E0001B830A832C813D81232B59F7FC0110822B
:1022F000E8CF80E0E7CFEF92FF920F931F93CF9349
:10230000DF93EC017B018A01BA010E9453112881FD
:102310003981811114C02115310519F0C9010E94BC
:102320005619198218821D821C821B821A82CE01C4
:10233000DF91CF911F910F91FF90EF9008951D8332
:102340000C83B701C9010E94AD1AF1CFFC011182C3
:1023500010821382128215821482FB0101900020E8
:10236000E9F73197AF01461B570B0C947B111F9275
:102370000F920FB60F9211242F933F938F939F9339
:10238000AF93BF938091260290912702A0912802DB
:10239000B09129023091210223E0230F2D3758F507
:1023A0000196A11DB11D20932102809326029093D6
:1023B0002702A0932802B0932902809122029091D3
:1023C0002302A0912402B09125020196A11DB11D06
:1023D0008093220290932302A0932402B0932502BB
:1023E000BF91AF919F918F913F912F910F900FBE11
:1023F0000F901F90189526E8230F0296A11DB11D7E
:10240000D2CF1F920F920FB60F9211242F933F93AA
:102410004F935F936F937F938F939F93AF93BF93EC
:10242000EF93FF938CE292E00E94B803FF91EF914B
:10243000BF91AF919F918F917F916F915F914F91DC
:102440003F912F910F900FBE0F901F9018951F92E4
:102450000F920FB60F9211242F938F939F93EF93A8
:10246000FF93E0913C02F0913D028081E0914202B5
:10247000F091430282FD1BC09081809145028F5FE5
:102480008F7320914602821741F0E0914502F0E0FF
:10249000E45DFD4F958F80934502FF91EF919F91F1
:1024A0008F912F910F900FBE0F901F9018958081E4
:1024B000F4CF1F920F920FB60F9211242F933F93D8
:1024C0004F935F936F937F938F939F93AF93BF933C
:1024D000CF93DF93EF93FF9380911402C091EF02AB
:1024E000D0E087FF24C01092850010928400809174
:1024F00014028F5F8093140280911402082E000C46
:10250000990B8C179D0724F4809114028C30C4F130
:102510008091840090918500049680349C4908F451
:102520007AC08091840090918500049676C0809155
:102530001402082E000C990B8C179D07C4F6E0912D
:1025400014028E2FEE0F990BFC01EE0FFF1FE80F08
:10255000F91FE553FD4F808186FFC9CFE09114023A
:102560008E2FEE0F990BFC01EE0FFF1FE80FF91FE6
:10257000E553FD4F808160E08F730E940402B7CF66
:102580002091840030918500E09114028E2FEE0F8F
:10259000990BFC01EE0FFF1FE80FF91FE553FD4FEC
:1025A00081819281820F931F90938900809388008C
:1025B000E09114028E2FEE0F990BFC01EE0FFF1F1E
:1025C000E80FF91FE553FD4F808186FF11C0E091B0
:1025D00014028E2FEE0F990BFC01EE0FFF1FE80F78
:1025E000F91FE553FD4F808161E08F730E94040263
:1025F000FF91EF91DF91CF91BF91AF919F918F911B
:102600007F916F915F914F913F912F910F900FBEEE
:102610000F901F90189580E49CE990938900809317
:1026200088008FEF80931402E3CF10922F02109254
:102630002E0288EE93E0A0E0B0E080933002909309
:102640003102A0933202B093330280E891E090937C
:102650002D0280932C0285EC90E0909339028093B8
:10266000380284EC90E090933B0280933A0280EC35
:1026700090E090933D0280933C0281EC90E0909337
:102680003F0280933E0282EC90E09093410280935F
:10269000400286EC90E090934302809342021092B5
:1026A0004502109246021092470210924802109280
:1026B000CA028091EF028C3058F591E0980F909308
:1026C000EF028093040390E0FC01EE0FFF1FE80F80
:1026D000F91FE553FD4F88EB9BE09283818360E90E
:1026E00071E08EEF92E00E94A61160E971E088EF40
:1026F00092E00E94A6111092F60282E08093F70207
:102700000E947B0263E671E080EF92E00C94A611D8
:102710008FEF80930403E3CFCF93DF93CDB7DEB782
:10272000A7970FB6F894DEBF0FBECDBF789484B5DF
:10273000826084BD84B5816084BD85B5826085BDBD
:1027400085B5816085BD80916E00816080936E004B
:10275000109281008091810082608093810080913D
:1027600081008160809381008091800081608093EE
:1027700080008091B10084608093B1008091B000AE
:1027800081608093B00080917A00846080937A00A9
:1027900080917A00826080937A0080917A008160D3
:1027A00080937A0080917A00806880937A001092FA
:1027B000C100E0913C02F0913D0282E08083E09113
:1027C0003802F09139021082E0913A02F0913B0216
:1027D00080E1808310924402E0914002F091410236
:1027E00086E08083E0913E02F0913F02808180612B
:1027F0008083E0913E02F0913F0280818860808377
:10280000E0913E02F0913F02808180688083E091F8
:102810003E02F0913F0280818F7D808360ED77E002
:1028200080E090E00E94B40280912A0290912B02F5
:10283000805C9D4190932B0280932A020E94F004B9
:1028400081ED91E00E94D4040E94F0048091040381
:102850008C3008F050C089E00E9480018091040310
:10286000282F30E0F901EE0FFF1FE20FF31FE553B1
:10287000FD4F9081907C9960908310920503109297
:1028800006032CE0622F0E947718829FB00111246A
:1028900030E020E0AB01420F531FFA01EE0FFF1FA3
:1028A000E40FF51FE553FD4F908196FD16C02F5F95
:1028B0003F4F2C30310571F781110FC0109280000D
:1028C00082E0809381001092850010928400B19A7A
:1028D00080916F00826080936F00E09104038E2FDF
:1028E00090E0FC01EE0FFF1FE80FF91FE553FD4FCD
:1028F0008081806480838AE590E00E949F0164E685
:1029000077E080E090E00E94D41781E090E090931F
:10291000200280931F0210E000E071E3872E7FEE1B
:10292000972EA12CB12CE9E0CE2ED12CE12CF12C4C
:102930000E9485172801712C612CA50194010E9429
:10294000DD1764157505860597058CF00E948517BF
:10295000A70196010E94DD176F5F7F4F8F4F9F4F3A
:1029600070931702609316020F5F1F4FE1CF8091A3
:102970001F0290912002019709F0AFC00E94F0045D
:1029800086EE90E00E94E2040E94F00464EF71E0A1
:1029900080E090E00E94B402F12C58E2852E53E2D0
:1029A000952EA12CB12C60E1C62E67E2D62E0E9496
:1029B00085170F2D10E0A50194010E94DD17DC01A1
:1029C000CB0188519C4FAF4FBF4F9C01F801EE0FD8
:1029D000FF1FEA5EFD4F91838083FF2099F0000F77
:1029E000111FF801EC5EFD4F40815181449FC001F1
:1029F000459F900D900D1124B6010E9483188217F7
:102A0000930708F4F39484E0F812D1CF06E112E0C2
:102A1000412C512C32014394312C86ED90E00E94E0
:102A200027044AE0C301B2010E946F0488EE91E0DE
:102A30000E9462044AE0C301B2016D5F7F4F8F4F75
:102A40009F4F0E946F048AEE91E00E94D40464EFCD
:102A500071E080E090E00E94B402F80181909190D2
:102A60008F01B12CA12CFCE3EF2EF12CA4E1CA2E96
:102A7000D12C30FC06C07AEAE72EF12CE2E8CE2E0B
:102A8000D12C81149104A104B104D1F0C60180FEBF
:102A9000C7010E949F016CE271E080E090E00E941B
:102AA000B402B694A794979487948AE590E00E9424
:102AB0009F0164E670E080E090E00E94B402E1CF04
:102AC0003394F4E04F0E511C611C711C84E03812E9
:102AD000A4CF83EB90E00E94E204FE0131966F01E7
:102AE0005E01FCE1AF0EB11C2090780130907901BD
:102AF00040907A0150907B014AE0842E912C52E064
:102B0000652E712C80911F029091200281309105D9
:102B100009F0BAC081E080931E0206E112E0EE24C3
:102B2000E394F801819191918F0129823A824B823D
:102B30005C82FE013596B4010E9483188293CB011A
:102B4000CE16DF06C1F7F12C8CE292E00E9436032C
:102B500090ED980F9A3008F47CC064EF71E080E04B
:102B600090E00E94B402F4E0FF12EECF8EE192E01A
:102B700080179107B1F6EE2009F47BC08AE391E05B
:102B80000E94E2047092200260921F02E09104030E
:102B90008E2F90E0FC01EE0FFF1FE80FF91FE553A9
:102BA000FD4F80818F7B808310921E0264EF71E065
:102BB00080E090E00E94B4020E94F0048EEE91E06A
:102BC0000E94D4040E94F00464EF71E080E090E081
:102BD0000E94B4026AE072E0CE0182960E94A611C1
:102BE0001A8219821C821B821E821D826AA17BA10D
:102BF0006115710529F04EA15FA1C6010E947B11EC
:102C0000C6010E94F404C6010E944B1160ED77E0FA
:102C100080E090E00E94B40284E091E00E94E2042F
:102C2000CE0182960E944B1110921E0264EF71E059
:102C300080E090E00E94B40280E090E0892B09F4EB
:102C400061CF0E94A403882309F456CF0E9400009C
:102C500053CF082E000C990BC097F601EF0DF11D14
:102C6000F7FCFA9520812817190609F0E12CF39456
:102C70007ACF80E291E00E94E20460ED77E080E0AC
:102C800090E00E94B402D0CF029781F68CE292E0ED
:102C90000E949803181619060CF04FC01A82198268
:102CA0001C821B821E821D8250E040E060E971E0C0
:102CB000C6010E947B110E944A0397FD1AC08AA395
:102CC0001BA20D811E810F5F1F4FB801C6010E941C
:102CD0005311882381F329813A818D819E81BE0120
:102CE0006E5D7F4F820F931F0E94AD1A1E830D836E
:102CF000E2CF8091FE029091FF020097D1F16981AD
:102D00007A816115710599F1409100035091010399
:102D10002D813E814217530750F10E94AD1A8D81DB
:102D20009E8190930303809302031E821D82C6013D
:102D30000E944B1181E080931E0280911E02882325
:102D400009F474CF0091FE021091FF0201151105E4
:102D500039F1F80181918F01882311F1082E000CBF
:102D6000990B0E949C1AF80131978083F2CF0E9440
:102D7000561989819A819093FF028093FE028B817C
:102D80009C8190930103809300038D819E81909399
:102D90000303809302031A8219821C821B82C5CF0F
:102DA0001A8219821C821B821E821D826091FE0281
:102DB0007091FF026115710539F040910203509145
:102DC0000303C6010E947B11C6010E94F404182F60
:102DD000C6010E944B1180E991E00E94D4041123A6
:102DE000B9F184EC91E00E94E20488EAE82E93EFC6
:102DF000F92E0BE310E020E030E040E050E06CE121
:102E000071E0C6010E94C50629EAE22E20E030E00A
:102E100040E050E060E071E0CE0102960E94C506FD
:102E20008E010E5F1F4FF80161918F018CE292E0DD
:102E30000E94DA03A016B106B1F789E791E00E947B
:102E4000E20483E090E09093200280931F02ECCE96
:102E500089E591E00E94E204E7CE80EF92E00E94D3
:102E60004B1188EF92E00E944B118EEF92E00C9490
:102E70004B118F929F92AF92BF92CF92DF92EF92BF
:102E8000FF92CF93DF93EC01688179818A819B81E6
:102E9000611571058105910521F464E279ED8BE5F9
:102EA00097E02DE133EF41E050E00E94DD1749014A
:102EB0005A019B01AC01A7EAB1E40E94FC176B0127
:102EC0007C01ACEEB4EFA50194010E940A18C60E75
:102ED000D71EE81EF91EF7FE06C081E0C81AD10809
:102EE000E10880E8F80AC882D982EA82FB82C70139
:102EF000B6019F77DF91CF91FF90EF90DF90CF9059
:102F0000BF90AF909F908F9008958F929F92AF92B5
:102F1000BF92CF92DF92EF92FF9260913601709153
:102F20003701809138019091390161157105810552
:102F3000910521F464E279ED8BE597E02DE133EF23
:102F400041E050E00E94DD1749015A019B01AC01AC
:102F5000A7EAB1E40E94FC176B017C01ACEEB4EF70
:102F6000A50194010E940A18C60ED71EE81EF91E7C
:102F7000F7FE06C081E0C81AD108E10880E8F80A27
:102F8000C0923601D0923701E0923801F0923901B7
:102F9000C701B6019F77FF90EF90DF90CF90BF9071
:102FA000AF909F908F900895609336017093370192
:102FB00080933801909339010895052E97FB1EF4F4
:102FC00000940E94F41757FD07D00E94461807FC92
:102FD00003D04EF40C94F4175095409530952195FC
:102FE0003F4F4F4F5F4F0895909580957095619535
:102FF0007F4F8F4F9F4F08950E946818A59F900D97
:10300000B49F900DA49F800D911D11240895B7FFCA
:103010000C94FC170E94FC17821B930B08952F92AF
:103020003F924F925F926F927F928F929F92AF9258
:10303000BF92CF92DF92EF92FF920F931F93CF93A5
:10304000DF93CDB7DEB7CA1BDB0B0FB6F894DEBF3C
:103050000FBECDBF09942A88398848885F846E8462
:103060007D848C849B84AA84B984C884DF80EE80AC
:10307000FD800C811B81AA81B981CE0FD11D0FB6B5
:10308000F894DEBF0FBECDBFED010895A1E21A2E68
:10309000AA1BBB1BFD010DC0AA1FBB1FEE1FFF1FFC
:1030A000A217B307E407F50720F0A21BB30BE40B4C
:1030B000F50B661F771F881F991F1A9469F7609593
:1030C0007095809590959B01AC01BD01CF0108954D
:1030D000A29FB001B39FC001A39F700D811D112459
:1030E000911DB29F700D811D1124911D0895991B92
:1030F00079E004C0991F961708F0961B881F7A95EF
:10310000C9F780950895AA1BBB1B51E107C0AA1FF0
:10311000BB1FA617B70710F0A61BB70B881F991F78
:103120005A95A9F780959095BC01CD010895EE0FB1
:10313000FF1F0590F491E02D099497FD1094002E47
:10314000083098F00850232F342F452F562F672F23
:10315000782F892F912DF4CF159497958795779592
:10316000679557954795379527950A95AAF711249E
:10317000002D08950F931F93CF93DF938230910515
:1031800010F482E090E0E0910903F0910A0330E04E
:1031900020E0B0E0A0E0309799F42115310509F462
:1031A0004AC0281B390B24303105D8F58A819B8110
:1031B0006115710589F1FB0193838283FE0111C0C2
:1031C000408151810281138148175907E0F0481767
:1031D000590799F4109761F012960C931297139671
:1031E0001C933296CF01DF91CF911F910F910895DB
:1031F0000093090310930A03F4CF2115310551F010
:103200004217530738F0A901DB019A01BD01DF0124
:10321000F801C1CFEF01F9CF90930A03809309031E
:10322000CDCFFE01E20FF31F81939193225031091C
:1032300039832883D7CF2091070330910803232BAC
:1032400041F420913C0130913D01309308032093DB
:10325000070320913A0130913B012115310541F4DA
:103260002DB73EB740913E0150913F01241B350BD5
:10327000E0910703F0910803E217F307A0F42E1B77
:103280003F0B2817390778F0AC014E5F5F4F2417CA
:10329000350748F04E0F5F1F509308034093070314
:1032A000819391939FCFF0E0E0E09CCFCF93DF93A9
:1032B0000097E9F0FC01329713821282A091090372
:1032C000B0910A03ED0130E020E01097A1F42081D5
:1032D0003181820F931F2091070330910803281733
:1032E000390709F061C0F0930803E0930703DF9109
:1032F000CF910895EA01CE17DF07E8F54A815B8197
:103300009E0141155105B1F7E901FB83EA8349911B
:103310005991C40FD51FEC17FD0761F4808191818D
:103320000296840F951FE901998388838281938196
:103330009B838A83F0E0E0E012968D919C91139735
:103340000097B9F52D913C911197CD010296820F0E
:10335000931F20910703309108032817390739F686
:10336000309751F510920A0310920903B0930803A5
:10337000A0930703BCCFD383C28340815181840FC4
:10338000951FC817D90761F44E5F5F4F88819981F7
:10339000480F591F518340838A819B819383828385
:1033A0002115310509F0B0CFF0930A03E09309032A
:1033B0009ECFFD01DC01C0CF13821282D7CFB0E0D7
:1033C000A0E0E5EEF9E10C9411188C01009751F49E
:1033D000CB010E94BA188C01C801CDB7DEB7E0E17D
:1033E0000C942D18FC01E60FF71F9C0122503109A7
:1033F000E217F30708F49DC0D901CD91DC91119734
:10340000C617D70798F0C530D10530F3CE01049721
:103410008617970708F3C61BD70B2297C193D19342
:103420006D937C93CF010E945619D6CF5B01AC1AE5
:10343000BD0A4C018C0E9D1EA0910903B0910A0398
:10344000512C412CF12CE12C109731F58091070380
:10345000909108038815990509F05CC04616570637
:1034600008F058C080913A0190913B01009741F4D7
:103470008DB79EB740913E0150913F01841B950B43
:10348000E817F90708F055C0F0930803E093070325
:10349000F90171836083A0CF8D919C911197129651
:1034A0006C90129713967C901397A815B90559F54F
:1034B0006C0142E0C40ED11CCA14DB0420F1AC0143
:1034C0004A195B09DA011296159780F062827382BD
:1034D00051834083D9016D937C93E114F10471F021
:1034E000D7011396FC93EE93129776CF22968C0F0A
:1034F0009D1FF90191838083F301EFCFF0930A03BD
:10350000E093090369CF4816590608F42C017D01A0
:10351000D3019ACFCB010E94BA187C01009749F0E1
:10352000AE01B8010E94A41AC8010E945619870171
:1035300053CF10E000E050CF9111089581568A5189
:1035400008F4805285580895FB01DC0102C0019007
:103550000D9241505040D8F70895FB01DC010190D5
:103560000D920020E1F7089511E0C5E5D1E004C017
:10357000FE010E9497182196C635D107C9F7F89425
:02358000FFCF7B
:1035820037AF8698B9234B455ABF9C2B365D0975D8
:103592001146D78CDA16CBEF280504CA170C080F90
:1035A200443840851CCB9D59E048254EF99B39890A
:1035B200FB9F91192BD40100000000000B03800037
:1035C200153C6341B308549FA30791CAC638A55B53
:1035D2007D630A62A89B9F40BE4CEA8C6BF6579AA9
:1035E200F05C40546831537B69536144754D6D59A9
:1035F200466C61673F7D0000FFFFFFFF0000000097
:10360200DA03FA0227034204980336038A030D0AF7
:10361200004F62667573636174696F6E206973200F
:10362200696E76616C69642E20506C6561736520E9
:10363200636F6E74616374206368616C6C656E673E
:10364200652061646D696E6973747261746F722E44
:103652000057656C636F6D6520746F2046617374EB
:103662002026204D617821002D002E2E2E0050485C
:1036720041534520323A20546865204C6F6E67658D
:10368200737420506172616465004142434445464F
:04369200474849005C
:00000001FF
