:100000000C9469010C9491010C9491010C94910150
:100010000C9491010C9491010C9491010C94910118
:100020000C9491010C9491010C9491010C949911F0
:100030000C9491010C9491010C9491010C949101F8
:100040000C94F7100C9491010C9467110C944111CD
:100050000C9491010C9491010C9491010C949101D8
:100060000C9491010C9491012F2A2A2A2A2A2A2AD7
:100070002A2A2A2A2A2A2A2A2A2A2A2A2A2A2A2AE0
:100080002A2A2A2A2A2A2A2A2A2A2A2A2A2A2A2AD0
:100090002A2A2A2A2A2A2A2A2A2A2A2A2A2A2A2AC0
:1000A0002A2A2A2A2A2A2A2A2A2A2A2A2A2A2A2AB0
:1000B0002A2F005475726E696E6720436F756E74D7
:1000C0006572636C6F636B776973652033363020BC
:1000D000646567726565732E2E2E005475726E69A5
:1000E0006E6720436C6F636B7769736520333630BE
:1000F00020646567726565732E2E2E00456E7465EB
:100100007220436F756E746572636C6F636B776991
:1001100073652043616C6962726174696F6E204916
:100120006E74656765722000456E74657220436C5D
:100130006F636B776973652043616C696272617488
:10014000696F6E20496E746567657220002F2A2AD8
:100150002A2A2A2A2A2A2A2A2A2A2A2A2A2A2A2AFF
:100160002A2A2020594F55204245415420544845C1
:10017000204348414C4C454E474521212120202019
:100180002A2A2A2A2A2A2A2A2A2A2A2A2A2A2A2ACF
:100190002A2A2A2A2F002F2A2A2A2A2A2A2A2A2ADF
:1001A0002A2A2A2A2A2A2A2A2A2A2A2020202020E1
:1001B0002020202020436F6E6772617473212121FB
:1001C0002020202020202020202A2A2A2A2A2A2AE9
:1001D0002A2A2A2A2A2A2A2A2A2A2A2A2A2F00428C
:1001E000616E6720636C616E67204D617877656C26
:1001F0006CE28099732073696C7665722068616D1A
:100200006D6572206D616465207375726520746818
:100210006174207368652077617320646561642E62
:100220002054727920416761696E2E00436F7272AB
:1002300065637420466C61672121205075742074B9
:10024000686520666C616720616E642073657175F6
:10025000656E636520656E636F64696E67732069A0
:100260006E20796F7572207265706F727421210033
:100270002000466C616767696E673A2000200000C5
:100280000000080002010000030407000000000055
:1002900000000000000000250028002B00000000E6
:1002A00000240027002A00040404040404040402B7
:1002B0000202020202030303030303010204081003
:1002C00020408001020408102001020408102000D0
:1002D000551211241FBECFEFD8E0DEBFCDBF12E014
:1002E000A0E0B1E0E2EDFEE202C005900D92A8367A
:1002F000B107D9F723E0A8E6B2E001C01D92AC3AFD
:10030000B207E1F711E0C9E6D1E004C02197FE0190
:100310000E946117C836D107C9F70E94D5120C9404
:1003200067170C94000090E0FC01E554FD4F249108
:1003300089559D4FFC018491882399F090E0880FA6
:10034000991FFC01E356FD4FA591B491FC01ED56B8
:10035000FD4F859194918FB7F894EC91E22BEC933B
:100360008FBF089590E0FC01E158FD4F2491FC01FE
:10037000E554FD4F3491FC01E955FD4FE491EE2326
:10038000C9F0222339F0233001F1A8F4213019F10A
:10039000223029F1F0E0EE0FFF1FED56FD4FA59141
:1003A000B4918FB7F894EC91611126C030953E233B
:1003B0003C938FBF08952730A9F02830C9F024302E
:1003C00049F7809180008F7D03C0809180008F77F6
:1003D00080938000DFCF84B58F7784BDDBCF84B579
:1003E0008F7DFBCF8091B0008F778093B000D2CF0C
:1003F0008091B0008F7DF9CF3E2BDACF3FB7F894D4
:100400008091FB029091FC02A091FD02B091FE024E
:1004100026B5A89B05C02F3F19F00196A11DB11D5F
:100420003FBFBA2FA92F982F8827BC01CD01620F9B
:10043000711D811D911D42E0660F771F881F991F56
:100440004A95D1F708958F929F92AF92BF92CF9223
:10045000DF92EF92FF926B017C010E94FE014B0143
:100460005C01C114D104E104F104B9F00E94FE0161
:10047000681979098A099B09683E734081059105CD
:1004800080F321E0C21AD108E108F10888EE880E55
:1004900083E0981EA11CB11CE4CFFF90EF90DF9089
:1004A000CF90BF90AF909F908F900895AF92BF92E2
:1004B000CF92DF92EF92FF920F931F93CF93DF9330
:1004C0006C017B018B01040F151FEB015E01AE185F
:1004D000BF08C017D10759F06991D601ED91FC9181
:1004E0000190F081E02DC6010995892B79F7C501AE
:1004F000DF91CF911F910F91FF90EF90DF90CF9000
:10050000BF90AF900895FC01538D448D252F30E0AE
:10051000842F90E0821B930B541710F0CF96089510
:1005200001970895FC01918D828D981761F0A28D3D
:10053000AE0FBF2FB11D5D968C91928D9F5F9F7303
:10054000928F90E008958FEF9FEF0895FC01918DB9
:10055000828D981731F0828DE80FF11D858D90E026
:1005600008958FEF9FEF08952FB7F8948091FF02C1
:1005700090910003A0910103B09102032FBF8093DB
:100580000D0390930E03A0930F03B093100385E027
:1005900093E00E94A60297FF26C02FB7F89480919F
:1005A000FF0290910003A0910103B09102032FBFBD
:1005B00040910D0350910E0360910F037091100351
:1005C000841B950BA60BB70B4091090350910A03AE
:1005D00060910B0370910C0384179507A607B7076A
:1005E000B0F28FEF9FEF0895CF92DF92EF92FF92DC
:1005F000CF930E94B402FC0197FD4EC08D3291054D
:1006000021F0C0970A9708F040C0C12CD12C760188
:10061000C0E0E130F105D1F0ED32F105D9F1CF01C3
:10062000C0970A9798F4AAE0B0E0A70196010E944B
:10063000C5166F01FF0FEE08FF08C60ED71EE81E95
:10064000F91E80E3C81AD108E108F10885E093E0BB
:100650000E9492020E94B402FC01C0970A97C8F25D
:10066000E130F105B1F2CC2341F0F094E094D09464
:10067000C094C11CD11CE11CF11CC701B601CF9173
:10068000FF90EF90DF90CF90089585E093E00E9477
:100690009202AFCFC1E0DACFC12CD12C7601EDCFE1
:1006A000FC01918D228D892F90E0805C9F4F821BF1
:1006B00091098F739927089585E093E00E94500374
:1006C00021E0892B09F420E0822F089580E090E05A
:1006D000892B29F00E945C0381110C94000008957D
:1006E000FC01A48DA80FB92FB11DA35ABF4F2C91A7
:1006F000848D90E001968F739927848FA689B7899E
:100700002C93A089B1898C91837080648C93938D94
:10071000848D981306C00288F389E02D80818F7D37
:1007200080830895EF92FF920F931F93CF93DF93EF
:10073000EC0181E0888F9B8D8C8D98131AC0E8891D
:10074000F989808185FF15C09FB7F894EE89FF89EC
:100750006083E889F98980818370806480839FBF8A
:1007600081E090E0DF91CF911F910F91FF90EF908A
:100770000895F62E0B8D10E00F5F1F4F0F7311279A
:10078000E02E8C8D8E110CC00FB607FCFACFE889D5
:10079000F989808185FFF5CFCE010E947003F1CFEA
:1007A000EB8DEC0FFD2FF11DE35AFF4FF0829FB749
:1007B000F8940B8FEA89FB8980818062CFCF0F93F9
:1007C0001F93CF93DF938C01D0E0C0E0F801EC0FD2
:1007D000FD1F6491662341F085E093E00E9492033F
:1007E000892B11F02196F2CFCE01DF91CF911F918D
:1007F0000F910895CF93DF93EC01888D8823B9F092
:10080000AA89BB89E889F9898C9185FD03C080811B
:1008100086FD0DC00FB607FCF7CF8C9185FFF2CF98
:10082000808185FFEDCFCE010E947003E9CFDF917B
:10083000CF9108958F929F92AF92BF92FF920F93A4
:100840001F93CF93DF93FC01F0808BE08F1508F4AA
:100850004AC0828108E512E0081B110987FD139543
:10086000000F111F000F111F8181C8E8D0E0C81BC5
:10087000D10987FDD395CC0FDD1FCC0FDD1F4E01B5
:100880000D2E000CAA08BB089801012E000C440B89
:10089000550B281939094A095B09DB010E94D0165A
:1008A00024EB30E040E050E00E94A616820E931E3A
:1008B000A41EB51E8C169D062CF0E801801691062C
:1008C0000CF4E4012297CC0FDD1F2FB7F8948F2D85
:1008D00090E0FC01EE0FFF1FE80FF91FE659FD4FF6
:1008E000D283C1832FBFDF91CF911F910F91FF90D2
:1008F000BF90AF909F908F9008951F93CF93DF93F9
:10090000EC01162F88818C3008F04DC0862F0E9494
:1009100093018881282F30E0F901EE0FFF1FE20FCD
:10092000F31FE659FD4F1F736081607C612B60836C
:1009300019821A822CE0622F0E943817829FB00120
:10094000112430E020E0AB01420F531FFA01EE0FFB
:10095000FF1FE40FF51FE659FD4F908196FD16C06D
:100960002F5F3F4F2C30310571F781110FC010926E
:10097000800082E0809381001092850010928400B4
:10098000B19A80916F00826080936F00E8818E2F12
:1009900090E0FC01EE0FFF1FE80FF91FE659FD4F35
:1009A0008081806480838881DF91CF911F91089539
:1009B000FC01909169029C3098F481E0890F80934A
:1009C00069029083892F90E0FC01EE0FFF1FE80F72
:1009D000F91FE659FD4F88EB9BE0928381830895D0
:1009E0008FEF808308958F929F92AF92BF92EF9284
:1009F000FF920F931F93CF93DF93CDB7DEB7299765
:100A00000FB6F894DEBF0FBECDBF7C01B22E8B01B6
:100A1000041B150BCE0107960E94D8048091A703F2
:100A20009091A803A091A90329E0E216F10431F006
:100A30008091A4039091A503A091A6038F8398872A
:100A4000A987BB20E9F117FF02C008591E4F81E0BA
:100A500090E029E0E216F10411F490E080E0880FC4
:100A6000991F880F991FFC01E050FF4F80809180F3
:100A7000F12CE12C092C000CAA08BB08E016F106A9
:100A80000CF05BC08F819885A9858C839D83AE8394
:100A90006DE270E0CE0104960E941A04C501B40113
:100AA0000E94AD1521E73DE34AE450E40E94E815B9
:100AB0000E9409170E9423028DE2E80EF11CDECF8E
:100AC0001016110614F40856114081E090E029E058
:100AD000E216F10411F490E080E0880F991F880F6E
:100AE000991FFC01E050FF4F82809380F12CE12C94
:100AF000092C000CAA08BB080E151F05F4F48F8101
:100B00009885A98589839A83AB8367E870E0CE01D5
:100B100001960E941A04C501B4010E94AD152CEE85
:100B200031E548E450E40E94E8150E9409170E944C
:100B300023028DE2E81AF108DFCF6AE570E0CE010A
:100B400007960E941A0429960FB6F894DEBF0FBECE
:100B5000CDBFDF91CF911F910F91FF90EF90BF908C
:100B6000AF909F908F900895FC0101900020E9F7CD
:100B70003197AF01481B590BBC0185E093E00C9401
:100B800056028AEA91E00C94B405CF93DF930E9459
:100B9000DF03EC010E94C1058C0F9D1FDF91CF91F7
:100BA0000895CF93DF930E94B405EC010E94C10524
:100BB0008C0F9D1FDF91CF9108958F929F92AF92DE
:100BC000BF92CF92DF92EF92FF920F931F93CF933A
:100BD000DF93CDB7DEB7A1970FB6F894DEBF0FBE97
:100BE000CDBF6B017C01F7FE41C06DE285E093E073
:100BF0000E9492038C0122273327A9012C193D0959
:100C00004E095F0919A2CE0181967C019AE0892ED6
:100C1000912CA12CB12CCA01B901A50194010E940B
:100C2000D816605DF70162937F01211531054105FA
:100C3000510589F790E080E0309719F0CF010E94CC
:100C4000B405800F911FA1960FB6F894DEBF0FBEBA
:100C5000CDBFDF91CF911F910F91FF90EF90DF906B
:100C6000CF90BF90AF909F908F900895AC019B0163
:100C700019A28E010F5D1F4F8AE0C82ED12CE12CE6
:100C8000F12CCA01B901A70196010E94D816605D36
:100C9000F80162938F01211531054105510589F74E
:100CA00090E080E0309779F2CF010E94B405CBCF7D
:100CB000CF93DF93BC01990F880B990B0E94DD0540
:100CC000EC010E94C1058C0F9D1FDF91CF9108950B
:100CD0002F923F924F925F926F927F928F929F924C
:100CE000AF92BF92CF92DF92EF92FF920F931F933A
:100CF000CF93DF93CDB7DEB7C053D2400FB6F89491
:100D0000DEBF0FBECDBFC35DDD4F8883CD52D24065
:100D1000C25DDD4F9883CE52D240C15DDD4F688306
:100D2000CF52D240C05DDD4F7883C053D240C75D03
:100D3000DD4F59834883C952D240A701B801C90188
:100D40002DB63EB6C55DDD4F39822882CB52D240EA
:100D5000FE01EF51FE4F28E0DF011D922A95E9F7D1
:100D6000DF011896C192960108E00E9446176901BA
:100D7000AE17BF07B9F780E2E8E7F1E0DE01AF5355
:100D8000BE4F01900D928A95E1F7809103039091F7
:100D90000403AC01092E000C660B770B452F562F70
:100DA000672F7727EDB7FEB7CB5FDD4FF983E88379
:100DB000C550D24001E013E225E437E6CF53DE4FC1
:100DC000088319832A833B83C15CD14009E81BEA6D
:100DD0002DEC3FEECB53DE4F088319832A833B83F0
:100DE000C55CD1400EEF1CED2AEB38E9C753DE4F4E
:100DF000088319832A833B83C95CD14006E714E545
:100E000022E330E1C353DE4F088319832A833B83F7
:100E1000CD5CD14000EF11EE22ED33ECCF52DE4F2E
:100E2000088319832A833B83C15DD1400DB71EB768
:100E3000005411090FB6F8941EBF0FBE0DBFFF97E7
:100E40002DB73EB72F5B3F4FDF011D921D921D92C4
:100E50001D92A217B307C9F79927092E000CAA0BF8
:100E6000BB0BB82FAA27992788279068BA01552766
:100E70004427442755277727842B952BA62BB72B60
:100E80004081518162817381842B952BA62BB72BD6
:100E900080839183A283B38380E190E0A0E0B0E0FF
:100EA00084AF95AFA6AFB7AFAE014F5F5F4F80E4A1
:100EB00091E0DA018C011D9201501040E1F7CF5012
:100EC000DE4F59834883C15FD140C350DE4FF98361
:100ED000E883CD5FD1401E011FE3211A310820EFC6
:100EE00031EE42ED53ECC750DE4F288339834A83FD
:100EF0005B83C95FD14041E053E265E477E6C351CB
:100F0000DE4F488359836A837B83CD5ED14049E8B5
:100F1000442E4BEA542E4DEC642E4FEE742E46E7D1
:100F200054E562E370E10EEF1CED2AEB38E9C7519E
:100F3000DE4F1882C95ED140C751DE4F8881C95E3D
:100F4000D140803110F00C942710C350DE4FE8815F
:100F5000F981CD5FD14080819181A281B381CF5051
:100F6000DE4FE881F981C15FD14080839183A28304
:100F7000B383D901C80184279527A627B7278421E1
:100F80009521A621B7214C015D0184269526A62630
:100F9000B726C75FDD4F88829982AA82BB82C9507B
:100FA000D24099E9C92E99E7D92E92E8E92E9AE51F
:100FB000F92EC351DE4F88819981AA81BB81CD5E14
:100FC000D140EBE1B695A79597958795EA95D1F72E
:100FD000C351DE4F88809980AA80BB80CD5ED1400E
:100FE000F5E0880C991CAA1CBB1CFA95D1F7882A3D
:100FF000992AAA2ABB2ACF50DE4FE881F981C15F26
:10100000D14081919191A191B191CF50DE4FF9835F
:10101000E883C15FD140880E991EAA1EBB1EC75F20
:10102000DD4F88819981AA81BB81C950D240880D4A
:10103000991DAA1DBB1DC80ED91EEA1EFB1EC75056
:10104000DE4F88809980AA80BB80C95FD140C80CE0
:10105000D91CEA1CFB1CD301C201E2E0B695A7959E
:1010600097958795EA95D1F753014201FEE1880CE7
:10107000991CAA1CBB1CFA95D1F7882A992AAA2A7E
:10108000BB2AC751DE4F8881C95ED1408F5FC751EF
:10109000DE4F8883C95ED140C350DE4FA881B9813D
:1010A000CD5FD1401496C350DE4FB983A883CD5F86
:1010B000D140B4E02B0E311CC351DE4F4880598023
:1010C0006A807B80CD5ED140C750DE4F4883598314
:1010D0006A837B83C95FD140803509F0AAC7EFEFEF
:1010E000CE1AECEDDE0AEAEBEE0AE8E9FE0ACF538F
:1010F000DE4FC882D982EA82FB82C15CD140F7E729
:101100004F1AF4E55F0AF2E36F0AF0E17F0ACB536E
:10111000DE4F488259826A827B82C55CD14082E080
:10112000881A83E2980A85E4A80A87E6B80AC753B2
:10113000DE4F88829982AA82BB82C95CD140D901E4
:10114000C8018A589B4AAD4CBF4EC751DE4F8883B9
:101150009983AA83BB83C95ED140C353DE4F888382
:101160009983AA83BB83CD5CD1408A019B01005146
:101170001E412D423C43C351DE4F088319832A830D
:101180003B83CD5ED140CF52DE4F088319832A8343
:101190003B83C15DD140CB5FDD4F28813981C55094
:1011A000D2400FB6F8943EBF0FBE2DBFFE01EF53E5
:1011B000FE4F9F01205E3F4F80E090E0DC014191B7
:1011C00051916191719184279527A627B7272E17F2
:1011D0003F07A9F7843F954DA943B54D21F08DEA0E
:1011E00091E00E94D105C358DE4F188219821A82FD
:1011F0001B82CD57D14085E698E7A0E7B1E6CF5BEB
:10120000DE4F88839983AA83BB83C154D1408EE685
:1012100094E6A0E2B3E3CB5BDE4F88839983AA8395
:10122000BB83C554D14082E39DE2A2E6B9E7C75B28
:10123000DE4F88839983AA83BB83C954D14084E756
:1012400095E6A0E2BBE6C35BDE4F88839983AA8361
:10125000BB83CD54D140CF5ADE4FC882D982EA82B7
:10126000FB82C155D140CB5ADE4F488259826A82F7
:101270007B82C555D140C75ADE4F88829982AA82A7
:10128000BB82C955D140C751DE4F288039804A8082
:101290005B80C95ED140C35ADE4F288239824A82C0
:1012A0005B82CD55D140C351DE4F488059806A8062
:1012B0007B80CD5ED140CF59DE4F488259826A8211
:1012C0007B82C156D14080E49EEBACE4BAEECB59B0
:1012D000DE4F88839983AA83BB83C556D1408CE8AF
:1012E0009BE6A6EFB7E5C759DE4F88839983AA83AB
:1012F000BB83C956D1408AE990EFACE5B0E4C3594D
:10130000DE4F88839983AA83BB83CD56D140CF58C3
:10131000DE4F188219821A821B82C157D140CF51E9
:10132000DE4F88819981AA81BB81C15ED140CB58B3
:10133000DE4F88839983AA83BB83C557D140CB51A5
:10134000DE4F88819981AA81BB81C55ED140C75893
:10135000DE4F88839983AA83BB83C957D14080E439
:10136000FE01EF5BFE4FDE01119601900D928A9512
:10137000E1F769807A808B809C80CB50DE4F688259
:1013800079828A829B82C55FD14021968CAC9DACCC
:10139000AEACBFAC2197C75FDD4F88829982AA822D
:1013A000BB82C950D240A9A4BAA4CBA4DCA4CB5F11
:1013B000DD4FA882B982CA82DB82C550D2404D88F7
:1013C0005E886F88788CCD80DE80EF80F884C35093
:1013D000DE4FC882D982EA82FB82CD5FD14089A8E4
:1013E0009AA8ABA8BCA8EDA4FEA40FA518A9C35F3A
:1013F000DD4FE882F9820A831B83CD50D240098DEC
:101400001A8D2B8D3C8DCF50DE4F088319832A8394
:101410003B83C15FD14029853A854B855C85CB5E96
:10142000DD4F288339834A835B83C551D2404DA960
:101430005EA96FA978ADCF5FDD4F488359836A837A
:101440007B83C150D24009A11AA12BA13CA16D8D73
:101450007E8D8F8D98A1C351DE4F688379838A83F7
:101460009B83CD5ED1408D859E85AF85B889C75160
:10147000DE4F88839983AA83BB83C95ED140C9AC00
:10148000DAACEBACFCACC750DE4FC882D982EA8242
:10149000FB82C95FD1404DA15EA16FA178A589896A
:1014A0009A89AB89BC89EAE0F0E0CB50DE4FC88076
:1014B000D980EA80FB80C55FD140C80ED91EEA1EE4
:1014C000FB1EC75EDD4FC882D982EA82FB82C9510A
:1014D000D2408C249D24AE24BF24740145015701C1
:1014E00068017901C80CD91CEA1CFB1CCF5EDD4FDA
:1014F000C882D982EA82FB82C151D2408C259D25C7
:10150000AE25BF256C017D012CE0CC0CDD1CEE1C52
:10151000FF1C2A95D1F734E1B695A7959795879545
:101520003A95D1F78C299D29AE29BF29C75EDD4F99
:10153000E880F9800A811B81C951D240E80EF91E6A
:101540000A1F1B1FCB50DE4FE882F9820A831B83E0
:10155000C55FD1408E249F24A026B126182D292DA9
:101560003A2D0B2DC75EDD4F088319832A833B83F9
:10157000C951D240CF5EDD4F88809980AA80BB8060
:10158000C151D240080D191D2A1D3B1DC35EDD4F00
:10159000088319832A833B83CD51D240802791272A
:1015A000A227B3278C019D01689416F8000F111F24
:1015B000221F331F1694D1F75C016D0189E1D69487
:1015C000C794B794A7948A95D1F7A02AB12AC22AC2
:1015D000D32ACF5EDD4FA882B982CA82DB82C15195
:1015E000D240C350DE4F88819981AA81BB81CD5FF3
:1015F000D140840D951DA61DB71DCF5FDD4FC8805E
:10160000D980EA80FB80C150D240C826D926EA267C
:10161000FB268601670178014C0D5D1D6E1D7F1D47
:101620008A019B01042515252625372548015901E6
:10163000072E7CE0880C991CAA1CBB1C7A95D1F75C
:10164000702D0F2EF4E13695279517950795FA958D
:10165000D1F7F02D082919292A293B291C012D0130
:10166000200E311E421E531EC350DE4F2882398287
:101670004A825B82CD5FD140C224D324E424F52486
:101680005C2C6D2C7E2C4F2CCF5FDD4F4882598215
:101690006A827B82C150D240440E551E661E771E60
:1016A000CF5DDD4F488259826A827B82C152D2402F
:1016B0000425152526253725B901A80187E0440F03
:1016C000551F661F771F8A95D1F74801590199E187
:1016D000B694A794979487949A95D1F7842A952ADB
:1016E000A62AB72ACF50DE4FC880D980EA80FB8077
:1016F000C15FD140CB5EDD4F088119812A813B81DA
:10170000C551D240C00ED11EE21EF31EC750DE4F9F
:1017100088819981AA81BB81C95FD1408C259D2593
:10172000AE25BF259C01CD01D901CB5FDD4F48809F
:1017300059806A807B80C550D240480E591E6A1E6F
:101740007B1ECF50DE4F488159816A817B81C15F0A
:10175000D14044255525662577258A019B010F2E0A
:10176000FCE0000F111F221F331FFA95D1F7F02D57
:10177000032E34E176956795579547953A95D1F7BD
:10178000302D402B512B622B732B97018601040FB8
:10179000151F261F371FC750DE4F088319832A8362
:1017A0003B83C95FD14080279127A227B327D82E3A
:1017B000E92EFA2ECB2ECB5DDD4FC882D982EA828C
:1017C000FB82C552D240C40CD51CE61CF71CCB5F73
:1017D000DD4FC882D982EA82FB82C550D2404C25B7
:1017E0005D256E257F25DB01CA0127E0880F991F43
:1017F000AA1FBB1F2A95D1F71A012B0139E1569474
:101800004794379427943A95D1F7282A392A4A2AB7
:101810005B2ACF50DE4F288239824A825B82C15FC9
:10182000D140C351DE4FC880D980EA80FB80CD5EB5
:10183000D140C751DE4F488059806A807B80C95EA5
:10184000D140C40CD51CE61CF71CC75FDD4F488196
:1018500059816A817B81C950D2404C255D256E2516
:101860007F253A01AB01B301C35FDD4F08811981C8
:101870002A813B81CD50D240040F151F261F371FF0
:10188000C351DE4F88819981AA81BB81CD5ED14051
:1018900080279127A227B3271C012D01012E1CE0D0
:1018A000220C331C441C551C1A95D1F7102D072E01
:1018B00074E1B695A795979587957A95D1F7702D90
:1018C00082299329A429B52926013701480E591EDA
:1018D0006A1E7B1EC751DE4F488259826A827B8214
:1018E000C95ED1404425552566257725542E472FBE
:1018F000762F652F552D040F151F261F371F8027A4
:101900009127A227B3276C017D01689416F8CC0CAF
:10191000DD1CEE1CFF1C1694D1F71C012D0189E182
:1019200056944794379427948A95D1F72C283D28CC
:101930004E285F28C351DE4F288239824A825B825B
:10194000CD5ED140CB50DE4FC880D980EA80FB808D
:10195000C55FD140C80CD91CEA1CFB1C4C255D2579
:101960006E257F252A01AB01B201CB5FDD4F488098
:1019700059806A807B80C550D240440E551E661E39
:10198000771ED501C40184259525A625B7254C01D0
:101990005D01072E7CE0880C991CAA1CBB1C7A9563
:1019A000D1F7702D072E74E1B695A7959795879579
:1019B0007A95D1F7702D88299929AA29BB29460142
:1019C0005701880E991EAA1EBB1ECB50DE4F88827F
:1019D0009982AA82BB82C55FD140482559256A25D4
:1019E0007B25B42EC52ED62EA72EC75FDD4FA8822D
:1019F000B982CA82DB82C950D240A40CB51CC61C75
:101A0000D71CCB5FDD4FA882B982CA82DB82C5506A
:101A1000D2408A259B25AC25BD25AC01BD0168942B
:101A200016F8440F551F661F771F1694D1F72C0127
:101A30003D0189E176946794579447948A95D1F74C
:101A4000442A552A662A772AC350DE4F8881998115
:101A5000AA81BB81CD5FD140CF50DE4F48815981F3
:101A60006A817B81C15FD140840F951FA61FB71F7C
:101A7000C75EDD4F88809980AA80BB80C951D24063
:101A800088269926AA26BB26B40145015B01080DCC
:101A9000191D2A1D3B1DCF50DE4F488159816A8197
:101AA0007B81C15FD14040275127622773276A019C
:101AB0007B010B2EBCE0CC0CDD1CEE1CFF1CBA9590
:101AC000D1F7B02D032E34E176956795579547955C
:101AD0003A95D1F7302D4C295D296E297F296C016B
:101AE0007D01C40ED51EE61EF71EC350DE4FC88210
:101AF000D982EA82FB82CD5FD1408C249D24AE2422
:101B0000BF24D82C8B2CBA2CA92C9D2CD901C80110
:101B1000880D991DAA1DBB1DC35FDD4F8883998366
:101B2000AA83BB83CD50D240482759276A277B27F9
:101B3000DB01CA0127E0880F991FAA1FBB1F2A9546
:101B4000D1F76A017B0139E1F694E794D794C79401
:101B50003A95D1F7C82AD92AEA2AFB2ACF50DE4F74
:101B6000C882D982EA82FB82C15FD140C750DE4F72
:101B7000C880D980EA80FB80C95FD140C351DE4F65
:101B8000088119812A813B81CD5ED140C00ED11ED2
:101B9000E21EF31ECF5FDD4F488159816A817B8150
:101BA000C150D2404C255D256E257F259A01AB01A1
:101BB000B901C35EDD4F88819981AA81BB81CD5176
:101BC000D240840F951FA61FB71FC750DE4F8883D2
:101BD0009983AA83BB83C95FD140C351DE4F8881FB
:101BE0009981AA81BB81CD5ED140C750DE4F08816B
:101BF00019812A813B81C95FD14080279127A22783
:101C0000B3278C019D010F2EFCE0000F111F221F36
:101C1000331FFA95D1F7F02D072E74E1B695A795ED
:101C2000979587957A95D1F7702D802B912BA22BC4
:101C3000B32B97018601080F191F2A1F3B1FCB5E8C
:101C4000DD4F088319832A833B83C551D240402747
:101C5000512762277327D42EE52EF62EC72ECF5F8D
:101C6000DD4FC882D982EA82FB82C150D240C75080
:101C7000DE4F088119812A813B81C95FD1400C0D5B
:101C80001D1D2E1D3F1D80279127A227B327AC01C4
:101C9000BD01689416F8440F551F661F771F1694F0
:101CA000D1F76C017D0189E1F694E794D794C7944C
:101CB0008A95D1F7C42AD52AE62AF72AC351DE4FDE
:101CC000C882D982EA82FB82CD5ED140CF5EDD4FF1
:101CD000488159816A817B81C151D240C751DE4F11
:101CE00088819981AA81BB81C95ED140480F591F63
:101CF0006A1F7B1FC751DE4F488359836A837B83EA
:101D0000C95ED140CB5DDD4FC880D980EA80FB80C1
:101D1000C552D240C426D526E626F726D60167014D
:101D20007D01CF5DDD4F488159816A817B81C15240
:101D3000D2404C0D5D1D6E1D7F1DC75EDD4F48837B
:101D400059836A837B83C951D240CF5EDD4F88813E
:101D50009981AA81BB81C151D24084279527A627AA
:101D6000B727AC01BD01032E3CE0440F551F661F91
:101D7000771F3A95D1F7302D072E74E1B695A795C8
:101D8000979587957A95D1F7702D842B952BA62B57
:101D9000B72BC751DE4F488159816A817B81C95E6B
:101DA000D140480F591F6A1F7B1FC751DE4F488320
:101DB00059836A837B83C95ED140C426D526E62633
:101DC000F7265C2D6D2D7E2D4F2DC750DE4F48839D
:101DD00059836A837B83C95FD140C75EDD4F4881E9
:101DE00059816A817B81C951D240C750DE4FC8807A
:101DF000D980EA80FB80C95FD1404C0D5D1D6E1D0E
:101E00007F1D84279527A627B7276C017D0168943D
:101E100016F8CC0CDD1CEE1CFF1C1694D1F7072E17
:101E200079E1B695A795979587957A95D1F7702D15
:101E30008C299D29AE29BF29319709F036CBCB508B
:101E4000DE4FC880D980EA80FB80C55FD140C9825F
:101E5000DA82EB82FC82898B9A8BAB8BBC8B89AA52
:101E60009AAAABAABCAA09A31AA32BA33CA3C3504A
:101E7000DE4FE880F9800A811B81CD5FD140ED8281
:101E8000FE820F8318874D8A5E8A6F8A788ECF5FB5
:101E9000DD4F088119812A813B81C150D2400DABB1
:101EA0001EAB2FAB38AF4DA35EA36FA378A7CB5E5D
:101EB000DD4F288139814A815B81C551D240298714
:101EC0003A874B875C87CF50DE4F488159816A81C2
:101ED0007B81C15FD140498F5A8F6B8F7C8FC750F8
:101EE000DE4F688179818A819B81C95FD14069AF6A
:101EF0007AAF8BAF9CAFCB5FDD4F88819981AA8190
:101F0000BB81C550D24089A79AA7ABA7BCA7C75130
:101F1000DE4F288039804A805B80C95ED1402D86A3
:101F20003E864F86588AC351DE4F488059806A806A
:101F30007B80CD5ED1404D8E5E8E6F8E78A2C75F66
:101F4000DD4F688079808A809B80C950D24021967D
:101F50006CAE7DAE8EAE9FAE2197C35FDD4F8880A5
:101F60009980AA80BB80CD50D2408DA69EA6AFA6F8
:101F7000B8AA8E010F5F1F4FCE018F5B9E4F9E014F
:101F80002F5B3F4FF801C190D190E190F190DC01BF
:101F90008D909D90AD90BD90CD01AF014450510901
:101FA000C80CD91CEA1CFB1CDA01CD92DD92ED9223
:101FB000FC9213972E173F0731F7CE018F579E4F94
:101FC0009C01D8014D915D916D917D918D01D9015B
:101FD0004D935D936D937D939D01E017F10789F714
:101FE000C15DDD4FE881CF52D240C05DDD4FF88149
:101FF000C053D240C35DDD4F6881CD52D240C25D37
:10200000DD4F7881CE52D240C75DDD4F4881598186
:10201000C952D2404E0F5F1F4E175F0709F4C2C06E
:102020002191DC013D91CD012327DB012D93BD01E1
:10203000F3CFC351DE4FC882D982EA82FB82CD5EE4
:10204000D140B901A801950184010C949C07D101EC
:10205000D496CD90DD90ED90FC90D79790968D9191
:102060009D910D90BC91A02D8C259D25AE25BF2561
:10207000F101C084D184E284F3848C259D25AE25B2
:10208000BF25C080D180E280F3808C259D25AE25C0
:10209000BF25880F991FAA1FBB1F811DCF50DE4F80
:1020A000E881F981C15FD14080839183A283B383AA
:1020B000C751DE4FF881C95ED140F43110F40C9461
:1020C000B907C751DE4F8881C95ED1408832F0F42C
:1020D000D901C80184279527A627B7274C015D01A0
:1020E00084249524A624B724C75FDD4F8882998273
:1020F000AA82BB82C950D24081EAC82E8BEED82E6C
:1021000089EDE82E8EE6F82E0C94D907C751DE4FE4
:102110008881C95ED140D9018C3338F5C801842B40
:10212000952BA62BB72B84219521A621B7216801D9
:102130007901C422D522E622F7224C015D018C28C8
:102140009D28AE28BF28C75FDD4F88829982AA826A
:10215000BB82C950D240BCEDCB2EBCEBDB2EBBE129
:10216000EB2EBFE8FB2E0C94D907C80184279527D6
:10217000A627B7275C016D01A424B524C624D72463
:10218000C75FDD4FA882B982CA82DB82C950D240C4
:10219000A6EDCA2EA1ECDA2EA2E6EA2EAAECFA2EC1
:1021A0000C94D907C55DDD4F28803980CB52D240D1
:1021B0000FB6F8943EBE0FBE2DBEC05DDD4F0FB60C
:1021C000F894DEBF0FBECDBFDF91CF911F910F916D
:1021D000FF90EF90DF90CF90BF90AF909F908F9047
:1021E0007F906F905F904F903F902F9008951F9237
:1021F0000F920FB60F9211242F933F938F939F93BB
:10220000AF93BF938091FF0290910003A0910103CF
:10221000B09102033091FA0223E0230F2D3758F5D5
:102220000196A11DB11D2093FA028093FF029093A5
:102230000003A0930103B09302038091FB029091ED
:10224000FC02A091FD02B091FE020196A11DB11DFC
:102250008093FB029093FC02A093FD02B093FE02D8
:10226000BF91AF919F918F913F912F910F900FBE92
:102270000F901F90189526E8230F0296A11DB11DFF
:10228000D2CF1F920F920FB60F9211242F933F932C
:102290004F935F936F937F938F939F93AF93BF936E
:1022A000EF93FF9385E093E00E947003FF91EF911D
:1022B000BF91AF919F918F917F916F915F914F915E
:1022C0003F912F910F900FBE0F901F9018951F9266
:1022D0000F920FB60F9211242F938F939F93EF932A
:1022E000FF93E0911503F09116038081E0911B03A9
:1022F000F0911C0382FD1BC0908180911E038F5FB3
:102300008F7320911F03821741F0E0911E03F0E0CC
:10231000EB5FFC4F958F80931E03FF91EF919F9190
:102320008F912F910F900FBE0F901F901895808165
:10233000F4CF1F920F920FB60F9211242F933F9359
:102340004F935F936F937F938F939F93AF93BF93BD
:10235000CF93DF93EF93FF9380916802C09169025E
:10236000D0E087FF24C010928500109284008091F5
:1023700068028F5F8093680280916802082E000CCB
:10238000990B8C179D0724F4809168028C30C4F15E
:102390008091840090918500049680349C4908F4D3
:1023A0007AC08091840090918500049676C08091D7
:1023B0006802082E000C990B8C179D07C4F6E0915B
:1023C00068028E2FEE0F990BFC01EE0FFF1FE80F36
:1023D000F91FE659FD4F808186FFC9CFE091680261
:1023E0008E2FEE0F990BFC01EE0FFF1FE80FF91F68
:1023F000E659FD4F808160E08F730E94B201B7CF34
:102400002091840030918500E09168028E2FEE0FBC
:10241000990BFC01EE0FFF1FE80FF91FE659FD4F66
:1024200081819281820F931F90938900809388000D
:10243000E09168028E2FEE0F990BFC01EE0FFF1F4B
:10244000E80FF91FE659FD4F808186FF11C0E0912A
:1024500068028E2FEE0F990BFC01EE0FFF1FE80FA5
:10246000F91FE659FD4F808161E08F730E94B20130
:10247000FF91EF91DF91CF91BF91AF919F918F919C
:102480007F916F915F914F913F912F910F900FBE70
:102490000F901F90189580E49CE990938900809399
:1024A00088008FEF80936802E3CFCF9310920803E8
:1024B0001092070388EE93E0A0E0B0E08093090358
:1024C00090930A03A0930B03B0930C038CE991E063
:1024D000909306038093050385EC90E0909312039C
:1024E0008093110384EC90E0909314038093130382
:1024F00080EC90E0909316038093150381EC90E0BC
:10250000909318038093170382EC90E090931A0342
:102510008093190386EC90E090931C0380931B0337
:1025200010921E0310921F03109220031092210399
:102530001092A3031092AA0382E08093AB038CE075
:102540000E94930187E00E94930188E00E9493011A
:1025500084E00E9493011092A20360E08CE00E944C
:10256000B20160E088E00E94B201C8E060E084E06F
:102570000E94B20160E088E00E94B20161E084E064
:102580000E94B201C15091F761E08CE00E94B2015B
:1025900060E087E00E94B20187EA93E00E94D804DD
:1025A00084EA93E0CF910C94D804CF93DF9300D0CA
:1025B00000D01F92CDB7DEB7789484B5826084BD19
:1025C00084B5816084BD85B5826085BD85B5816037
:1025D00085BD80916E00816080936E0010928100B5
:1025E0008091810082608093810080918100816070
:1025F0008093810080918000816080938000809131
:10260000B10084608093B1008091B00081608093BC
:10261000B00080917A00846080937A0080917A0083
:10262000826080937A0080917A00816080937A0042
:1026300080917A00806880937A001092C100E091C6
:102640001503F091160382E08083E0911103F0916D
:1026500012031082E0911303F091140380E1808350
:1026600010921D03E0911903F0911A0386E0808314
:10267000E0911703F0911803808180618083E091DD
:102680001703F0911803808188608083E09117031D
:10269000F0911803808180688083E0911703F091A6
:1026A000180380818F7D808368EE73E080E090E086
:1026B0000E9423028091030390910403805C9D415A
:1026C000909304038093030388E690E00E94C5057D
:1026D0008DEE91E00E94D10588E690E00E94C5054C
:1026E00080EA96E8A1E0B0E08093090390930A03A2
:1026F000A0930B03B0930C0364E670E080E090E0DD
:102700000E94230269E070E087EA93E00E947D0462
:102710006AE070E084EA93E00E947D04CE010196B5
:102720000E94D804B0E0CB2EB1E0DB2EF12CE12CDE
:1027300019E1A12EB12C08EC802E912C8601412CA0
:10274000512C3201439488E291E0E114F10411F03C
:102750008CEF90E00E94DF03C301B2010E94DD050F
:102760008FEF91E00E94D105F80111821082F801EB
:1027700080819181009781F40E94F402F8017183B5
:102780006083F5CFEE24E394F12CD8CFE2E04E2E17
:10279000512C612C712CD7CF499714F4B182A082AF
:1027A000F80180819181893C910514F091828082A9
:1027B00082E192E00E94B405F801808191810E943B
:1027C0005806E114F10409F050C18BED90E00E942D
:1027D000C50521E050E040E068E671E089E090E066
:1027E0000E94F30421E050E040E068E671E08AE0F6
:1027F00090E00E94F30485E093E00E94FA030C5FEE
:102800001F4FF2E04F1651046104710409F0BECF6E
:1028100022E0C20ED11CEA94EF2809F0B3CF64EF96
:1028200071E080E090E00E94230238E9C32E4CEC76
:10283000D42E5BE3E52EF12C00E010E020E030E048
:102840004DE250E067E471E08DEC92E00E94680692
:1028500069E9C62E20E030E04DE250E06AE171E027
:1028600080EA92E00E9468067AE9C72E20E030E014
:1028700042E150E068E071E08EE892E00E94680674
:102880001DE28DECA82E82E0B82E90EAC92E92E0CF
:10289000D92EEE24E394F12C93E0E916F104B4F47C
:1028A000F5016181619FB0011124072E000C880B96
:1028B000990B0E94DD058DE792E00E94DF03F6018F
:1028C0008181819FC00111240E9458060E949B159E
:1028D000F50141915F01282F2170419FA001112432
:1028E0006081619FB001112489E090E00E94F304AF
:1028F0000E949B15F60141916F01282F2170419F85
:10290000A00111246081619FB00111248AE090E050
:102910000E94F30464EF71E080E090E00E942302E3
:10292000FFEFEF1AFF0A2DE2E216F10409F0B4CF2F
:1029300081E292E00E94D1058090F9028DE2889EAA
:1029400040011124A090CC02A89E50011124EEE871
:10295000F2E0FD83EC8301E00E94F4026B010E942F
:10296000F4021B01F8E6CF16F1E0DF0618F0C12CE7
:10297000D12C7601760128E6221621E0320618F0E5
:10298000212C312C2101310182E792E00E94DF03EA
:10299000B7010F2C000C880B990B0E94DD0580E716
:1029A00092E00E94DF03C1010E9458060E949B151D
:1029B000282F2170A401B70189E090E00E94F30460
:1029C0000E949B15282F2170A501B1018AE090E09B
:1029D0000E94F304EC81FD818191FD83EC83819F52
:1029E000C0011124E816F90639F42085219F9001D1
:1029F00011242216330671F0EC81FD812085219F80
:102A000090011124E216F30609F042C06816790617
:102A100009F03EC0470153018C819D818759924046
:102A200009F09ACF0023B1F10E94C1050E94C105AF
:102A30008DE491E00E94C5058CE292E00E94C505FC
:102A400086E991E00E94C5050E94C1050E94C1056A
:102A500080E090E0892B09F414CF0E945C03882366
:102A600009F40FCF0E9400000CCF83EB90E00E948E
:102A7000C50520E050E040E068E97EEF89E090E0A5
:102A80000E94F30420E050E040E068E97EEFAFCE22
:102A900000E0C0CF8FED91E00E94C505D9CF8F92A5
:102AA0009F92AF92BF92CF92DF92EF92FF92CF931D
:102AB000DF93EC01688179818A819B8161157105C1
:102AC0008105910521F464E279ED8BE597E02DE134
:102AD00033EF41E050E00E94A61649015A019B01E4
:102AE000AC01A7EAB1E40E94C5166B017C01ACEE13
:102AF000B4EFA50194010E94D316DC01CB018C0D2B
:102B00009D1DAE1DBF1DB7FF03C00197A109B048B1
:102B100088839983AA83BB839F77DF91CF91FF90AE
:102B2000EF90DF90CF90BF90AF909F908F900895DF
:102B30000E944F15089584E791E00E944F15089573
:102B4000B0E0A0E08093740190937501A0937601AA
:102B5000B09377010895E89409C097FB3EF49095EF
:102B60008095709561957F4F8F4F9F4F9923A9F066
:102B7000F92F96E9BB279395F695879577956795F5
:102B8000B795F111F8CFFAF4BB0F11F460FF1BC039
:102B90006F5F7F4F8F4F9F4F16C0882311F096E9CC
:102BA00011C0772321F09EE8872F762F05C066237A
:102BB00071F096E8862F70E060E02AF09A95660F33
:102BC000771F881FDAF7880F9695879597F90895EC
:102BD0000E94FB150C946C160E945E1638F00E9441
:102BE000651620F0952311F00C9455160C945B1685
:102BF00011240C94A0160E947D1670F3959FC1F3CA
:102C0000950F50E0551F629FF001729FBB27F00D9A
:102C1000B11D639FAA27F00DB11DAA1F649F6627EF
:102C2000B00DA11D661F829F2227B00DA11D621F3E
:102C3000739FB00DA11D621F839FA00D611D221FF8
:102C4000749F3327A00D611D231F849F600D211DDC
:102C5000822F762F6A2F11249F5750409AF0F1F05F
:102C600088234AF0EE0FFF1FBB1F661F771F881FC8
:102C700091505040A9F79E3F510580F00C94551695
:102C80000C94A0165F3FE4F3983ED4F386957795B5
:102C90006795B795F795E7959F5FC1F7FE2B880F6E
:102CA000911D9695879597F9089597F99F6780E804
:102CB00070E060E008959FEF80EC089500240A948E
:102CC0001616170618060906089500240A94121607
:102CD0001306140605060895092E0394000C11F43A
:102CE000882352F0BB0F40F4BF2B11F460FF04C0E7
:102CF0006F5F7F4F8F4F9F4F089557FD9058440F40
:102D0000551F59F05F3F71F04795880F97FB991F4A
:102D100061F09F3F79F08795089512161306140607
:102D2000551FF2CF4695F1DF08C016161706180694
:102D3000991FF1CF86957105610508940895E8946F
:102D4000BB2766277727CB0197F90895052E97FBB8
:102D50001EF400940E94BD1657FD07D00E94D8169D
:102D600007FC03D04EF40C94BD1650954095309559
:102D700021953F4F4F4F5F4F0895909580957095E7
:102D800061957F4F8F4F9F4F08950E94FA16A59F20
:102D9000900DB49F900DA49F800D911D1124089556
:102DA000B7FF0C94C5160E94C516821B930B08959D
:102DB000A1E21A2EAA1BBB1BFD010DC0AA1FBB1F3F
:102DC000EE1FFF1FA217B307E407F50720F0A21BB1
:102DD000B30BE40BF50B661F771F881F991F1A941E
:102DE00069F760957095809590959B01AC01BD0148
:102DF000CF010895A29FB001B39FC001A39F700DA2
:102E0000811D1124911DB29F700D811D1124911DF2
:102E100008950E94851688F09F5798F0B92F99273A
:102E2000B751B0F0E1F0660F771F881F991F1AF0B5
:102E3000BA95C9F714C0B13091F00E949F16B1E065
:102E400008950C949F16672F782F8827B85F39F064
:102E5000B93FCCF3869577956795B395D9F73EF44E
:102E600090958095709561957F4F8F4F9F4F0895F6
:102E7000991B79E004C0991F961708F0961B881FCC
:102E80007A95C9F78095089597FD1094002E083023
:102E900098F00850232F342F452F562F672F782F67
:102EA000892F912DF4CF15949795879577956795F0
:102EB00057954795379527950A95AAF71124002D20
:102EC0000895EE0FFF1F0590F491E02D0994F894FA
:022ED000FFCF32
:102ED2006400640064006400F998EF935C47896FB2
:102EE20061A8CBEE8A7BE5DB3E6344BE859E5B2117
:102EF200AAE2AF802B3E46BC743390B0726DF5A34C
:102F02006F7B6E18CF55B7C3CF290E85A0EC41D782
:102F12007F352C8226B2D15ED28A10FFE74F19602C
:102F22001CE8404F89AAAC6D8E5466CC00F2E98F42
:102F3200E912F4F4F81A37F4DCBE2E95B2502D2AB9
:102F4200056346C70100000041B308549FA30791DF
:102F5200CAC638A55B7D630A62A89B9F40BE4CEA45
:102F62008C6BF6579AF05C40000000009203560208
:102F72008302FA0350039202A6020D0A004F626610
:102F82007573636174696F6E20697320696E76610F
:102F92006C69642E20506C6561736520636F6E747A
:102FA200616374206368616C6C656E67652061643F
:102FB2006D696E6973747261746F722E0057656CFD
:102FC200636F6D6520746F204C697A7A7921002FC6
:102FD20032202864656661756C7420313030293A7C
:102FE200200043616C6962726174656420746F20B1
:102FF200004C614C614C6121205479706520696EEE
:1030020020796F757220726573706F6E73652E20F2
:103012004D616B65207375726520746F20757365E1
:103022002073616D652070726F746F636F6C2F63B4
:0830320069706865723A000044
:00000001FF
