:100000000C944F010C9477010C9477010C947701B8
:100010000C9477010C9477010C9477010C94770180
:100020000C9477010C9477010C9477010C94401296
:100030000C9477010C9477010C9477010C94770160
:100040000C949E110C9477010C940E120C94E811F0
:100050000C9477010C9477010C9477010C94770140
:100060000C9477010C9477012F2A2A2A2A2A2A2A0B
:100070002A2A2A2A2A2A2A2A2A2A2A2A2A202059C5
:100080004F55204245415420544845204348414C57
:100090004C454E47452121212020202A2A2A2A2A60
:1000A0002A2A2A2A2A2A2A2A2A2A2A2A2A2A2A2FAB
:1000B000002F2A2A2A2A2A2A2A2A2A2A2A2A2A2AC5
:1000C0002A2A2A2A2A2A20202020202020202020F4
:1000D000436F6E67726174732121212020202020DC
:1000E000202020202A2A2A2A2A2A2A2A2A2A2A2A98
:1000F0002A2A2A2A2A2A2A2A2F00496E636F727214
:1001000065637420436F6D626F21212054727920E2
:10011000416761696E2E2E2E00436F7272656374A3
:1001200020436F6D626F21212050757420746865C3
:10013000207361666520636F6D626F20696E207940
:100140006F7572207265706F727400204D6F6465F8
:100150003A0053746570733A2000092053202D2013
:1001600053696E676C653B2044202D20446F756297
:100170006C653B2049202D20496E7465726C656169
:100180007665643B204D202D204D6963726F73743A
:10019000657000506C6561736520656E74657220D2
:1001A000796F757220636F6D626F20617320746860
:1001B00065206E756D626572206F66207374657060
:1001C0007320616E64206C657474657220696E645E
:1001D00069636174696E6720746865206D6F64651A
:1001E0002E002F2A2A2A2A2A2A2A2A2A2A2A2A2A90
:1001F0002A2A2A2A2A2A2A2A2A2A2A2A2A2A2A2A5F
:100200002A2A2A2A2A2A2A2A2A2A2A2A2A2A2A2A4E
:100210002A2A2A2A2A2A2A2A2A2A2A2A2A2A2A2A3E
:100220002A2A2A2A2A2A2A2A2A2A2A2F00456E74AA
:100230006572204368616C6C656E6765204E756DF4
:100240006265722028302D32293A20000000000813
:10025000000201000003040700000000000000008D
:1002600000000000250028002B00000000002400F2
:1002700027002A0004040404040404040202020205
:100280000202030303030303010204081020408059
:10029000010204081020010204081020A4121124F5
:1002A0001FBECFEFD8E0DEBFCDBF11E0A0E0B1E0D0
:1002B000E0EFFAE202C005900D92A43EB107D9F733
:1002C00022E0A4EEB1E001C01D92AE3CB207E1F71E
:1002D00011E0CFE4D1E004C02197FE010E94531544
:1002E000CE34D107C9F70E940C130C9476150C94E8
:1002F000000090E0FC01E857FD4F24918C589D4F81
:10030000FC018491882399F090E0880F991FFC01EB
:10031000E659FD4FA591B491FC01E05AFD4F85913E
:1003200094918FB7F894EC91E22BEC938FBF0895E2
:1003300090E0FC01E45BFD4F2491FC01E857FD4F88
:100340003491FC01EC58FD4FE491EE23C9F02223D7
:1003500039F0233001F1A8F4213019F1223029F1CC
:10036000F0E0EE0FFF1FE05AFD4FA591B4918FB75B
:10037000F894EC91611126C030953E233C938FBFD9
:1003800008952730A9F02830C9F0243049F780912A
:1003900080008F7D03C0809180008F7780938000E4
:1003A000DFCF84B58F7784BDDBCF84B58F7DFBCF66
:1003B0008091B0008F778093B000D2CF8091B00051
:1003C0008F7DF9CF3E2BDACFCF93DF9360E08CE0C7
:1003D0000E94980160E088E00E949801C7E0D0E0A8
:1003E00060E084E00E9498018091BE0290E00C2EB3
:1003F00002C0959587950A94E2F761E080FF60E07E
:1004000088E00E94980161E084E00E9498012197B1
:1004100038F761E08CE0DF91CF910C949801CF9395
:10042000DF937091C202713099F0723009F0D2C03E
:1004300040E430E851E020E29091CB02613009F0D5
:1004400058C093FF5AC0813009F07BC0985F06C046
:1004500040E138E052E024E0EFCF90519093CB029E
:100460008FEF9FEFE091CB02EF73E093CB027130FF
:1004700009F086C08093B3009093B400722F752B5F
:10048000A32FA42B972F9A2B90958091BE0289239E
:100490008093BE02E091CB02643009F077C0E03176
:1004A00018F4782B7093BE0280EF8E0F803138F4F1
:1004B000852F832B9091BE02892B8093BE0280EE04
:1004C0008E0F803128F48091BE028A2B8093BE0269
:1004D000E053E03138F4822F842B9091BE02892BB7
:1004E0008093BE020E94E4018091CB02DF91CF9104
:1004F0000895623039F493FFA6CF813009F0ADCF73
:10050000905FACCF633009F49ECF643009F0A8CF80
:100510008130C9F49F5F9093CB028091CB028F739F
:100520008093CB02A82FB0E0FD01EC5CFE4F803140
:1005300060F484E491E0EC01CA1BDB0B88819081BC
:1005400091CF98508BCF9150E6CF90EF980F90318C
:1005500038F470978081E4E5F1E0EA1BFB0BEFCF04
:100560008052803140F484E691E0EC01CA1BDB0B41
:100570008881B097E4CFF0978081E4E7F1E0EDCF98
:10058000723009F07BCF87BD98BD78CFF0E093E063
:10059000F595E7959A95E1F7E830F10508F0A2CFD7
:1005A000EC52FD4F0C945315E802DC02DE02E0022F
:1005B000E102E302E502E702872B92CF852B90CF81
:1005C000352B832B8DCF8A2B8BCF842B89CF242B5C
:1005D000822B86CF80E08ACF8CE00E94790187E071
:1005E0000E94790188E00E94790184E00E947901EB
:1005F0001092BE020E94E40160E087E00C94980132
:100600003FB7F89480910A0290910B02A0910C02DE
:10061000B0910D0226B5A89B05C02F3F19F0019699
:10062000A11DB11D3FBFBA2FA92F982F8827BC014C
:10063000CD01620F711D811D911D42E0660F771F74
:10064000881F991F4A95D1F708958F929F92AF9274
:10065000BF92CF92DF92EF92FF926B017C010E94DA
:1006600000034B015C01C114D104E104F104B9F0B1
:100670000E940003681979098A099B09683E734042
:100680008105910580F321E0C21AD108E108F10843
:1006900088EE880E83E0981EA11CB11CE4CFFF9069
:1006A000EF90DF90CF90BF90AF909F908F90089584
:1006B000AF92BF92CF92DF92EF92FF920F931F9370
:1006C000CF93DF936C017B018B01040F151FEB01AE
:1006D0005E01AE18BF08C017D10759F06991D60165
:1006E000ED91FC910190F081E02DC6010995892BD7
:1006F00079F7C501DF91CF911F910F91FF90EF9096
:10070000DF90CF90BF90AF900895FC01538D448D42
:10071000252F30E0842F90E0821B930B541710F0AC
:10072000CF96089501970895FC01918D828D9817B9
:1007300061F0A28DAE0FBF2FB11D5D968C91928D91
:100740009F5F9F73928F90E008958FEF9FEF0895C2
:10075000FC01918D828D981731F0828DE80FF11D8B
:10076000858D90E008958FEF9FEF08952FB7F8944F
:1007700080910E0290910F02A0911002B09111028F
:100780002FBF8093290290932A02A0932B02B0934B
:100790002C0281E292E00E94A80397FF26C02FB7A7
:1007A000F89480910E0290910F02A0911002B091E6
:1007B00011022FBF4091290250912A0260912B0211
:1007C00070912C02841B950BA60BB70B4091250250
:1007D0005091260260912702709128028417950794
:1007E000A607B707B0F28FEF9FEF0895CF92DF9281
:1007F000EF92FF92CF930E94B603FC0197FD4EC08B
:100800008D32910521F0C0970A9708F040C0C12CA5
:10081000D12C7601C0E0E130F105D1F0ED32F105E7
:10082000D9F1CF01C0970A9798F4AAE0B0E0A701E8
:1008300096010E940F156F01FF0FEE08FF08C60E0C
:10084000D71EE81EF91E80E3C81AD108E108F10896
:1008500081E292E00E9494030E94B603FC01C097DB
:100860000A97C8F2E130F105B1F2CC2341F0F094DF
:10087000E094D094C094C11CD11CE11CF11CC701B0
:10088000B601CF91FF90EF90DF90CF90089581E275
:1008900092E00E949403AFCFC1E0DACFC12CD12CFB
:1008A0007601EDCFFC01918D228D892F90E0805C47
:1008B0009F4F821B91098F739927089581E292E0DF
:1008C0000E94520421E0892B09F420E0822F089530
:1008D00080E090E0892B29F00E945E0481110C9445
:1008E00000000895FC01A48DA80FB92FB11DA35AD3
:1008F000BF4F2C91848D90E001968F739927848F40
:10090000A689B7892C93A089B1898C918370806462
:100910008C93938D848D981306C00288F389E02D03
:1009200080818F7D80830895EF92FF920F931F93B4
:10093000CF93DF93EC0181E0888F9B8D8C8D981392
:100940001AC0E889F989808185FF15C09FB7F8949E
:10095000EE89FF896083E889F989808183708064EA
:1009600080839FBF81E090E0DF91CF911F910F9135
:10097000FF90EF900895F62E0B8D10E00F5F1F4F44
:100980000F731127E02E8C8D8E110CC00FB607FC53
:10099000FACFE889F989808185FFF5CFCE010E94E1
:1009A0007204F1CFEB8DEC0FFD2FF11DE35AFF4FD9
:1009B000F0829FB7F8940B8FEA89FB89808180626F
:1009C000CFCF0F931F93CF93DF938C01D0E0C0E084
:1009D000F801EC0FFD1F6491662341F081E292E083
:1009E0000E949404892B11F02196F2CFCE01DF9161
:1009F000CF911F910F910895CF93DF93EC01888DD4
:100A00008823B9F0AA89BB89E889F9898C9185FD89
:100A100003C0808186FD0DC00FB607FCF7CF8C9117
:100A200085FFF2CF808185FFEDCFCE010E94720459
:100A3000E9CFDF91CF9108952F923F924F925F922D
:100A40006F927F928F929F92AF92BF92CF92DF92DE
:100A5000EF92FF920F931F93CF93DF9300D000D0BC
:100A60001F92CDB7DEB7262E49839AE0899F900169
:100A700011243B832A8310E000E048EE442E43E03B
:100A8000542E612C712C2A813B812017310709F4E7
:100A9000BAC06091C3027091C4028091C502909166
:100AA000C6023981333039F49695879577956795E5
:100AB00021E030E00CC039813430D1F724E0969544
:100AC0008795779567952A95D1F720E130E03D83AA
:100AD0002C83A30192010E94221569017A014B0126
:100AE0005C01312C8C819D8101979D838C830196C3
:100AF000E9F16981822D0E940F02382EC701B601EB
:100B00000E9425038091C7029091C802A091C9025A
:100B1000B091CA02880D991DAA1DBB1D8093C70202
:100B20009093C802A093C902B093CA02883E934032
:100B3000A105B105B8F261E070E080E090E00E94AC
:100B400025038091C7029091C802A091C902B0917B
:100B5000CA02885E9340A109B1098093C7029093AD
:100B6000C802A093C902B093CA02BCCF8981843065
:100B700009F040C0832D8F7EE9F164E0822D0E9450
:100B80000F02382EC701B6010E9425038091C702CB
:100B90009091C802A091C902B091CA02880D991D16
:100BA000AA1DBB1D8093C7029093C802A093C902DF
:100BB000B093CA02883E9340A105B105D8F261E026
:100BC00070E080E090E00E9425038091C702909140
:100BD000C802A091C902B091CA02885E9340A109DF
:100BE000B1098093C7029093C802A093C902B09341
:100BF000CA02C0CF63E070E080E090E00E9425036D
:100C00000F5F1F4F40CF68EE73E080E090E00F90E1
:100C10000F900F900F900F90DF91CF911F910F9138
:100C2000FF90EF90DF90CF90BF90AF909F908F900C
:100C30007F906F905F904F903F902F900C94250382
:100C4000FC0101900020E9F73197AF01481B590BD7
:100C5000BC0181E292E00C94580387E591E00C948A
:100C60002006CF93DF930E94E104EC010E942D0641
:100C70008C0F9D1FDF91CF910895CF93DF930E943A
:100C80002006EC010E942D068C0F9D1FDF91CF9155
:100C900008952F923F924F925F926F927F928F9220
:100CA0009F92AF92BF92CF92DF92EF92FF920F93FB
:100CB0001F93CF93DF93CDB7DEB7A3970FB6F8940A
:100CC000DEBF0FBECDBF4C013B014BA383E991E0DA
:100CD0000E9431068AE591E00E943106D12CC12C98
:100CE000FF24F3948AE0282E312C412C512CEC2C3B
:100CF0008BA1C81608F08AC081E292E00E945204DB
:100D0000181619063CF068EE73E080E090E00E944F
:100D10002503F2CF0E94F6038B01CB0101978F3F91
:100D20009105C0F781E292E00E9494039EEB980F38
:100D30009831C0F7833561F0843409F461C0893497
:100D400009F461C094E08D3409F091E09AA302C0E7
:100D5000E1E0EAA36114710439F0F301EC0DFD1D2B
:100D60008081EAA18E13F12C8114910441F0F401E9
:100D7000EC0DFD1D80818017110609F0F12C82E534
:100D800091E00E94E1049801110F440B550B19A248
:100D90005E01F1E2AF0EB11CCA01B901A2019101DD
:100DA0000E942215605DF50162935F0121153105F6
:100DB0004105510589F7309719F0CF010E942006AF
:100DC0008BE491E00E94E104FAA163E5F13039F08F
:100DD00064E4F23021F069E4F33009F06DE481E27B
:100DE00092E00E9494040E942D0662E0E0FE61E021
:100DF0004AA1802F0E941C058FEFC81AD80A77CF0E
:100E0000F2E0FAA3A7CF83E08AA3A4CFFF2069F181
:100E10000E942D060E942D0688E690E00E94310671
:100E200089E191E00E94310681EB90E00E94310659
:100E30000E942D060E942D06A3960FB6F894DEBFE1
:100E40000FBECDBFDF91CF911F910F91FF90EF901B
:100E5000DF90CF90BF90AF909F908F907F906F90DA
:100E60005F904F903F902F9008958AEF90E00E94FE
:100E70003106E2CF2F923F924F925F926F927F9214
:100E80008F929F92AF92BF92CF92DF92EF92FF929A
:100E90000F931F93CF93DF93CDB7DEB7CA52D240E3
:100EA0000FB6F894DEBF0FBECDBF2DB63EB6C75D00
:100EB000DD4F39822882C952D240FE01EF51FE4FE8
:100EC00088E0DF011D928A95E9F7DF01189628ED89
:100ED0003EE04BE450E060E070E080E090E0219381
:100EE00008E00E945B15AE17BF07C9F780E2E4E196
:100EF000F1E0DE01AF53BE4F01900D928A95E1F70C
:100F000020911F0230912002A901032E000C660BD4
:100F1000770B452F562F672F7727EDB7FEB7CB5F9F
:100F2000DD4FF983E883C550D24081E093E2A5E428
:100F3000B7E6CF53DE4F88839983AA83BB83C15C16
:100F4000D14089E89BEAADECBFEECB53DE4F8883FE
:100F50009983AA83BB83C55CD1408EEF9CEDAAEB3D
:100F6000B8E9C753DE4F88839983AA83BB83C95CE2
:100F7000D14086E794E5A2E3B0E1C353DE4F888316
:100F80009983AA83BB83CD5CD14080EF91EEA2ED23
:100F9000B3ECCF52DE4F88839983AA83BB83C15DB4
:100FA000D1400DB71EB7005411090FB6F8941EBFFB
:100FB0000FBE0DBFFF978DB79EB78F5B9F4FDF01B1
:100FC0001D921D921D921D92A817B907C9F7C9015C
:100FD0009927092E000CAA0BBB0BB82FAA2799271B
:100FE00088279068BA015527442744275527772733
:100FF000842B952BA62BB72B408151816281738165
:10100000842B952BA62BB72B80839183A283B3834C
:1010100080E190E0A0E0B0E084AF95AFA6AFB7AFBD
:10102000AE014F5F5F4F80E491E0DA018C011D92C9
:1010300001501040E1F7CF50DE4F59834883C15F24
:10104000D140C350DE4FF983E883CD5FD1401E010C
:101050001FE3211A310820EF31EE42ED53ECC75067
:10106000DE4F288339834A835B83C95FD14041E0E7
:1010700053E265E477E6C351DE4F488359836A83C0
:101080007B83CD5ED14049E8442E4BEA542E4DEC93
:10109000642E4FEE742E46E754E562E370E10EEFE6
:1010A0001CED2AEB38E9C751DE4F1882C95ED140EA
:1010B000C751DE4F8881C95ED140803110F00C9459
:1010C000CE10C350DE4FE881F981CD5FD1408081E1
:1010D0009181A281B381CF50DE4FE881F981C15F58
:1010E000D14080839183A283B383D901C80184272F
:1010F0009527A627B72784219521A621B7214C0142
:101100005D0184269526A626B726C75FDD4F888217
:101110009982AA82BB82C950D24099E9C92E99E727
:10112000D92E92E8E92E9AE5F92EC351DE4F888137
:101130009981AA81BB81CD5ED140EBE1B695A7959F
:1011400097958795EA95D1F7C351DE4F88809980AE
:10115000AA80BB80CD5ED140F5E0880C991CAA1C0A
:10116000BB1CFA95D1F7882A992AAA2ABB2ACF5004
:10117000DE4FE881F981C15FD14081919191A191C8
:10118000B191CF50DE4FF983E883C15FD140880E23
:10119000991EAA1EBB1EC75FDD4F88819981AA8157
:1011A000BB81C950D240880D991DAA1DBB1DC80E18
:1011B000D91EEA1EFB1EC750DE4F88809980AA8088
:1011C000BB80C95FD140C80CD91CEA1CFB1CD301F1
:1011D000C201E2E0B695A79597958795EA95D1F774
:1011E00053014201FEE1880C991CAA1CBB1CFA9514
:1011F000D1F7882A992AAA2ABB2AC751DE4F8881AB
:10120000C95ED1408F5FC751DE4F8883C95ED14030
:10121000C350DE4FA881B981CD5FD1401496C35031
:10122000DE4FB983A883CD5FD140B4E02B0E311CD3
:10123000C351DE4F488059806A807B80CD5ED140AB
:10124000C750DE4F488359836A837B83C95FD1408F
:10125000803509F095C7EFEFCE1AECEDDE0AEAEB28
:10126000EE0AE8E9FE0ACF53DE4FC882D982EA824D
:10127000FB82C15CD140F7E74F1AF4E55F0AF2E365
:101280006F0AF0E17F0ACB53DE4F488259826A82AF
:101290007B82C55CD14082E0881A83E2980A85E4AB
:1012A000A80A87E6B80AC753DE4F88829982AA82C5
:1012B000BB82C95CD140D901C8018A589B4AAD4C58
:1012C000BF4EC751DE4F88839983AA83BB83C95E13
:1012D000D140C353DE4F88839983AA83BB83CD5CFF
:1012E000D1408A019B0100511E412D423C43C35114
:1012F000DE4F088319832A833B83CD5ED140CF52D2
:10130000DE4F088319832A833B83C15DD140CB5FC5
:10131000DD4F28813981C550D2400FB6F8943EBFC9
:101320000FBE2DBFFE01EF53FE4F9F01205E3F4FCA
:1013300080E090E0DC0141915191619171918427AD
:101340009527A627B7272E173F07A9F7843F954D66
:10135000A943B54D21F08AE591E00E943D06C358AE
:10136000DE4F188219821A821B82CD57D14085E642
:1013700098E7A0E7B1E6CF5BDE4F88839983AA8325
:10138000BB83C154D1408EE694E6A0E2B3E3CB5BCD
:10139000DE4F88839983AA83BB83C554D14082E3FF
:1013A0009DE2A2E6B9E7C75BDE4F88839983AA83F3
:1013B000BB83C954D14084E795E6A0E2BBE6C35B9A
:1013C000DE4F88839983AA83BB83CD54D140CF5A03
:1013D000DE4FC882D982EA82FB82C155D140CB5A06
:1013E000DE4F488259826A827B82C555D140C75AF6
:1013F000DE4F88829982AA82BB82C955D140C751EB
:10140000DE4F288039804A805B80C95ED140C35A54
:10141000DE4F288239824A825B82CD55D140C3514A
:10142000DE4F488059806A807B80CD5ED140CF59A5
:10143000DE4F488259826A827B82C156D14080E465
:101440009EEBACE4BAEECB59DE4F88839983AA8336
:10145000BB83C556D1408CE89BE6A6EFB7E5C759DC
:10146000DE4F88839983AA83BB83C956D1408AE91A
:1014700090EFACE5B0E4C359DE4F88839983AA832B
:10148000BB83CD56D140CF58DE4F188219821A82C5
:101490001B82C157D140CF51DE4F88819981AA81EB
:1014A000BB81C15ED140CB58DE4F88839983AA832C
:1014B000BB83C557D140CB51DE4F88819981AA812A
:1014C000BB81C55ED140C758DE4F88839983AA830C
:1014D000BB83C957D14080E4FE01EF5BFE4FDE01C4
:1014E000119601900D928A95E1F769807A808B8040
:1014F0009C80CB50DE4F688279828A829B82C55F56
:10150000D14021968CAC9DACAEACBFAC2197C75FEF
:10151000DD4F88829982AA82BB82C950D240A9A499
:10152000BAA4CBA4DCA4CB5FDD4FA882B982CA8267
:10153000DB82C550D2404D885E886F88788CCD8024
:10154000DE80EF80F884C350DE4FC882D982EA8201
:10155000FB82CD5FD14089A89AA8ABA8BCA8EDA416
:10156000FEA40FA518A9C35FDD4FE882F9820A83A4
:101570001B83CD50D240098D1A8D2B8D3C8DCF50C1
:10158000DE4F088319832A833B83C15FD1402985BD
:101590003A854B855C85CB5EDD4F288339834A8352
:1015A0005B83C551D2404DA95EA96FA978ADCF5FCD
:1015B000DD4F488359836A837B83C150D24009A1A0
:1015C0001AA12BA13CA16D8D7E8D8F8D98A1C35149
:1015D000DE4F688379838A839B83CD5ED1408D857E
:1015E0009E85AF85B889C751DE4F88839983AA83CA
:1015F000BB83C95ED140C9ACDAACEBACFCACC75024
:10160000DE4FC882D982EA82FB82C95FD1404DA1F8
:101610005EA16FA178A589899A89AB89BC89EAE026
:10162000F0E0CB50DE4FC880D980EA80FB80C55FF8
:10163000D140C80ED91EEA1EFB1EC75EDD4FC88210
:10164000D982EA82FB82C951D2408C249D24AE24E7
:10165000BF2474014501570168017901C80CD91CE8
:10166000EA1CFB1CCF5EDD4FC882D982EA82FB8276
:10167000C151D2408C259D25AE25BF256C017D0131
:101680002CE0CC0CDD1CEE1CFF1C2A95D1F734E1BC
:10169000B695A795979587953A95D1F78C299D2969
:1016A000AE29BF29C75EDD4FE880F9800A811B8122
:1016B000C951D240E80EF91E0A1F1B1FCB50DE4F46
:1016C000E882F9820A831B83C55FD1408E249F2460
:1016D000A026B126182D292D3A2D0B2DC75EDD4FE2
:1016E000088319832A833B83C951D240CF5EDD4FE3
:1016F00088809980AA80BB80C151D240080D191DF5
:101700002A1D3B1DC35EDD4F088319832A833B835B
:10171000CD51D24080279127A227B3278C019D016C
:10172000689416F8000F111F221F331F1694D1F76B
:101730005C016D0189E1D694C794B794A7948A950A
:10174000D1F7A02AB12AC22AD32ACF5EDD4FA882C0
:10175000B982CA82DB82C151D240C350DE4FC880F9
:10176000D980EA80FB80CD5FD140C40CD51CE61C3B
:10177000F71CCF5FDD4F088119812A813B81C15061
:10178000D2400C251D252E253F25C80189019C012D
:10179000400F511F621F731FDB01CA01842595256D
:1017A000A625B7254C015D01072E7CE0880C991C0D
:1017B000AA1CBB1C7A95D1F7702D072E74E1B69543
:1017C000A795979587957A95D1F7702D88299929AE
:1017D000AA29BB2916012701280E391E4A1E5B1EA5
:1017E000C350DE4F288239824A825B82CD5FD1406E
:1017F0000225132524253525502E612E722E432EC9
:10180000CF5FDD4F488259826A827B82C150D240CD
:10181000440E551E661E771ECF5DDD4F48825982ED
:101820006A827B82C152D24084259525A625B725A0
:10183000AC01BD0127E0440F551F661F771F2A9595
:10184000D1F74C015D0139E1B694A7949794879440
:101850003A95D1F7842A952AA62AB72ACF50DE4F87
:10186000488159816A817B81C15FD140CB5EDD4F68
:10187000C880D980EA80FB80C551D2404C0D5D1DE7
:101880006E1D7F1DC750DE4FC880D980EA80FB8067
:10189000C95FD140C426D526E626F7268601670112
:1018A0007801CB5FDD4F488059806A807B80C550CE
:1018B000D2404C0C5D1C6E1C7F1CCF50DE4F8881CB
:1018C0009981AA81BB81C15FD14084259525A62538
:1018D000B7258C019D010F2EFCE0000F111F221F68
:1018E000331FFA95D1F7F02D072E74E1B695A79521
:1018F000979587957A95D1F7702D802B912BA22BF8
:10190000B32B8A019B01080F191F2A1F3B1FC750C9
:10191000DE4F088319832A833B83C95FD140C026E9
:10192000D126E226F3263C2D4D2D5E2D2F2DCB5DAD
:10193000DD4F288339834A835B83C552D240240D0F
:10194000351D461D571DCB5FDD4F288339834A83E4
:101950005B83C550D24082279327A427B527AC01CB
:10196000BD0127E0440F551F661F771F2A95D1F749
:101970001C012D0139E156944794379427943A95E8
:10198000D1F7242A352A462A572ACF50DE4F2882FB
:1019900039824A825B82C15FD140C351DE4FC88029
:1019A000D980EA80FB80CD5ED140C751DE4F4880B0
:1019B00059806A807B80C95ED140C40CD51CE61C6E
:1019C000F71CC75FDD4F488159816A817B81C9500F
:1019D000D2404C255D256E257F253A01AB01B30130
:1019E000C35FDD4F088119812A813B81CD50D240F0
:1019F000040F151F261F371FC351DE4F88819981A1
:101A0000AA81BB81CD5ED14080279127A227B32731
:101A10001C012D01012E1CE0220C331C441C551C02
:101A20001A95D1F7102D072E74E1B695A7959795C5
:101A300087957A95D1F7702D82299329A429B52904
:101A400026013701480E591E6A1E7B1EC751DE4F04
:101A5000488259826A827B82C95ED14044255525DD
:101A600066257725542E472F762F652F552D040F89
:101A7000151F261F371F80279127A227B3276C0128
:101A80007D01689416F8CC0CDD1CEE1CFF1C16942E
:101A9000D1F71C012D0189E156944794379427947E
:101AA0008A95D1F72C283D284E285F28C351DE4F58
:101AB000288239824A825B82CD5ED140CB50DE4F94
:101AC000C880D980EA80FB80C55FD140C80CD91C92
:101AD000EA1CFB1C4C255D256E257F252A01AB01E8
:101AE000B201CB5FDD4F488059806A807B80C55052
:101AF000D240440E551E661E771ED501C4018425B2
:101B00009525A625B7254C015D01072E7CE0880CA4
:101B1000991CAA1CBB1C7A95D1F7702D072E74E175
:101B2000B695A795979587957A95D1F7702D8829C1
:101B30009929AA29BB2946015701880E991EAA1E78
:101B4000BB1ECB50DE4F88829982AA82BB82C55FC2
:101B5000D140482559256A257B25B42EC52ED62E81
:101B6000A72EC75FDD4FA882B982CA82DB82C95027
:101B7000D240A40CB51CC61CD71CCB5FDD4FA8827D
:101B8000B982CA82DB82C550D2408A259B25AC250A
:101B9000BD25AC01BD01689416F8440F551F661FA2
:101BA000771F1694D1F72C013D0189E17694679453
:101BB000579447948A95D1F7442A552A662A772A5A
:101BC000C350DE4FC880D980EA80FB80CD5FD14012
:101BD000CF50DE4F488159816A817B81C15FD140FE
:101BE000C40ED51EE61EF71EC75EDD4F88809980A5
:101BF000AA80BB80C951D2408C249D24AE24BF242E
:101C0000B40145015B01080D191D2A1D3B1DCF5074
:101C1000DE4F88819981AA81BB81C15FD140802735
:101C20009127A227B327AC01BD01032E3CE0440F4E
:101C3000551F661F771F3A95D1F7302D072E74E197
:101C4000B695A795979587957A95D1F7702D842BA2
:101C5000952BA62BB72BB701A601480F591F6A1F5A
:101C60007B1FC350DE4F488359836A837B83CD5FDC
:101C7000D14084269526A626B726582D8B2CBA2C23
:101C8000A92C952E68017901C80CD91CEA1CFB1CF3
:101C9000C35FDD4FC882D982EA82FB82CD50D24039
:101CA0008C259D25AE25BF25AC01BD0127E0440F45
:101CB000551F661F771F2A95D1F77C018D0139E1E9
:101CC00016950795F794E7943A95D1F7E42AF52A03
:101CD000062B172BCF50DE4FE882F9820A831B8335
:101CE000C15FD140C750DE4FC880D980EA80FB80F9
:101CF000C95FD140C351DE4F088119812A813B81E0
:101D0000CD5ED140C00ED11EE21EF31ECF5FDD4F6F
:101D1000488159816A817B81C150D2404C255D2523
:101D20006E257F259A01AB01B901C35EDD4F888125
:101D30009981AA81BB81CD51D240840F951FA61FE6
:101D4000B71FC750DE4F88839983AA83BB83C95FBF
:101D5000D140C351DE4F88819981AA81BB81CD5E7C
:101D6000D140C750DE4F088119812A813B81C95F6C
:101D7000D14080279127A227B3278C019D010F2EE8
:101D8000FCE0000F111F221F331FFA95D1F7F02D31
:101D9000072E74E1B695A795979587957A95D1F713
:101DA000702D802B912BA22BB32B97018601080F4E
:101DB000191F2A1F3B1FCB5EDD4F088319832A831F
:101DC0003B83C551D2404027512762277327D42E29
:101DD000E52EF62EC72ECF5FDD4FC882D982EA826C
:101DE000FB82C150D240C750DE4F088119812A8141
:101DF0003B81C95FD1400C0D1D1D2E1D3F1D80274D
:101E00009127A227B327AC01BD01689416F8440FAF
:101E1000551F661F771F1694D1F76C017D0189E16C
:101E2000F694E794D794C7948A95D1F7C42AD52A13
:101E3000E62AF72AC351DE4FC882D982EA82FB82A2
:101E4000CD5ED140CF5EDD4F488159816A817B8173
:101E5000C151D240C751DE4F88819981AA81BB818F
:101E6000C95ED140480F591F6A1F7B1FC751DE4F03
:101E7000488359836A837B83C95ED140CB5DDD4F44
:101E8000C880D980EA80FB80C552D240C426D526BE
:101E9000E626F726D60167017D01CF5DDD4F48813B
:101EA00059816A817B81C152D2404C0D5D1D6E1DEE
:101EB0007F1DC75EDD4F488359836A837B83C95189
:101EC000D240CF5EDD4F88819981AA81BB81C1510B
:101ED000D24084279527A627B727AC01BD01032E42
:101EE0003CE0440F551F661F771F3A95D1F7302D00
:101EF000072E74E1B695A795979587957A95D1F7B2
:101F0000702D842B952BA62BB72BC751DE4F488104
:101F100059816A817B81C95ED140480F591F6A1F70
:101F20007B1FC751DE4F488359836A837B83C95E19
:101F3000D140C426D526E626F7265C2D6D2D7E2DB4
:101F40004F2DC750DE4F488359836A837B83C95F17
:101F5000D140C75EDD4F488159816A817B81C9517B
:101F6000D240C750DE4FC880D980EA80FB80C95F6D
:101F7000D1404C0D5D1D6E1D7F1D84279527A62722
:101F8000B7276C017D01689416F8CC0CDD1CEE1CA3
:101F9000FF1C1694D1F7072E79E1B695A795979572
:101FA00087957A95D1F7702D8C299D29AE29BF2967
:101FB000319709F036CBCB50DE4FC880D980EA800C
:101FC000FB80C55FD140C982DA82EB82FC82898BBB
:101FD0009A8BAB8BBC8B89AA9AAAABAABCAA09A381
:101FE0001AA32BA33CA3C350DE4FE880F9800A81DB
:101FF0001B81CD5FD140ED82FE820F8318874D8A11
:102000005E8A6F8A788ECF5FDD4F088119812A81C1
:102010003B81C150D2400DAB1EAB2FAB38AF4DA3AF
:102020005EA36FA378A7CB5EDD4F288139814A81FB
:102030005B81C551D24029873A874B875C87CF5057
:10204000DE4F488159816A817B81C15FD140498FD0
:102050005A8F6B8F7C8FC750DE4F688179818A8160
:102060009B81C95FD14069AF7AAF8BAF9CAFCB5F2B
:10207000DD4F88819981AA81BB81C550D24089A753
:102080009AA7ABA7BCA7C751DE4F288039804A80EA
:102090005B80C95ED1402D863E864F86588AC351EB
:1020A000DE4F488059806A807B80CD5ED1404D8E66
:1020B0005E8E6F8E78A2C75FDD4F688079808A80E0
:1020C0009B80C950D24021966CAE7DAE8EAE9FAE45
:1020D0002197C35FDD4F88809980AA80BB80CD5057
:1020E000D2408DA69EA6AFA6B8AA8E010F5F1F4F45
:1020F0005801CE018F5B9E4F9E012F5B3F4FF80131
:102100004191519161917191DC01CD90DD90ED9003
:10211000FD90CD018F01045011094C0D5D1D6E1D08
:102120007F1DD8014D935D936D937C9313972E176C
:102130003F0731F79E012F573E4FC901D5014D9101
:102140005D916D917D915D01DC014D935D936D938A
:102150007D93CD01EA15FB0589F7E3E0F1E062E14B
:1021600072E040E151E04E175F0709F4C2C081916F
:10217000D9019D919D018927DB018D93BD01F3CF8D
:10218000C351DE4FC882D982EA82FB82CD5ED14044
:10219000B901A801950184010C945808D101D49685
:1021A000CD90DD90ED90FC90D79790968D919D917C
:1021B0000D90BC91A02D8C259D25AE25BF25F1014C
:1021C000C084D184E284F3848C259D25AE25BF256F
:1021D000C080D180E280F3808C259D25AE25BF256F
:1021E000880F991FAA1FBB1F811DCF50DE4FE881AA
:1021F000F981C15FD14080839183A283B383C751AA
:10220000DE4FF881C95ED140F43110F40C947508AA
:10221000C751DE4F8881C95ED1408832F0F4D901C0
:10222000C80184279527A627B7274C015D01842480
:102230009524A624B724C75FDD4F88829982AA829D
:10224000BB82C950D24081EAC82E8BEED82E89EDD0
:10225000E82E8EE6F82E0C949508C751DE4F888143
:10226000C95ED140D9018C3338F5C801842B952B38
:10227000A62BB72B84219521A621B72168017901CE
:10228000C422D522E622F7224C015D018C289D282C
:10229000AE28BF28C75FDD4F88829982AA82BB82A1
:1022A000C950D240BCEDCB2EBCEBDB2EBBE1EB2EFC
:1022B000BFE8FB2E0C949508C80184279527A62714
:1022C000B7275C016D01A424B524C624D724C75FB9
:1022D000DD4FA882B982CA82DB82C950D240A6ED06
:1022E000CA2EA1ECDA2EA2E6EA2EAAECFA2E0C9463
:1022F0009508C75DDD4F28803980C952D2400FB69E
:10230000F8943EBE0FBE2DBEC65DDD4F0FB6F894ED
:10231000DEBF0FBECDBFDF91CF911F910F91FF9018
:10232000EF90DF90CF90BF90AF909F908F907F9075
:102330006F905F904F903F902F9008951F920F9253
:102340000FB60F9211242F933F938F939F93AF93C8
:10235000BF9380910E0290910F02A0911002B09154
:1023600011023091090223E0230F2D3758F5019611
:10237000A11DB11D2093090280930E0290930F02BC
:10238000A0931002B093110280910A0290910B0267
:10239000A0910C02B0910D020196A11DB11D809378
:1023A0000A0290930B02A0930C02B0930D02BF910E
:1023B000AF919F918F913F912F910F900FBE0F90F2
:1023C0001F90189526E8230F0296A11DB11DD2CFAC
:1023D0001F920F920FB60F9211242F933F934F939A
:1023E0005F936F937F938F939F93AF93BF93EF937D
:1023F000FF9381E292E00E947204FF91EF91BF91FE
:10240000AF919F918F917F916F915F914F913F918C
:102410002F910F900FBE0F901F9018951F920F9243
:102420000FB60F9211242F938F939F93EF93FF93E7
:10243000E0913102F09132028081E0913702F09117
:10244000380282FD1BC0908180913A028F5F8F73AA
:1024500020913B02821741F0E0913A02F0E0EF5DFB
:10246000FD4F958F80933A02FF91EF919F918F914D
:102470002F910F900FBE0F901F9018958081F4CF71
:102480001F920F920FB60F9211242F933F938F93A9
:102490009F93EF93FF938091080287FF1FC01092D4
:1024A000850010928400809108028F5F809308025B
:1024B0008091080287FF04C0809108028C30ACF044
:1024C0008091840090918500049680349C4990F11D
:1024D000809184009091850004962EC0809108021E
:1024E00087FFE1CF80910802DECF209184003091F8
:1024F0008500E09108028E2FEE0F990BFC01EE0F84
:10250000FF1FE80FF91FEC51FE4F81819281820F6E
:10251000931F909389008093880080910802FF9117
:10252000EF919F918F913F912F910F900FBE0F9040
:102530001F90189580E49CE990938900809388000F
:102540008FEF80930802EBCFCF93E1E2F2E01382AA
:10255000128288EE93E0A0E0B0E084839583A683A6
:10256000B78389E491E09183808385EC90E095873F
:10257000848784EC90E09787868780EC90E0918B4D
:10258000808B81EC90E0938B828B82EC90E0958B3A
:10259000848B86EC90E0978B868B118E128E138E37
:1025A000148E1092BF02ECECF2E01082C2E0C18304
:1025B0000E94EC020E94EC02E0ECF2E088E691E07E
:1025C00091838083C28313868091BE028E71809333
:1025D000BE020E94E40185E00E94790186E00E942B
:1025E000790161E085E00E94980161E086E00E9447
:1025F000980184B5836884BD17BC86E00E94790188
:1026000084B5836284BD18BC85E00E9479018FEF98
:1026100087BD88BDCF910895789484B5826084BDCC
:1026200084B5816084BD85B5826085BD85B58160D6
:1026300085BD80916E00816080936E001092810054
:10264000809181008260809381008091810081600F
:1026500080938100809180008160809380008091D0
:10266000B10084608093B1008091B000816080935C
:10267000B00080917A00846080937A0080917A0023
:10268000826080937A0080917A00816080937A00E2
:1026900080917A00806880937A001092C100E09166
:1026A0003102F091320282E08083E0912D02F091BC
:1026B0002E021082E0912F02F091300280E180839F
:1026C00010923902E0913502F091360286E0808363
:1026D000E0913302F0913402808180618083E09147
:1026E0003302F0913402808188608083E09133026C
:1026F000F0913402808180688083E0913302F09110
:10270000340280818F7D808360ED77E080E090E00F
:102710000E94250380911F0290912002805C9D41C0
:102720009093200280931F0282EE91E00E94310676
:102730008AE991E00E943D0682EE91E00E94310616
:1027400080E480937C0080917A00806480937A009A
:1027500080917A0086FDFCCF6091780070917900BD
:10276000072E000C880B990B6115710581059105E9
:1027700011F00E94E7140E943A07C0E0D0E08DE219
:1027800092E00E94310681E292E00E945204181603
:1027900019063CF068EE73E080E090E00E942503AB
:1027A000F2CF81E292E00E94940380538330C8F517
:1027B000811149C08AEB91E00E943D0641E061E051
:1027C00084E60E941C0541E062E084E60E941C054C
:1027D00042E061E084E60E941C0542E062E084E69B
:1027E0000E941C0543E061E084E60E941C0543E072
:1027F00062E084E60E941C0544E061E084E60E94F9
:102800001C0544E062E084E60E941C058091C2023F
:10281000813089F58091BE02817E8093BE020E9444
:10282000E40160ED77E080E090E00E94250381E222
:1028300092E00E945204181619061CF581E292E0FB
:102840000E949403F4CF813061F482EC91E00E9405
:102850003D0643E060E071E082E192E00E944906BB
:10286000D5CF83ED91E00E943D0645E06AE172E03C
:1028700085E192E0F3CF8230A1F68091BE028E71A5
:10288000CCCF209709F47BCF0E945E04882309F403
:1028900076CF0E94000073CF8F929F92AF92BF922B
:1028A000CF92DF92EF92FF92CF93DF93EC0168819A
:1028B00079818A819B81611571058105910521F4DA
:1028C00064E279ED8BE597E02DE133EF41E050E0F4
:1028D0000E94F01449015A019B01AC01A7EAB1E43E
:1028E0000E940F156B017C01ACEEB4EFA5019401C1
:1028F0000E941D15C60ED71EE81EF91EF7FE06C063
:1029000081E0C81AD108E10880E8F80AC882D982B3
:10291000EA82FB82C701B6019F77DF91CF91FF90DA
:10292000EF90DF90CF90BF90AF909F908F900895E1
:102930008F929F92AF92BF92CF92DF92EF92FF92CF
:102940006091100170911101809112019091130119
:10295000611571058105910521F464E279ED8BE53E
:1029600097E02DE133EF41E050E00E94F01449017F
:102970005A019B01AC01A7EAB1E40E940F156B015B
:102980007C01ACEEB4EFA50194010E941D15C60EAA
:10299000D71EE81EF91EF7FE06C081E0C81AD1084E
:1029A000E10880E8F80AC0921001D0921101E0928B
:1029B0001201F0921301C701B6019F77FF90EF90CB
:1029C000DF90CF90BF90AF909F908F9008956093CD
:1029D00010017093110180931201909313010895D7
:1029E000052E97FB1EF400940E94071557FD07D093
:1029F0000E94221507FC03D04EF40C940715509545
:102A00004095309521953F4F4F4F5F4F08959095DA
:102A10008095709561957F4F8F4F9F4F08950E94CD
:102A20004415A59F900DB49F900DA49F800D911DFE
:102A300011240895B7FF0C940F150E940F15821BE7
:102A4000930B0895A1E21A2EAA1BBB1BFD010DC01A
:102A5000AA1FBB1FEE1FFF1FA217B307E407F5074E
:102A600020F0A21BB30BE40BF50B661F771F881F2A
:102A7000991F1A9469F760957095809590959B01C0
:102A8000AC01BD01CF010895A29FB001B39FC00169
:102A9000A39F700D811D1124911DB29F700D811D8A
:102AA0001124911D0895EE0FFF1F0590F491E02D64
:102AB000099497FD1094002E083098F00850232FA9
:102AC000342F452F562F672F782F892F912DF4CF34
:102AD0001594979587957795679557954795379569
:102AE00027950A95AAF71124002D0895F894FFCF91
:102AF0000101015AB66988AFF8CDA88A0B030AF71D
:102B00000100000041B308549FA30791CAC638A52D
:102B10005B7D630A62A89B9F40BE4CEA8C6BF657B4
:102B20009AF05C400019324A62788DA2B4C5D4E1B3
:102B3000ECF4FAFDFF00000000940458038503FC48
:102B40000452049403A8030D0A004F626675736370
:102B50006174696F6E20697320696E76616C696457
:102B60002E20506C6561736520636F6E74616374B1
:102B7000206368616C6C656E67652061646D696E69
:102B80006973747261746F722E0057656C636F6D38
:102B90006520746F2053616665637261636B657253
:102BA0002028312026203229210044656D6F2E2EE9
:102BB0002E0053616665637261636B657220312E0E
:102BC0002E2E0053616665637261636B65722032FD
:042BD0002E2E2E0077
:00000001FF
