:100000000C9495010C94BD010C94BD010C94BD01A0
:100010000C94BD010C94BD010C94BD010C94BD0168
:100020000C94BD010C94BD010C94BD010C94811382
:100030000C94BD010C94BD010C94BD010C94BD0148
:100040000C94DF120C94BD010C944F130C942913E3
:100050000C94BD010C94BD010C94BD010C94BD0128
:100060000C94BD010C94BD012F2A2A2A2A2A2A2A7F
:100070002A2A2A2A2A2A2A2A2A2A2A2A2A2A2A2AE0
:100080002A2A2A2A2A2A2A2A2A2A2A2A2A2A2A2AD0
:100090002A2A2A2A2A2A2A2A2A2A2A2A2A2A2A2AC0
:1000A0002A2A2A2A2A2A2A2A2A2A2A2A2A2A2A2AB0
:1000B0002A2F00496E636F727265637420536571F5
:1000C00075656E63652121205472792041676169ED
:1000D0006E2E2E2E0020436F6D706C65746521218D
:1000E00020506C656173652070757420746865209C
:1000F00073657175656E636520656E636F64696EA7
:100100006720696E20796F7572207265706F7274E6
:100110002E00506861736520002F2A2A2A2A2A2A75
:100120002A2A2A2A2A2A2A2A2A2A2A2A2A2A202043
:10013000594F552042454154205448452043484199
:100140004C4C454E47452121212020202A2A2A2A8D
:100150002A2A2A2A2A2A2A2A2A2A2A2A2A2A2A2AFF
:100160002F002F2A2A2A2A2A2A2A2A2A2A2A2A2A0F
:100170002A2A2A2A2A2A2A20202020202020202039
:1001800020436F6E6772617473212121202020202B
:1001900020202020202A2A2A2A2A2A2A2A2A2A2AF1
:1001A0002A2A2A2A2A2A2A2A2A2F00496E636F72AB
:1001B0007265637420466C61672121205472792036
:1001C000416761696E2E2E2E00436F7272656374F3
:1001D00020466C6167212120507574207468652069
:1001E000666C616720616E642073657175656E630E
:1001F0006520656E636F64696E677320696E207930
:100200006F7572207265706F72742121004D4554B4
:1002100041202D205748415420495320544845201F
:10022000464C41473F0050484153452034202D2043
:1002300047524142205448452042554C4C20425997
:100240002049545320484F524E53210050484153A7
:10025000452033202D204E4F5720544841542059DB
:100260004F552041524520414C4C205052494D455C
:100270004420464F52205355434345535321005089
:10028000484153452032202D2045585452454D4574
:10029000204143434F554E5441424C494C495459D7
:1002A0002120544845204F4E4C5920464143544F3D
:1002B000520050484153452031202D204E4F544884
:1002C000494E4720474F4C44454E2043414E205312
:1002D00054415921000000000800020100000304FD
:1002E00007000000000000000000000000250028BA
:1002F000002B0000000000240027002A0004040452
:1003000004040404040202020202020303030303BE
:10031000030102040810204080010204081020019B
:10032000020408102000E513311711241FBECFEF7F
:10033000D8E0DEBFCDBF13E0A0E0B1E0E2E8F3E338
:1003400002C005900D92A037B107D9F724E0A0E7CD
:10035000B3E001C01D92A735B207E1F711E0C4E98F
:10036000D1E004C02197FE010E949F17C339D10735
:10037000C9F70E94A8140C94B4190C94000090E0E2
:10038000FC01EF5EFC4F249183509D4FFC01849152
:10039000882399F090E0880F991FFC01ED50FD4FE4
:1003A000A591B491FC01E751FD4F859194918FB7D0
:1003B000F894EC91E22BEC938FBF089590E0FC0150
:1003C000EB52FD4F2491FC01EF5EFC4F3491FC0198
:1003D000E350FD4FE491EE23C9F0222339F023309E
:1003E00001F1A8F4213019F1223029F1F0E0EE0FEB
:1003F000FF1FE751FD4FA591B4918FB7F894EC9191
:10040000611126C030953E233C938FBF089527305D
:10041000A9F02830C9F0243049F7809180008F7D01
:1004200003C0809180008F7780938000DFCF84B5F8
:100430008F7784BDDBCF84B58F7DFBCF8091B000FB
:100440008F778093B000D2CF8091B0008F7DF9CFAD
:100450003E2BDACFCF93DF9360E08CE00E94DE0189
:1004600060E088E00E94DE01C7E0D0E060E084E068
:100470000E94DE0180913D0490E00C2E02C0959513
:1004800087950A94E2F761E080FF60E088E00E94CF
:10049000DE0161E084E00E94DE01219738F761E02F
:1004A0008CE0DF91CF910C94DE01EF92FF920F93DD
:1004B0001F93CF93C0914904C13079F0C23009F045
:1004C000C5C060E440E871E030E2909152048130B0
:1004D00049F493FF0CC0985F0BC060E148E072E004
:1004E00034E0F3CF823009F051C093FFF4CF905F36
:1004F000909352045FEF2FEF909152049F7390936B
:100500005204C13009F078C05093B3002093B40076
:10051000532F572BA42FA62B252F2A2B20959091B4
:100520003D04922390933D04E0915204843009F0FD
:1005300069C0E03118F4592B50933D0480EF8E0FC1
:10054000803138F4972F942B80913D04982B909311
:100550003D0480EE8E0F803128F490913D049A2B5B
:1005600090933D04E053E03138F4932F962B809123
:100570003D04982B90933D040E942A0280915204DE
:10058000CF911F910F91FF90EF900895833009F460
:10059000A2CF843009F0AECF9F5B9F73909352043B
:1005A000A92FB0E0FD01EC5CFD4F903148F404E46C
:1005B00012E07801EA1AFB0AD7015C9120819CCFF6
:1005C00020EF290F203138F470975081E4E5F2E0F4
:1005D000EA1BFB0BF3CF9052903148F404E612E093
:1005E0007801EA1AFB0AD7015C91B097E7CFF09740
:1005F0005081E4E7F2E0ECCFC23009F089CF57BD7B
:1006000028BD86CFF0E083E0F595E7958A95E1F780
:10061000E830F10508F0B0CFE05FFC4F0C949F1775
:10062000240318031A031C031D031F0321032303C0
:10063000952BA0CF972B9ECF472B942B9BCF9A2BFC
:1006400099CF962B97CF362B932B94CF80E098CFD2
:100650008CE00E94BF0187E00E94BF0188E00E94F9
:10066000BF0184E00E94BF0110923D040E942A0253
:1006700060E087E00C94DE013FB7F89480919A0324
:1006800090919B03A0919C03B0919D0326B5A89BDC
:1006900005C02F3F19F00196A11DB11D3FBFBA2F14
:1006A000A92F982F8827BC01CD01620F711D811DD4
:1006B000911D42E0660F771F881F991F4A95D1F759
:1006C00008958F929F92AF92BF92CF92DF92EF9256
:1006D000FF926B017C010E943C034B015C01C11441
:1006E000D104E104F104B9F00E943C0368197909CE
:1006F0008A099B09683E73408105910580F321E0DA
:10070000C21AD108E108F10888EE880E83E0981E2D
:10071000A11CB11CE4CFFF90EF90DF90CF90BF9071
:10072000AF909F908F9008958F929F92AF92BF92BB
:10073000CF92DF92EF92FF920F931F93CF93DF93AD
:10074000D82F60914A0470914B0480914C04909191
:100750004D04D33039F4969587957795679501E0E8
:1007600010E00BC0D430D9F724E0969587957795A3
:1007700067952A95D1F700E110E028EE33E040E0DC
:1007800050E00E94711769017A014B015C01C0E0E1
:100790000150110908F43CC08D2F0E945502C82F4A
:1007A000C701B6010E94610380914E0490914F04ED
:1007B000A0915004B0915104880D991DAA1DBB1D34
:1007C00080934E0490934F04A0935004B09351042F
:1007D000883E9340A105B105D8F261E070E080E069
:1007E00090E00E94610380914E0490914F04A0918B
:1007F0005004B0915104885E9340A109B1098093DF
:100800004E0490934F04A0935004B0935104C0CF72
:10081000D43009F03EC0CF7EE1F184E00E94550261
:10082000C82FC701B6010E94610380914E049091C8
:100830004F04A0915004B0915104880D991DAA1D38
:10084000BB1D80934E0490934F04A0935004B0932B
:100850005104883E9340A105B105E8F261E070E0E3
:1008600080E090E00E94610380914E0490914F04DB
:10087000A0915004B0915104885E9340A109B10940
:1008800080934E0490934F04A0935004B09351046E
:10089000C2CFDF91CF911F910F91FF90EF90DF902A
:1008A000CF90BF90AF909F908F900895AF92BF92DE
:1008B000CF92DF92EF92FF920F931F93CF93DF932C
:1008C0006C017B018B01040F151FEB015E01AE185B
:1008D000BF08C017D10759F06991D601ED91FC917D
:1008E0000190F081E02DC6010995892B79F7C501AA
:1008F000DF91CF911F910F91FF90EF90DF90CF90FC
:10090000BF90AF900895FC01538D448D252F30E0AA
:10091000842F90E0821B930B541710F0CF9608950C
:1009200001970895FC01918D828D981761F0A28D39
:10093000AE0FBF2FB11D5D968C91928D9F5F9F73FF
:10094000928F90E008958FEF9FEF0895FC01918DB5
:10095000828D981731F0828DE80FF11D858D90E022
:1009600008958FEF9FEF0895FC01918D228D892FBF
:1009700090E0805C9F4F821B91098F7399270895A7
:1009800080EA93E00E94B40421E0892B09F420E07E
:10099000822F089580E090E0892B29F00E94C00406
:1009A00081110C9400000895FC01A48DA80FB92FAB
:1009B000B11DA35ABF4F2C91848D90E001968F7387
:1009C0009927848FA689B7892C93A089B1898C91A6
:1009D000837080648C93938D848D981306C00288F5
:1009E000F389E02D80818F7D80830895EF92FF92BF
:1009F0000F931F93CF93DF93EC0181E0888F9B8D42
:100A00008C8D98131AC0E889F989808185FF15C0FB
:100A10009FB7F894EE89FF896083E889F98980811E
:100A20008370806480839FBF81E090E0DF91CF91ED
:100A30001F910F91FF90EF900895F62E0B8D10E00F
:100A40000F5F1F4F0F731127E02E8C8D8E110CC07E
:100A50000FB607FCFACFE889F989808185FFF5CFC9
:100A6000CE010E94D404F1CFEB8DEC0FFD2FF11DD0
:100A7000E35AFF4FF0829FB7F8940B8FEA89FB8906
:100A800080818062CFCF0F931F93CF93DF938C0130
:100A9000D0E0C0E0F801EC0FFD1F6491662341F047
:100AA00080EA93E00E94F604892B11F02196F2CFA0
:100AB000CE01DF91CF911F910F910895CF93DF93D6
:100AC000EC01888D8823B9F0AA89BB89E889F98966
:100AD0008C9185FD03C0808186FD0DC00FB607FC9B
:100AE000F7CF8C9185FFF2CF808185FFEDCFCE01CE
:100AF0000E94D404E9CFDF91CF910895FC010190C9
:100B00000020E9F73197AF01481B590BBC0180EA7F
:100B100093E00C94560487E592E00C947E05CF9305
:100B2000DF930E944305EC010E948B058C0F9D1FF3
:100B3000DF91CF91089588E690E00C948F05CF93D4
:100B4000DF93682F80EA93E00E94F604EC010E9494
:100B50008B058C0F9D1FDF91CF910895CF93DF936D
:100B60000E947E05EC010E948B058C0F9D1FDF917A
:100B7000CF9108958F929F92AF92BF92CF92DF92C2
:100B8000EF92FF920F931F93CF93DF93CDB7DEB712
:100B9000A1970FB6F894DEBF0FBECDBF6C01990FC1
:100BA000EE08FF08F7FE41C06DE280EA93E00E9484
:100BB000F6048C0122273327A9012C193D094E097F
:100BC0005F0919A2CE0181967C019AE0892E912CB1
:100BD000A12CB12CCA01B901A50194010E94711781
:100BE000605DF70162937F012115310541055105D3
:100BF00089F790E080E0309719F0CF010E947E05E0
:100C0000800F911FA1960FB6F894DEBF0FBECDBF27
:100C1000DF91CF911F910F91FF90EF90DF90CF90D8
:100C2000BF90AF909F908F900895A701960119A251
:100C30008E010F5D1F4F8AE0C82ED12CE12CF12CC4
:100C4000CA01B901A70196010E947117605DF80100
:100C500062938F01211531054105510589F790E017
:100C600080E0309779F2CF010E947E05CBCF2F92A2
:100C70003F924F925F926F927F928F929F92AF922C
:100C8000BF92CF92DF92EF92FF920F931F93CF9379
:100C9000DF93CDB7DEB7CA54D2400FB6F894DEBFAB
:100CA0000FBECDBFCD5BDD4F99838883C354D24047
:100CB000C55CDD4F79836883CB53D240C35CDD4F85
:100CC00059834883CD53D240A701B801C9014DB61D
:100CD0005EB6CB5BDD4F59824882C554D240FE01DF
:100CE000EF51FE4F28E0DF011D922A95E9F7DF0161
:100CF0001896C192960108E00E94A7176901AE17E5
:100D0000BF07B9F780E2E3EBF1E0DE01AF53BE4F7E
:100D100001900D928A95E1F780919E0390919F0337
:100D2000AC01092E000C660B770B452F562F672F51
:100D30007727EDB7FEB7C550DE4FF983E883CB5F69
:100D4000D14001E013E225E437E6CF53DE4F0883BC
:100D500019832A833B83C15CD14009E81BEA2DEC4F
:100D60003FEECB53DE4F088319832A833B83C55C58
:100D7000D1400EEF1CED2AEB38E9C753DE4F088354
:100D800019832A833B83C95CD14006E714E522E33B
:100D900030E1C353DE4F088319832A833B83CD5C44
:100DA000D14000EF11EE22ED33ECCF52DE4F08833D
:100DB00019832A833B83C15DD1400DB71EB7005410
:100DC00011090FB6F8941EBF0FBE0DBFFF972DB7C8
:100DD0003EB72F5B3F4FDF011D921D921D921D926A
:100DE000A217B307C9F79927092E000CAA0BBB0B52
:100DF000B82FAA27992788279068BA015527442732
:100E0000442755277727842B952BA62BB72B40817A
:100E1000518162817381842B952BA62BB72B808304
:100E20009183A283B38380E190E0A0E0B0E084AF3F
:100E300095AFA6AFB7AFAE014F5F5F4F80E491E0D3
:100E4000DA018C011D9201501040E1F7C151DE4FD3
:100E500059834883CF5ED140CD5FDD4FF983E8836E
:100E6000C350D2401E011FE3211A310820EF31EE9A
:100E700042ED53ECCD50DE4F288339834A835B83A8
:100E8000C35FD14041E053E265E477E6C150DE4FF5
:100E9000488359836A837B83CF5FD14049E8442EDE
:100EA0004BEA542E4DEC642E4FEE742E06E714E5FB
:100EB00022E330E15EEF852E5CED952E5AEBA52EF8
:100EC00058E9B52EC551DE4F1882CB5ED140C551D1
:100ED000DE4F5881CB5ED140503110F00C948D1014
:100EE000CD5FDD4FE881F981C350D240808191818F
:100EF000A281B381C151DE4FE881F981CF5ED1403B
:100F000080839183A283B383D501C4018027912775
:100F1000A227B32784219521A621B7216C017D0149
:100F2000C026D126E226F326C55FDD4FC882D982CE
:100F3000EA82FB82CB50D24089E9C82E89E7D82EBD
:100F400082E8E82E8AE5F82EC151DE4FA881B981EA
:100F5000CF5ED1406D917D918D919D91C151DE4FBC
:100F6000B983A883CF5ED140CD5EDD4F688379839E
:100F70008A839B83C351D240C150DE4F488159813F
:100F80006A817B81CF5FD140EBE17695679557957C
:100F90004795EA95D1F7C950DE4F488359836A8354
:100FA0007B83C75FD140C150DE4F688179818A81E0
:100FB0009B81CF5FD140F5E0660F771F881F991F97
:100FC000FA95D1F7DC01CB01C950DE4F4881598138
:100FD0006A817B81C75FD140842B952BA62BB72BD1
:100FE000CD5EDD4F488159816A817B81C351D240FA
:100FF000840F951FA61FB71FAC01BD01C55FDD4F54
:1010000088819981AA81BB81CB50D240840F951FE2
:10101000A61FB71FC80ED91EEA1EFB1ECD50DE4FFD
:10102000688179818A819B81C35FD140C60ED71EBA
:10103000E81EF91EB301A201A2E0769567955795C7
:101040004795AA95D1F7D301C201EEE1880F991F08
:10105000AA1FBB1FEA95D1F7842B952BA62BB72B84
:10106000C551DE4F7881CB5ED1407F5FC551DE4FE9
:101070007883CB5ED140CD5FDD4FE881F981C350ED
:10108000D2403496CD5FDD4FF983E883C350D24020
:10109000F4E02F0E311CC150DE4F488059806A8029
:1010A0007B80CF5FD140CD50DE4F088319832A83E8
:1010B0003B83C35FD140703511F00C947F10B701B2
:1010C000A6014F5F5C4D6A4B7849C15EDD4F488396
:1010D00059836A837B83CF51D240CF53DE4F4883FD
:1010E00059836A837B83C15CD140B301A201475716
:1010F000544562437041C150DE4F488359836A832F
:101100007B83CF5FD140CB53DE4F488359836A83C3
:101110007B83C55CD140AC01BD0142505342654464
:101120007746CD5DDD4F488359836A837B83C35205
:10113000D240C753DE4F488359836A837B83C95C9F
:10114000D140C501B4016A587B4A8D4C9F4EC95DA0
:10115000DD4F688379838A839B83C752D240C35310
:10116000DE4F688379838A839B83CD5CD140D9012C
:10117000C80180519E41AD42BC43C55DDD4F8883AF
:101180009983AA83BB83CB52D240CF52DE4F888350
:101190009983AA83BB83C15DD140C550DE4FA8812E
:1011A000B981CB5FD1400FB6F894BEBF0FBEADBFC3
:1011B000FE01EF53FE4F9F01205E3F4F80E090E025
:1011C000DC01419151916191719184279527A62766
:1011D000B7272E173F07A9F7843F954DA943B54D73
:1011E00021F08AE592E00E94AE05312C212C80E0AE
:1011F00090E0DC018E010F5B1F4FC751DE4F19835A
:101200000883C95ED140C35CDD4F48805980CD530F
:10121000D240C55CDD4F68807980CB53D240460C0C
:10122000571CC95BDD4F59824882C754D240C35C0A
:10123000DD4F88809980CD53D2402814390410F0B6
:101240000C9437118C019D010F5F1F4F2F4F3F4FA3
:10125000C15CDD4F088319832A833B83CF53D2407F
:10126000C358DE4F188219821A821B82CD57D14093
:1012700025E638E740E751E6CF5BDE4F2883398328
:101280004A835B83C154D1404EE654E660E273E387
:10129000CB5BDE4F488359836A837B83C554D1403F
:1012A00012E3412E1DE2512E12E6612E19E7712E36
:1012B000C75BDE4F488259826A827B82C954D14023
:1012C00004E7602E05E6702E00E2802E0BE6902EDD
:1012D000C35BDE4F688279828A829B82CD54D14083
:1012E000C15EDD4F88809980AA80BB80CF51D240FB
:1012F000CF5ADE4F88829982AA82BB82C155D140E3
:10130000C150DE4FA880B980CA80DB80CF5FD1405A
:10131000CB5ADE4FA882B982CA82DB82C555D14042
:10132000CD5DDD4FC880D980EA80FB80C352D240BA
:10133000C75ADE4FC882D982EA82FB82C955D140A2
:10134000C95DDD4FE880F9800A811B81C752D24018
:10135000C35ADE4FE882F9820A831B83CD55D14000
:10136000C55DDD4F488059806A807B80CB52D2407A
:10137000CF59DE4F488259826A827B82C156D14062
:1013800020E4622E2EEB722E2CE4822E2AEE922E78
:10139000CB59DE4F688279828A829B82C556D140C2
:1013A0003CE8832E3BE6932E36EFA32E37E5B32E93
:1013B000C759DE4F88829982AA82BB82C956D14022
:1013C0004AE9A42E40EFB42E4CE5C42E40E4D42EBE
:1013D000C359DE4FA882B982CA82DB82CD56D14082
:1013E000CF58DE4F88839983AA83BB83C157D140EE
:1013F000CF51DE4F88819981AA81BB81C15ED140E6
:10140000CB58DE4F88839983AA83BB83C557D140CD
:10141000CB51DE4F88819981AA81BB81C55ED140C5
:10142000C758DE4F88839983AA83BB83C957D140AD
:1014300080E4FE01EF5BFE4FDE01119601900D92FC
:101440008A95E1F7C980DA80EB80FC80C15FDD4FCF
:10145000C882D982EA82FB82CF50D24089899A8998
:10146000AB89BC8989A89AA8ABA8BCA809A11AA174
:101470002BA13CA14D815E816F817885C95FDD4FD5
:10148000488359836A837B83C750D2404D885E88E6
:101490006F88788CCDA8DEA8EFA8F8ACC55FDD4FCB
:1014A000C882D982EA82FB82CB50D2404DA15EA194
:1014B0006FA178A5C984DA84EB84FC84C550DE4F23
:1014C000C882D982EA82FB82CB5FD140C98CDA8C98
:1014D000EB8CFC8CCD50DE4FC882D982EA82FB8235
:1014E000C35FD140C9ACDAACEBACFCACC950DE4F49
:1014F000C882D982EA82FB82C75FD140C9A4DAA43C
:10150000EBA4FCA4C55EDD4FC882D982EA82FB82CF
:10151000CB51D240CD84DE84EF84F888C551DE4FB4
:10152000C882D982EA82FB82CB5ED140CD8CDE8C30
:10153000EF8CF8A0C151DE4FC882D982EA82FB82CB
:10154000CF5ED1402196CCACDDACEEACFFAC2197A8
:10155000CD5EDD4FC882D982EA82FB82C351D24080
:10156000CDA4DEA4EFA4F8A8C95EDD4FC882D9825D
:10157000EA82FB82C751D240EAE0F0E0C75BDD4F70
:10158000F983E883C954D240C15FDD4FC880D98058
:10159000EA80FB80CF50D240C80ED91EEA1EFB1E47
:1015A000C15FDD4FC882D982EA82FB82CF50D24030
:1015B0008C249D24AE24BF24740145015701680189
:1015C0007901C80CD91CEA1CFB1CCD5CDD4FC8821C
:1015D000D982EA82FB82C353D2408C259D25AE2559
:1015E000BF256C017D012CE0CC0CDD1CEE1CFF1C2A
:1015F0002A95D1F734E1B695A795979587953A95B1
:10160000D1F78C299D29AE29BF29C15FDD4FE88024
:10161000F9800A811B81CF50D240E80EF91E0A1FC3
:101620001B1FC15FDD4FE882F9820A831B83CF5005
:10163000D2408E249F24A026B126182D292D3A2D84
:101640000B2DC15DDD4F088319832A833B83CF5265
:10165000D240CD5CDD4F88809980AA80BB80C35387
:10166000D240080D191D2A1D3B1DCD5CDD4F08839E
:1016700019832A833B83C353D24080279127A22713
:10168000B3278C019D01E7E0000F111F221F331FBC
:10169000EA95D1F75C016D01F9E1D694C794B7944E
:1016A000A794FA95D1F7A02AB12AC22AD32ACD5FEE
:1016B000DD4FA882B982CA82DB82C350D240C95FA3
:1016C000DD4F88819981AA81BB81C750D240840DAA
:1016D000951DA61DB71DC55FDD4FC880D980EA8066
:1016E000FB80CB50D240C826D926EA26FB268601AD
:1016F000670178014C0D5D1D6E1D7F1D8A019B01E8
:10170000042515252625372548015901ECE0880CCC
:10171000991CAA1CBB1CEA95D1F7F4E136952795D4
:1017200017950795FA95D1F7082919292A293B29F0
:101730002C013D01400E511E621E731EC95FDD4F1C
:10174000488259826A827B82C750D240C424D52401
:10175000E624F7247C2C8D2C9E2C6F2CC55FDD4F4E
:10176000688279828A829B82CB50D240640E751E39
:10177000861E971EC95CDD4F688279828A829B82B1
:10178000C753D2400625172528253925D901C80178
:1017900047E0880F991FAA1FBB1F4A95D1F7480140
:1017A000590159E1B694A794979487945A95D1F723
:1017B000882A992AAA2ABB2AC550DE4FC880D98018
:1017C000EA80FB80CB5FD140CD50DE4F088119818C
:1017D0002A813B81C35FD140C00ED11EE21EF31EA1
:1017E000C950DE4F88819981AA81BB81C75FD140F2
:1017F0008C259D25AE25BF259C01CD01D901C55E57
:10180000DD4F488059806A807B80CB51D240480EA2
:10181000591E6A1E7B1ECD50DE4F488159816A8158
:101820007B81C35FD14044255525662577258A01F4
:101830009B01ECE0000F111F221F331FEA95D1F727
:10184000F4E17695679557954795FA95D1F7402B32
:10185000512B622B732B97018601040F151F261F36
:10186000371FC550DE4F088319832A833B83CB5F24
:10187000D14080279127A227B327D82EE92EFA2E10
:10188000CB2EC950DE4FC882D982EA82FB82C75F65
:10189000D140C40CD51CE61CF71CC55EDD4FC882C8
:1018A000D982EA82FB82CB51D2404C255D256E2540
:1018B0007F25DB01CA0117E0880F991FAA1FBB1FF4
:1018C0001A95D1F72A013B0109E176946794579460
:1018D00047940A95D1F7482A592A6A2A7B2ACD507B
:1018E000DE4F488259826A827B82C35FD140C151F8
:1018F000DE4FC880D980EA80FB80CF5ED140C551E1
:10190000DE4F088119812A813B81CB5ED140C00E18
:10191000D11EE21EF31ECD5EDD4F88819981AA8122
:10192000BB81C351D2408C259D25AE25BF259C018E
:10193000CD01D901C95EDD4F088119812A813B8122
:10194000C751D240080F191F2A1F3B1FC151DE4F3C
:10195000488159816A817B81CF5ED14040275127E0
:10196000622773272A013B01ECE0440C551C661CDE
:10197000771CEA95D1F7F4E17695679557954795E9
:10198000FA95D1F744295529662977292601370187
:10199000440E551E661E771EC551DE4F4882598281
:1019A0006A827B82CB5ED14084259525A625B7250A
:1019B000582E8B2FBA2FA92F952D080F191F2A1FCC
:1019C0003B1F40275127622773276A017B01E7E00D
:1019D000CC0CDD1CEE1CFF1CEA95D1F72A013B0163
:1019E000F9E17694679457944794FA95D1F74C2887
:1019F0005D286E287F28C151DE4F488259826A8255
:101A00007B82CF5ED140C15FDD4FC880D980EA8044
:101A1000FB80CF50D240C80CD91CEA1CFB1C8C2583
:101A20009D25AE25BF253C01CD01D301C55EDD4F0F
:101A3000488059806A807B80CB51D240480E591E25
:101A40006A1E7B1EB501A401442555256625772510
:101A50004A015B01ECE0880C991CAA1CBB1CEA95AE
:101A6000D1F7F4E17695679557954795FA95D1F7B3
:101A7000482959296A297B2946015701840E951E58
:101A8000A61EB71EC15FDD4F88829982AA82BB82E3
:101A9000CF50D24088259925AA25BB25B82EC92E1E
:101AA000DA2EAB2ECD5EDD4FA882B982CA82DB82F0
:101AB000C351D240A40CB51CC61CD71CC55EDD4F5B
:101AC000A882B982CA82DB82CB51D2404A255B25EB
:101AD0006C257D25DB01CA01E7E0880F991FAA1F4D
:101AE000BB1FEA95D1F72A013B01F9E1769467948F
:101AF00057944794FA95D1F7482A592A6A2A7B2A9B
:101B0000C95FDD4F88819981AA81BB81C750D240CE
:101B1000CD50DE4F488159816A817B81C35FD140BE
:101B2000840F951FA61FB71FC15DDD4F8880998068
:101B3000AA80BB80CF52D24088269926AA26BB26EF
:101B4000B40145015B01080D191D2A1D3B1DCD5037
:101B5000DE4F488159816A817B81C35FD140402734
:101B60005127622773276A017B01ECE0CC0CDD1C56
:101B7000EE1CFF1CEA95D1F7F4E176956795579531
:101B80004795FA95D1F74C295D296E297F296C017B
:101B90007D01C40ED51EE61EF71EC95FDD4FC8824B
:101BA000D982EA82FB82C750D2408C249D24AE2485
:101BB000BF24D82C8B2CBA2CA92C9D2CD901C80160
:101BC000880D991DAA1DBB1DC95EDD4F88839983B1
:101BD000AA83BB83C751D240482759276A277B274E
:101BE000DB01CA0117E0880F991FAA1FBB1F1A95B6
:101BF000D1F76A017B0109E1F694E794D794C79481
:101C00000A95D1F7C82AD92AEA2AFB2ACD50DE4FF5
:101C1000C882D982EA82FB82C35FD140C550DE4FC1
:101C2000C880D980EA80FB80CB5FD140C151DE4FB4
:101C3000088119812A813B81CF5ED140C00ED11E1F
:101C4000E21EF31EC55FDD4F88819981AA81BB81A9
:101C5000CB50D2408C259D25AE25BF259C01CD01C2
:101C6000D901CD5CDD4F488159816A817B81C353A5
:101C7000D240480F591F6A1F7B1FC15DDD4F48834B
:101C800059836A837B83CF52D240C151DE4F488152
:101C900059816A817B81CF5ED140C15DDD4F088172
:101CA00019812A813B81CF52D24040275127622798
:101CB00073278A019B01ECE0000F111F221F331FC5
:101CC000EA95D1F7F4E17695679557954795FA959A
:101CD000D1F7402B512B622B732B97018601040FF8
:101CE000151F261F371FC550DE4F088319832A830F
:101CF0003B83CB5FD14080279127A227B327D82EE3
:101D0000E92EFA2ECB2EC55FDD4FC882D982EA823A
:101D1000FB82CB50D240C15DDD4F088119812A8101
:101D20003B81CF52D2400C0D1D1D2E1D3F1D402763
:101D3000512762277327DB01CA01E7E0880F991F4B
:101D4000AA1FBB1FEA95D1F76A017B01F9E1F6945E
:101D5000E794D794C794FA95D1F7C82AD92AEA2AE2
:101D6000FB2AC151DE4FC882D982EA82FB82CF5E54
:101D7000D140CD5FDD4F488159816A817B81C3505D
:101D8000D240C551DE4F88819981AA81BB81CB5E4B
:101D9000D140480F591F6A1F7B1FC551DE4F488332
:101DA00059836A837B83CB5ED140C950DE4FC880A4
:101DB000D980EA80FB80C75FD140C426D526E626BD
:101DC000F726D60167017D01C95CDD4F4881598145
:101DD0006A817B81C753D2404C0D5D1D6E1D7F1DF6
:101DE000C15DDD4F488359836A837B83CF52D240E4
:101DF000CD5FDD4F88819981AA81BB81C350D240DC
:101E000084279527A627B727AC01BD01ECE0440F36
:101E1000551F661F771FEA95D1F7F4E1B695A79590
:101E200097958795FA95D1F7842B952BA62BB72BF1
:101E3000C551DE4F488159816A817B81CB5ED1409B
:101E4000480F591F6A1F7B1FC551DE4F48835983B6
:101E50006A837B83CB5ED140C426D526E626F7264F
:101E60005C2D6D2D7E2D4F2DC950DE4F488359833B
:101E70006A837B83C75FD140C15DDD4F4881598153
:101E80006A817B81CF52D240C950DE4FC880D98051
:101E9000EA80FB80C75FD1404C0D5D1D6E1D7F1D2C
:101EA00084279527A627B7276C017D01E7E0CC0C96
:101EB000DD1CEE1CFF1CEA95D1F7F9E1B695A7955C
:101EC00097958795FA95D1F78C299D29AE29BF2939
:101ED000C75BDD4FE881F981C954D2403197C75BB8
:101EE000DD4FF983E883C954D240EF2B09F04CCB86
:101EF000C15FDD4FC880D980EA80FB80CF50D240DF
:101F0000C982DA82EB82FC82898B9A8BAB8BBC8B89
:101F100089AA9AAAABAABCAA09A31AA32BA33CA379
:101F2000C95FDD4FE880F9800A811B81C750D2402C
:101F3000ED82FE820F8318874D8A5E8A6F8A788EC3
:101F4000C55FDD4F088119812A813B81CB50D2408A
:101F50000DAB1EAB2FAB38AF4DA35EA36FA378A71D
:101F6000C550DE4F288139814A815B81CB5FD140EA
:101F700029873A874B875C87CD50DE4F488159814E
:101F80006A817B81C35FD140498F5A8F6B8F7C8F71
:101F9000C950DE4F688179818A819B81C75FD140BA
:101FA00069AF7AAF8BAF9CAFC55EDD4F88819981F9
:101FB000AA81BB81CB51D24089A79AA7ABA7BCA766
:101FC000C551DE4F488059806A807B80CB5ED1400E
:101FD0004D865E866F86788AC151DE4F6880798033
:101FE0008A809B80CF5ED1406D8E7E8E8F8E98A230
:101FF000CD5EDD4F88809980AA80BB80C351D240DE
:1020000021968CAE9DAEAEAEBFAE2197C95EDD4FC0
:10201000A880B980CA80DB80C751D240ADA6BEA6D9
:10202000CFA6D8AA8E010F5F1F4FCE018F5B9E4FA8
:10203000F8014191519161917191DC01CD90DD9058
:10204000ED90FD90CD019F01245031094C0D5D1D97
:102050006E1D7F1DD9014D935D936D937C931397F6
:10206000C751DE4F48805980C95ED1404E165F0689
:1020700001F7CE018F579E4F9C01D8014D915D9184
:102080006D917D918D01D9014D935D936D937D93FC
:102090009D01E017F10789F7C55CDD4FE881F98103
:1020A000CB53D240E20DF31DCD5BDD4F68817981CA
:1020B000C354D240620D731D9C01205C3F4FC95B2D
:1020C000DD4F48805980C754D2404E165F0659F004
:1020D0005191DC014D91CD014527DB014D93BD01AF
:1020E0002817390761F7B0E42B0E311CC15CDD4FB6
:1020F00088819981AA81BB81CF53D24098C8C150B1
:10210000DE4FC882D982EA82FB82CF5FD14095013F
:1021100084014C015D010C946707D101D4964D9167
:102120005D916D917C91D79790968D919D910D9039
:10213000BC91A02D84279527A627B727F1014085BC
:1021400051856285738584279527A627B727408107
:1021500051816281738184279527A627B727880F2D
:10216000991FAA1FBB1F811DC151DE4FE881F98154
:10217000CF5ED14080839183A283B383C551DE4F6C
:10218000F881CB5ED140F43110F40C948407C55132
:10219000DE4F4881CB5ED1404832F0F4D501C40116
:1021A00080279127A227B3276C017D01C424D52461
:1021B000E624F724C55FDD4FC882D982EA82FB821C
:1021C000CB50D240B1EACB2EBBEEDB2EB9EDEB2EDD
:1021D000BEE6FB2E0C94A407C551DE4F4881CB5EB2
:1021E000D140D501C4014C3330F5802B912BA22B6B
:1021F000B32B84219521A621B721B501A401402349
:102200005123622373236C017D01C42AD52AE62A57
:10221000F72AC55FDD4FC882D982EA82FB82CB50A4
:10222000D240ACEDCA2EACEBDA2EABE1EA2EAFE831
:10223000FA2E0C94A40780279127A227B327AC017C
:10224000BD014425552566257725C55FDD4F4883AB
:1022500059836A837B83CB50D240F6EDCF2EF1ECCD
:10226000DF2EF2E6EF2EFAECFF2E0C94A407CB5BE8
:10227000DD4F48805980C554D2400FB6F8945EBEF9
:102280000FBE4DBEC65BDD4F0FB6F894DEBF0FBE6E
:10229000CDBFDF91CF911F910F91FF90EF90DF9015
:1022A000CF90BF90AF909F908F907F906F905F90F6
:1022B0004F903F902F9008957F928F929F92AF9270
:1022C000BF92CF92DF92EF92FF920F931F93CF9323
:1022D000DF93CDB7DEB7A1970FB6F894DEBF0FBE80
:1022E000CDBF762E872E942E4091AB015091AC013C
:1022F00041505109FA0163E0EE0FFF1F6A95E1F7C3
:10230000E450FE4FC080D180E280F38004811581CB
:102310002681378140515E4FFA01408150E0BC0177
:10232000CE0101965C010E94370668EE73E080E002
:1023300090E00E9461038AE992E00E94AE05072DB9
:10234000182D7501E091AB01F091AC01E551FE4F04
:102350002081C7018A199B092817190659F154F1E0
:10236000F80181918F010E949F05D12CC12CF701AA
:10237000808190E00D9634E0880F991F3A95E1F73F
:10238000C816D9066CF4892D0E94940363E070E0AE
:1023900080E090E00E946103FFEFCF1ADF0AE7CFF1
:1023A00068EE73E080E090E00E9461038FEFE81A2E
:1023B000F80AC8CF84EC92E00E94AE058091AB0190
:1023C0009091AC010197FC01E451FE4F00810A0D90
:1023D0001B2D111D88519E4FFC01E080F12CC8017E
:1023E0008A199B098E159F0524F5D12CC12CF80163
:1023F000808190E00D9624E0880F991F2A95E1F7DF
:10240000C816D9066CF4892D0E94940363E070E02D
:1024100080E090E00E946103FFEFCF1ADF0AE7CF70
:1024200068EE73E080E090E00E9461030F5F1F4F51
:10243000D6CF8AEF92E00E947E052091AB013091C9
:10244000AC0121503109F901E051FE4F8081285142
:102450003E4FF9019081891B990B0E94BA058DE0CE
:1024600093E00E94AE05892D0E949403E091AB0198
:10247000F091AC01E951FE4FE080F12C8824839467
:102480009AE0792EC090AB01D090AC01860101504A
:102490001109F801E051FE4F80818E151F0409F0EB
:1024A0000CF45EC080EA93E00E949204D82E082EBD
:1024B000000C990BF801E850FE4F208128171906EF
:1024C00009F004F7F801EC50FE4F20812817190697
:1024D000CCF28D2D0E949F052091AB013091AC0173
:1024E000922FF901E950FE4F8081D81A8D2D2D7F52
:1024F000213059F58F5FF501EE0DFF1D9081981386
:10250000812C082F10E0035F1F4F84E0000F111F84
:102510008A95E1F7D12CC12C892D0E94940363E0A8
:1025200070E080E090E00E946103FFEFCF1ADF0AC5
:102530000C151D0589F768EE73E080E090E00E94BD
:1025400061038FEFE81AF80A9DCF923029F4672DC6
:102550000E949317892FCFCF943069F68F70CBCF1D
:10256000882041F182E191E00E944305C6010E946A
:10257000BA0585ED90E00E948F058091AB019091A6
:10258000AC0101969093AC018093AB01A1960FB67C
:10259000F894DEBF0FBECDBFDF91CF911F910F9199
:1025A000FF90EF90DF90CF90BF90AF909F908F9073
:1025B0007F90089583EB90E00E948F05E7CF1F92F4
:1025C0000F920FB60F9211242F933F938F939F93E7
:1025D000AF93BF938091960390919703A091980336
:1025E000B09199033091950323E0230F2D3758F5CF
:1025F0000196A11DB11D209395038093960390939E
:102600009703A0939803B093990380919A039091B4
:102610009B03A0919C03B0919D030196A11DB11D48
:1026200080939A0390939B03A0939C03B0939D0384
:10263000BF91AF919F918F913F912F910F900FBEBE
:102640000F901F90189526E8230F0296A11DB11D2B
:10265000D2CF1F920F920FB60F9211242F933F9358
:102660004F935F936F937F938F939F93AF93BF939A
:10267000EF93FF9380EA93E00E94D404FF91EF91DF
:10268000BF91AF919F918F917F916F915F914F918A
:102690003F912F910F900FBE0F901F9018951F9292
:1026A0000F920FB60F9211242F938F939F93EF9356
:1026B000FF93E091B003F091B1038081E091B60304
:1026C000F091B70382FD1BC090818091B9038F5FA9
:1026D0008F732091BA03821741F0E091B903F0E0C3
:1026E000E056FC4F958F8093B903FF91EF919F9136
:1026F0008F912F910F900FBE0F901F901895808192
:10270000F4CF1F920F920FB60F9211242F933F9385
:102710008F939F93EF93FF938091940387FF1FC044
:102720001092850010928400809194038F5F8093B3
:1027300094038091940387FF04C0809194038C30AC
:10274000ACF08091840090918500049680349C497F
:1027500090F1809184009091850004962EC0809124
:10276000940387FFE1CF80919403DECF2091840012
:1027700030918500E09194038E2FEE0F990BFC01B0
:10278000EE0FFF1FE80FF91FE059FC4F8181928186
:10279000820F931F90938900809388008091940307
:1027A000FF91EF919F918F913F912F910F900FBECD
:1027B0000F901F90189580E49CE990938900809376
:1027C00088008FEF80939403EBCF1092A3031092B5
:1027D000A20388EE93E0A0E0B0E08093A40390937E
:1027E000A503A093A603B093A70389E492E0909376
:1027F000A1038093A00385EC90E09093AD038093B8
:10280000AC0384EC90E09093AF038093AE0380EC34
:1028100090E09093B1038093B00381EC90E09093AB
:10282000B3038093B20382EC90E09093B50380935E
:10283000B40386EC90E09093B7038093B6031092B4
:10284000B9031092BA031092BB031092BC0310920A
:102850003E040E9428038AE190E09093480480930C
:10286000470482E0809349041092520480913D0411
:102870008E7180933D040E942A0285E00E94BF0170
:1028800086E00E94BF0161E085E00E94DE0161E018
:1028900086E00E94DE0184B5836884BD17BC86E0B3
:1028A0000E94BF0184B5836284BD18BC85E00E948C
:1028B000BF018FEF87BD88BD109242041092410482
:1028C000109244041092430410924604109245045E
:1028D00061E070E090E080E00E94E7180097E9F086
:1028E0009093420480934104109244041092430454
:1028F0002091450430914604232B11F4FC011082F1
:10290000109246041092450469E572E080914104FA
:10291000909142040E94AD1914C08091410490919D
:102920004204009711F00E945E1810924204109227
:1029300041041092460410924504109244041092EF
:10294000430410923F0482E0809340040C942803D7
:10295000CF93DF93CDB7DEB7C754D1090FB6F89444
:10296000DEBF0FBECDBF789484B5826084BD84B5D0
:10297000816084BD85B5826085BD85B5816085BD7A
:1029800080916E00816080936E0010928100809132
:1029900081008260809381008091810081608093BA
:1029A0008100809180008160809380008091B100DF
:1029B00084608093B1008091B00081608093B0000A
:1029C00080917A00846080937A0080917A0082609E
:1029D00080937A0080917A00816080937A00809160
:1029E0007A00806880937A001092C100E091B00371
:1029F000F091B10382E08083E091AC03F091AD03EC
:102A00001082E091AE03F091AF0380E180831092D9
:102A1000B803E091B403F091B50386E08083E091C0
:102A2000B203F091B303808180618083E091B203AF
:102A3000F091B303808188608083E091B203F091CC
:102A4000B303808180688083E091B203F091B30387
:102A500080818F7D808368EE73E080E090E00E944B
:102A6000610380919E0390919F03805C9D419093B0
:102A70009F0380939E030E949B0589E193E00E943F
:102A8000AE050E949B05AE014F5F5F4F5A0120903B
:102A9000D3013090D4014090D5015090D6013E0131
:102AA0005EE2650E711C4E0188E1880E911CFE01EC
:102AB00077962696FFAFEEAF26978091AB01909167
:102AC000AC010197B1F40E949B0582EB92E00E9459
:102AD0008F050E949B0585E0E7EDF1E0D5010190AF
:102AE0000D928A95E1F741E0B50183E991E00E94FA
:102AF0005C118091AB019091AC010297D1F40E94DE
:102B00009B058FE792E00E948F058AE393E00E9485
:102B1000AE050E949B0585E0ECEDF1E0D50101904A
:102B20000D928A95E1F743E0B50183E791E00E94B9
:102B30005C118091AB019091AC01039791F40E94DC
:102B40009B058CE492E00E948F050E949B052982E0
:102B50003A824B825C8242E0B5018BE591E00E94B3
:102B60005C118091AB019091AC010497B1F40E948B
:102B70009B0586E292E00E948F050E949B0587E0FC
:102B8000E1EEF1E0D50101900D928A95E1F744E084
:102B9000B50183E491E00E945C118091AB019091BA
:102BA000AC01059709F011C10E949B058DE092E0F0
:102BB0000E948F050E949B05F30146E111924A9500
:102BC000E9F7E091AB01F091AC0133E0EE0FFF1FAC
:102BD0003A95E1F7EC50FE4FC080D180E280F3805F
:102BE000048115812681378146E150E06DE271E074
:102BF000C3010E943706F40146E111924A95E9F7B4
:102C0000E091AB01F091AC0143E0EE0FFF1F4A955C
:102C1000E1F7E450FE4FC080D180E280F380048170
:102C200015812681378146E150E067E171E0C401FA
:102C30000E94370687E1F50111928A95E9F7E09144
:102C4000AB01F091AC0153E0EE0FFF1F5A95E1F795
:102C5000EC5FFD4FC080D180E280F380048115815C
:102C60002681378147E150E060E071E0C5010E94B4
:102C7000370668EE73E080E090E00E946103830114
:102C80007401A3014A5E5F4F28965FAF4EAF28974D
:102C9000D12CC12CF801808190E00D9624E0880FA2
:102CA000991F2A95E1F7C816D9067CF4F7018081AF
:102CB0008F5F0E94940363E070E080E090E00E94E8
:102CC0006103FFEFCF1ADF0AE5CF68EE73E080E023
:102CD00090E00E9461030F5F1F4F4FEFE41AF40A68
:102CE00028968EAD9FAD28978017910789F684E5C9
:102CF00093E00E94AE057501DD24D3942696EEADD7
:102D0000FFAD2697EE16FF06A1F180EA93E00E9440
:102D10009204082F082E000C110B0134110574F0D9
:102D200091E00B3511050CF090E00136110574F0BF
:102D30000B3711058CF0992309F30EC000331105F0
:102D40000CF48AC091E00A33110574F700321105C2
:102D500094F3003311057CF7682F80EA93E00E941A
:102D6000F604F70181917F018017110639F2D12C09
:102D7000C5CFDD2029F10E948B050E948B0589E1DA
:102D800091E00E948F0589EC91E00E948F0582E618
:102D900091E00E948F050E948B050E948B05109286
:102DA000AC011092AB0140E050E0452B09F485CE18
:102DB0000E94C004882309F480CE0E9400007DCECA
:102DC0008BEA91E00E948F05EECF80913F04823024
:102DD000D1F1A0F48130C9F0809149048130B1F57E
:102DE00080913D04817E80933D040E942A0260EA26
:102DF00076E88FEF9FEF0E946103D5CF833001F11A
:102E0000843051F726E080E002C023E082E041E018
:102E100050E002C0440F551F8A95E2F7CA01E1E075
:102E2000F0E002C0EE0FFF1F2A95E2F78E2B80958F
:102E300090913D04892380933D040E942A02CCCFC7
:102E400027E085E0E4CF24E081E0E1CF823079F62D
:102E500080913D048E71C7CF003211050CF44ECF26
:102E60007BCF8091410490914204009711F00C9423
:102E70005E1808952F923F924F925F926F927F92C9
:102E80008F929F92AF92BF92CF92DF92EF92FF927A
:102E90000F931F93CF93DF93CDB7DEB7CA1BDB0B26
:102EA0000FB6F894DEBF0FBECDBF09942A883988CB
:102EB00048885F846E847D848C849B84AA84B984D2
:102EC000C884DF80EE80FD800C811B81AA81B981DE
:102ED000CE0FD11D0FB6F894DEBF0FBECDBFED01F2
:102EE0000895A1E21A2EAA1BBB1BFD010DC0AA1F4B
:102EF000BB1FEE1FFF1FA217B307E407F50720F063
:102F0000A21BB30BE40BF50B661F771F881F991FDD
:102F10001A9469F760957095809590959B01AC0126
:102F2000BD01CF010895991B79E004C0991F961740
:102F300008F0961B881F7A95C9F780950895EE0FC3
:102F4000FF1F0590F491E02D099497FD1094002E39
:102F5000083098F00850232F342F452F562F672F15
:102F6000782F892F912DF4CF159497958795779584
:102F7000679557954795379527950A95AAF7112490
:102F8000002D08950F931F93CF93DF938230910507
:102F900010F482E090E0E0915504F091560430E0A6
:102FA00020E0B0E0A0E0309799F42115310509F454
:102FB0004AC0281B390B24303105D8F58A819B8102
:102FC0006115710589F1FB0193838283FE0111C0B4
:102FD000408151810281138148175907E0F0481759
:102FE000590799F4109761F012960C931297139663
:102FF0001C933296CF01DF91CF911F910F910895CD
:103000000093550410935604F4CF2115310551F067
:103010004217530738F0A901DB019A01BD01DF0116
:10302000F801C1CFEF01F9CF909356048093550476
:10303000CDCFFE01E20FF31F81939193225031090E
:1030400039832883D7CF2091530430915404232B04
:1030500041F42091AF013091B0013093540420939A
:1030600053042091AD013091AE012115310541F499
:103070002DB73EB74091B1015091B201241B350BE1
:10308000E0915304F0915404E217F307A0F42E1BCF
:103090003F0B2817390778F0AC014E5F5F4F2417BC
:1030A000350748F04E0F5F1F50935404409353046C
:1030B000819391939FCFF0E0E0E09CCFCF93DF939B
:1030C0000097E9F0FC01329713821282A091550417
:1030D000B0915604ED0130E020E01097A1F420817A
:1030E0003181820F931F209153043091540428178B
:1030F000390709F061C0F0935404E0935304DF9161
:10310000CF910895EA01CE17DF07E8F54A815B8188
:103110009E0141155105B1F7E901FB83EA8349910D
:103120005991C40FD51FEC17FD0761F4808191817F
:103130000296840F951FE901998388838281938188
:103140009B838A83F0E0E0E012968D919C91139727
:103150000097B9F52D913C911197CD010296820F00
:10316000931F20915304309154042817390739F6DE
:10317000309751F51092560410925504B0935404B0
:10318000A0935304BCCFD383C28340815181840F69
:10319000951FC817D90761F44E5F5F4F88819981E9
:1031A000480F591F518340838A819B819383828377
:1031B0002115310509F0B0CFF0935604E093550482
:1031C0009ECFFD01DC01C0CF13821282D7CFB0E0C9
:1031D000A0E0EDEEF8E10C943C178C01009751F45F
:1031E000CB010E94C2178C01C801CDB7DEB7E0E168
:1031F0000C945817FC01E60FF71F9C01225031096F
:10320000E217F30708F49DC0D901CD91DC91119725
:10321000C617D70798F0C530D10530F3CE01049713
:103220008617970708F3C61BD70B2297C193D19334
:103230006D937C93CF010E945E18D6CF5B01AC1AD0
:10324000BD0A4C018C0E9D1EA0915504B0915604F0
:10325000512C412CF12CE12C109731F58091530425
:10326000909154048815990509F05CC046165706DC
:1032700008F058C08091AD019091AE01009741F4E3
:103280008DB79EB74091B1015091B201841B950B4F
:10329000E817F90708F055C0F0935404E09353047D
:1032A000F90171836083A0CF8D919C911197129643
:1032B0006C90129713967C901397A815B90559F541
:1032C0006C0142E0C40ED11CCA14DB0420F1AC0135
:1032D0004A195B09DA011296159780F062827382AF
:1032E00051834083D9016D937C93E114F10471F013
:1032F000D7011396FC93EE93129776CF22968C0FFC
:103300009D1FF90191838083F301EFCFF093560461
:10331000E093550469CF4816590608F42C017D0145
:10332000D3019ACFCB010E94C2177C01009749F0CC
:10333000AE01B8010E94A419C8010E945E1887015D
:1033400053CF10E000E050CFFB01DC0102C0019040
:103350000D9241505040D8F70895FB01DC010190D7
:103360000D920020E1F7089511E0C4E9D1E004C016
:10337000FE010E949F172196C539D107C9F7F8941D
:02338000FFCF7D
:10338200D3B3B54E7839C079AA9A05E2952C9577D0
:10339200C257B47995C113791C7F6DAAF2DC3FA0A4
:1033A2004519A1AE52E2CDE2BE3FD4C7381E4297C4
:1033B2003644A58B2FAFA079DADFC933BB50437FE8
:1033C200C24864159F56DCA8B0E7FAC079D087726C
:1033D20027829AF56D2AD699A83EA842E675AAC216
:1033E20083F754495AF7860E9962E5A68E3DC1329B
:1033F200CD555727220A971C21F5B7FCA456F01E7B
:10340200D9B8F3DF8BBB3FB4E863AD0D30CCE9E450
:103412005FABEB3CA3873D595CF03A8A415E44398D
:10342200DDA8C810FCAD4C1D8D1919010000005714
:1034320004800041B308549FA30791CAC638A55B14
:103442007D630A62A89B9F40BE4CEA8C6BF6579A3A
:10345200F05C406263656741414243453233343533
:1034620037202020212223251010101005050405E5
:10347200182018185A397A2F4130612018481D0037
:103482000000000019481D00000000001A481D003D
:10349200000000001B481D00000000001C481D0029
:1034A200000000001D481D00000000001E481D0015
:1034B200000000000019324A62788DA2B4C5D4E13E
:1034C200ECF4FAFDFF00000000F604560483045EEB
:1034D20005B4049204A6040D0A004F626675736374
:1034E2006174696F6E20697320696E76616C6964BC
:1034F2002E20506C6561736520636F6E7461637416
:10350200206368616C6C656E67652061646D696ECD
:103512006973747261746F722E00456E636F6469B1
:103522006E67732028666F72207468652066697200
:1035320073742066657720697465726174696F6E51
:1035420073293A0057686F6F7073212120546865A0
:10355200206E65787420697465726174696F6E7328
:1035620020617265206F6E6C79206F6E20746865C1
:10357200206D6F746F722E2E2E0057686174206159
:10358200726520746865206E657874200020656E0F
:10359200636F64696E67733F0057656C636F6D6537
:1035A20020746F20467269656E646C792044697379
:1035B200706F736974696F6E21000920494E20593A
:1035C2004F55522053554343455353204953205995
:1035D2004F55210057686174206973207468652013
:1035E200736563726574206D6573736167653F000F
:00000001FF
