:100000000C94A3020C94CB020C94CB020C94CB0264
:100010000C94CB020C94CB020C94CB020C94CB022C
:100020000C94CB020C94CB020C94CB020C947F1258
:100030000C94CB020C94CB020C94CB020C94CB020C
:100040000C94DD110C94CB020C944D120C942712DD
:100050000C94CB020C94CB020C94CB020C94CB02EC
:100060000C94CB020C94CB02AE4983AF0E1529C67B
:100070008FD824E75519086DA7DE06870E011EE903
:100080008FEBDC78B5526A91D9FCC170647DD29354
:10009000912A63F0CE533F56EE25E9934E84180E15
:1000A0005DF7F1BAFC2D0B69F7A8007CF0C167B1D0
:1000B000304152757EBDB4373001AF133A9018D03D
:1000C0005CBCC6911DE628938D941B745F87D89302
:1000D000BE742D53D8E88574184B16B8FEE26EDE58
:1000E000E70F4E73B11E873552AF42535324FBB80E
:1000F000CC5B0F1CA00AA7ED55FAAADD503A8F1C65
:100100005A1E225943A9839A4F2E35A35222D7AFA4
:1001100089E58C372D1642134CA94798FBF8CF0B75
:10012000C76B96155F2A801F54A0201245D67A23EC
:1001300089368A20106A99BE2D376831AD1F0A8131
:10014000156AFBE12B5A1DA896F0AFED5CCE7D122F
:10015000FF2B54FA6439738C21A5FCE94794A1B2B2
:100160008B3AF67EDAABAE1582A96FE4916AA92FBD
:10017000C4B9728DE447C808DBF297ACFF150929B2
:1001800000419B9AF26013861EFE46E56AB303F0B7
:1001900093CC4CA561C19FE5921F4A8FDBC5F22D20
:1001A000509DCCB92A41841C0FE2F6C690E19B73A6
:1001B000E5D0B2A50807E9EB580FFED056E8489EF7
:1001C000A7699D9B535E3C5E3040F0021F1645CDF3
:1001D0006E1BA697D18FDABBED36F78A27C17B3429
:1001E000417D92386D39F63EAB735A35A2E13D6CD4
:1001F0009885C006E6878194BB98400FE003AF6CFA
:100200006DFE6FB95E8B9399E5BAD198F5FA511CE2
:10021000FB47196934ED75BF8418B297E2DC536F60
:100220004A65F5C4B93133153F1C1FEF9EF752B82C
:10023000373097EC1F38E044A14E941EF97B3950BB
:10024000778B390B17C50439C45B967D513D35DF7B
:100250004138492DDDEA244FF6C192818D1986F18E
:10026000B8931D9922DBB24DFBF326055E703E0D5F
:10027000E70FFFF3428DA4C428D3B9777A18BE8C58
:1002800021E67404C82B3EB66E5E50B79E85E97BAE
:10029000C0125938FAC33171FF1F1BFDAE8114B370
:1002A00057E679BD0C666B2397A5069E29A07EB202
:1002B0009986F8504A940AC87AD5C101AFA9D3608B
:1002C000781AFAE9525B5AA2B6FEE0CCE1334A1C36
:1002D000D3C5420BE667BF5E034D3A123D38DB746F
:1002E00088DF61661949A77EAAFF9DD41113873262
:1002F0002E70ED1B7A4DC417077F96751112E8C159
:1003000007351E2450E8330BB3DFFA439EFA5291AF
:10031000930790CD74E70A37340E0EC8C853A23A3B
:100320001B8F9513AD11860002FC0D9EA30AC5F923
:10033000C3E5D6A62D1FDFADC8E5E0A89CD70257C0
:10034000E906794A5330CB418BA19ACA10E0C0D25A
:100350006F921526CCFEAB14A312A3987FC2377EF2
:10036000ED7BAA6C0C55F056C75AE8BB1675CB3816
:10037000180EC27A57F1812CE54120CC87F13BFA67
:100380002FBAC3C5D991FA41C530EB54A61BB56C41
:10039000C18B51DCCE51FC28CB2318193A104BF3FA
:1003A000997F2F0869F4AD1CFE7F8B235234C6BDA4
:1003B000215EED91C4E2C5ED7899C693293F607A3C
:1003C00028E896750D87CC0E0BDEA12D3D4D729A57
:1003D000E13A475BEC78C942C804AB9EFF975919D4
:1003E00091A9A5FEBD895A9D384A4EC6DE96D0FC1D
:1003F00013103B30B18FED43E912F62BA0B0BEEEE7
:100400002A27A5BE65C037A42B5B34A4FC14327622
:1004100097C6DF26A51C49D35F9CBBCD786D4C10D9
:10042000916A33712C39D14ED90E56F2EB83298E55
:10043000CEB5CD18FD692C5DB381B8EE428A0E248D
:10044000FD579CCC3A509A18DCCC7633BF0988868D
:10045000B90C033B07E12E0A9D9420A449F2EC223B
:10046000D14E30E7A76AFCEBFFD96E5CCB58672F03
:10047000BF74119DDAEAF4EBA62B81DB430DB36E5A
:10048000D8784B4256B964109B9471A9E095A49B0F
:10049000FB53454BE055C5BE17C5508336D41FC826
:1004A000680A2690B694D4D4D82F2A2A2A2A2A2A2F
:1004B0002A2A2A2A2A2A2A2A2A2A2A2A2A2A2A2A9C
:1004C0002A2A2A2A2A2A2A2A2A2A2A2A2A2A2A2A8C
:1004D0002A2A2A2A2A2A2A2A2A2A2A2A2A2A2A2A7C
:1004E0002A2A2A2A2A2A2A2A2A2A2A2A2A2A2A2A6C
:1004F0002A2A2F0000000008000201000003040760
:10050000000000000000000000000000250028009E
:100510002B0000000000240027002A00040404042B
:10052000040404040202020202020303030303039D
:10053000010204081020408001020408102001027A
:10054000040810204F1311241FBECFEFD8E0DEBFE8
:10055000CDBF11E0A0E0B1E0ECE8F9E202C0059007
:100560000D92AA3FB107D9F722E0AAEFB1E001C08E
:100570001D92A13DB207E1F712E0C3EAD2E004C048
:100580002197FE010E94BE14C23AD107C9F70E940A
:10059000D0130C94C4140C94000090E0FC01E05DB6
:1005A000FA4F2491845E9A4FFC018491882399F03C
:1005B00090E0880F991FFC01EE5EFA4FA591B4916F
:1005C000FC01E85FFA4F859194918FB7F894EC9114
:1005D000E22BEC938FBF089590E0FC01EC50FB4FB1
:1005E0002491FC01E05DFA4F3491FC01E45EFA4F86
:1005F000E491EE23C9F0222339F0233001F1A8F46D
:10060000213019F1223029F1F0E0EE0FFF1FE85FF1
:10061000FA4FA591B4918FB7F894EC91611126C06F
:1006200030953E233C938FBF08952730A9F02830A2
:10063000C9F0243049F7809180008F7D03C08091FC
:1006400080008F7780938000DFCF84B58F7784BD63
:10065000DBCF84B58F7DFBCF8091B0008F77809307
:10066000B000D2CF8091B0008F7DF9CF3E2BDACF92
:10067000CF93DF9360E08CE00E94EC0260E088E0C2
:100680000E94EC02C7E0D0E060E084E00E94EC024F
:100690008091A30290E00C2E02C0959587950A9454
:1006A000E2F761E080FF60E088E00E94EC0261E038
:1006B00084E00E94EC02219738F761E08CE0DF9142
:1006C000CF910C94EC029091CC02923049F018F446
:1006D000913049F10895933001F1943009F1089572
:1006E00024E091E0823011F18430A9F1813009F0E9
:1006F00045C041E050E0BA0101C0660F9A95EAF7A3
:100700008091A302862B01C0440F2A95EAF74095F9
:1007100048234093A3020C94380327E095E0E2CFEE
:1007200026E090E0DFCF23E092E0DCCF41E050E034
:10073000BA0102C0660F771F9A95E2F7CB01809548
:100740009091A302892301C0440F2A95EAF7842BD4
:100750008093A302E0CF41E050E0BA0102C0660FEF
:10076000771F9A95E2F7CB0101C0440F2A95EAF76B
:10077000842B80959091A3028923EACF08953FB7F7
:10078000F8948091020290910302A0910402B0912A
:10079000050226B5A89B05C02F3F19F00196A11DA3
:1007A000B11D3FBFBA2FA92F982F8827BC01CD01BB
:1007B000620F711D811D911D42E0660F771F881F1A
:1007C000991F4A95D1F708958F929F92AF92BF9249
:1007D000CF92DF92EF92FF924B015C010E94BF0328
:1007E0006B017C010E94BF036C197D098E099F0972
:1007F000683E734081059105A8F321E0821A9108B3
:10080000A108B10888EEC80E83E0D81EE11CF11CD7
:1008100081149104A104B10429F7FF90EF90DF90B7
:10082000CF90BF90AF909F908F900895AF92BF925E
:10083000CF92DF92EF92FF920F931F93CF93DF93AC
:100840006C017B018B01040F151FEB015E01AE18DB
:10085000BF08C017D10759F06991D601ED91FC91FD
:100860000190F081E02DC6010995892B79F7C5012A
:10087000DF91CF911F910F91FF90EF90DF90CF907C
:10088000BF90AF900895FC01538D448D252F30E02B
:10089000842F90E0821B930B541710F0CF9608958D
:1008A00001970895FC01918D828D981761F0A28DBA
:1008B000AE0FBF2FB11D5D968C91928D9F5F9F7380
:1008C000928F90E008958FEF9FEF0895FC01918D36
:1008D000828D981731F0828DE80FF11D858D90E0A3
:1008E00008958FEF9FEF0895FC01918D228D892F40
:1008F00090E0805C9F4F821B91098F739927089528
:1009000086E092E00E94740421E0892B09F420E043
:10091000822F089580E090E0892B29F00E948004C6
:1009200081110C9400000895FC01A48DA80FB92F2B
:10093000B11DA35ABF4F2C91848D90E001968F7307
:100940009927848FA689B7892C93A089B1898C9126
:10095000837080648C93938D848D981306C0028875
:10096000F389E02D80818F7D80830895EF92FF923F
:100970000F931F93CF93DF93EC0181E0888F9B8DC2
:100980008C8D98131AC0E889F989808185FF15C07C
:100990009FB7F894EE89FF896083E889F98980819F
:1009A0008370806480839FBF81E090E0DF91CF916E
:1009B0001F910F91FF90EF900895F62E0B8D10E090
:1009C0000F5F1F4F0F731127E02E8C8D8E110CC0FF
:1009D0000FB607FCFACFE889F989808185FFF5CF4A
:1009E000CE010E949404F1CFEB8DEC0FFD2FF11D91
:1009F000E35AFF4FF0829FB7F8940B8FEA89FB8987
:100A000080818062CFCFCF93DF93EC01888D8823E4
:100A1000B9F0AA89BB89E889F9898C9185FD03C061
:100A2000808186FD0DC00FB607FCF7CF8C9185FF46
:100A3000F2CF808185FFEDCFCE010E949404E9CFF3
:100A4000DF91CF91089542E050E062E371E086E0EB
:100A500092E00C941604CF93DF93FC0101900020E8
:100A6000E9F73197AF01481B590BBC0186E092E0D2
:100A70000E941604EC010E9423058C0F9D1FDF913C
:100A8000CF910895CF93DF93C9EAD4E0FE0164913A
:100A9000662339F086E092E00E94B6042196892B05
:100AA000A9F7DF91CF910C9423052F923F924F929B
:100AB0005F926F927F928F929F92AF92BF92CF92EE
:100AC000DF92EF92FF920F931F93CF93DF93CDB7F7
:100AD000DEB7C356D2400FB6F894DEBF0FBECDBF0F
:100AE0004DB65EB6CE59DD4F59824882C256D240CD
:100AF000C05CDD4F19821882C054D24019E2CC5B31
:100B0000DD4F1883C454D2401FE6CB5BDD4F188302
:100B1000C554D2401DE1CA5BDD4F1883C654D24094
:100B2000C95BDD4F1882C754D240C85BDD4F1882C5
:100B3000C854D240C75BDD4F1882C954D240C65B4F
:100B4000DD4F1882CA54D240C55BDD4F1882CB54AA
:100B5000D2409E012E5F3D4FC65FDD4F3983288313
:100B6000CA50D240AE014F5F5F4FC45FDD4F598323
:100B70004883CC50D2404DB65EB6C05ADD4F598244
:100B80004882C056D2408E010F531E4FCE5CDD4FBF
:100B900019830883C253D240D80190E080E0C05C42
:100BA000DD4F28813981C054D24028593F4FF90187
:100BB000E80FF91FE491ED93019681329105B9F7A1
:100BC0002DB73EB7215231090FB6F8943EBF0FBE84
:100BD0002DBF4DB75EB74F5F5F4FCE5BDD4F598383
:100BE0004883C254D24088E0C65FDD4FA881B981F6
:100BF000CA50D2401D928A95E9F7FE01EE5FFD4F83
:100C0000DF011896CC5BDD4F2881C454D240CB5B0A
:100C1000DD4F3881C554D240CA5BDD4F4881C65490
:100C2000D240C95BDD4F5881C754D240C85BDD4F0D
:100C30006881C854D240C75BDD4F7881C954D24027
:100C4000C65BDD4F8881CA54D240C55BDD4F9881B9
:100C5000CB54D240219308E00E949714AE17BF07EF
:100C6000C9F780E2E0E0F1E0DE01AE51BE4F019055
:100C70000D928A95E1F78091FB019091FC01AC0106
:100C8000092E000C660B770B452F562F672F772701
:100C9000EDB7FEB7C65EDD4FF983E883CA51D24097
:100CA00044244394A3E25A2EA5E46A2EA7E67A2EA2
:100CB000CE51DE4F488259826A827B82C25ED14029
:100CC000B9E86B2EBBEA7B2EBDEC8B2EBFEE9B2EC4
:100CD000CA51DE4F688279828A829B82C65ED14089
:100CE0001EEF812E1CED912E1AEBA12E18E9B12ECC
:100CF000C651DE4F88829982AA82BB82CA5ED140E9
:100D000006E7A02E04E5B02E02E3C02E00E1D02EAF
:100D1000C251DE4FA882B982CA82DB82CE5ED14048
:100D200020EFC22E21EED22E22EDE22E23ECF22E67
:100D3000CE50DE4FC882D982EA82FB82C25FD140A8
:100D40000DB71EB7005411090FB6F8941EBF0FBEA1
:100D50000DBFFF972DB73EB72F5B3F4FDF011D92B1
:100D60001D921D921D92A217B307C9F79927092E4C
:100D7000000CAA0BBB0BB82FAA27992788279068CD
:100D8000BA0155274427442755277727842B952BCD
:100D9000A62BB72B4081518162817381842B952BC7
:100DA000A62BB72B80839183A283B38380E190E04D
:100DB000A0E0B0E084AF95AFA6AFB7AF80E491E01C
:100DC000C45FDD4FA881B981CC50D2408C011D9207
:100DD00001501040E1F79E012F5F3F4FCA5EDD4F8B
:100DE00039832883C651D240CA5DDD4FF983E88339
:100DF000C652D2401E013FE3231A310840EF51EEA4
:100E000062ED73ECC25EDD4F488359836A837B8356
:100E1000CE51D24061E073E285E497E6CE5EDD4FCD
:100E2000688379838A839B83C251D24049E8442EE8
:100E30004BEA542E4DEC642E4FEE742E06E714E56B
:100E400022E330E15EEF852E5CED952E5AEBA52E68
:100E500058E9B52EC25FDD4F1882CE50D240C25F36
:100E6000DD4F7881CE50D240703110F00C94BF0F1E
:100E7000CA5DDD4FE881F981C652D24080819181FF
:100E8000A281B381CA5EDD4FE881F981C651D240AB
:100E900080839183A283B383D901C80188259925D2
:100EA000AA25BB2584219521A621B7216C017D01AE
:100EB000C026D126E226F326CC5CDD4FC882D9823B
:100EC000EA82FB82C453D24099E9C92E99E7D92E10
:100ED00092E8E92E9AE5F92ECA5EDD4FA881B98124
:100EE000C651D2406D917D918D919D91CA5EDD4F2D
:100EF000B983A883C651D240CE5DDD4F6883798324
:100F00008A839B83C252D240CE5EDD4F4881598195
:100F10006A817B81C251D240FBE1769567955795F6
:100F20004795FA95D1F7C65DDD4F488359836A83AB
:100F30007B83CA52D240CE5EDD4F688179818A813F
:100F40009B81C251D240A5E0660F771F881F991F71
:100F5000AA95D1F7DC01CB01C65DDD4F48815981EF
:100F60006A817B81CA52D240842B952BA62BB72B4A
:100F7000CE5DDD4F488159816A817B81C252D2406A
:100F8000840F951FA61FB71FAC01BD01CC5CDD4FC0
:100F900088819981AA81BB81C453D240840F951F57
:100FA000A61FB71F8C0D9D1DAE1DBF1DC25EDD4F60
:100FB000C880D980EA80FB80CE51D2408C0D9D1D27
:100FC000AE1DBF1DB301A201E2E07695679557956E
:100FD0004795EA95D1F773016201FEE1CC0CDD1C67
:100FE000EE1CFF1CFA95D1F7C42AD52AE62AF72A67
:100FF000C25FDD4F4881CE50D2404F5FC25FDD4FB0
:101000004883CE50D240CA5DDD4F68817981C65297
:10101000D2406C5F7F4FCA5DDD4F79836883C652D3
:10102000D24074E0270E311CCE5EDD4F48805980DF
:101030006A807B80C251D240C25EDD4F0883198333
:101040002A833B83CE51D240403509F08AC7AC0198
:10105000BD014F5F5C4D6A4B7849C25FDD4F4883ED
:1010600059836A837B83CE50D240CE51DE4F488372
:1010700059836A837B83C25ED140C301B201675743
:10108000744582439041CE5EDD4F688379838A83C5
:101090009B83C251D240CA51DE4F688379838A83D1
:1010A0009B83C65ED14072E0C71A73E2D70A75E42B
:1010B000E70A77E6F70AC651DE4FC882D982EA828C
:1010C000FB82CA5ED1408AE8881A8BEA980A8DECC6
:1010D000A80A8FEEB80AC251DE4F88829982AA828E
:1010E000BB82CE5ED1402801390190E1491A9EE1D0
:1010F000590A9DE2690A9CE3790ACE50DE4F488284
:1011000059826A827B82C25FD140C65EDD4FA88170
:10111000B981CA51D2400FB6F894BEBF0FBEADBF61
:10112000FE01EE51FE4F9F01205E3F4F80E090E0B8
:10113000DC01419151916191719184279527A627F6
:10114000B7272E173F07A9F7843F954DA943B54D03
:1011500021F085E391E00E942B05C358DE4F1882F1
:1011600019821A821B82CD57D14085E698E7A0E705
:10117000B1E6CF5BDE4F88839983AA83BB83C154DA
:10118000D1408EE694E6A0E2B3E3CB5BDE4F8883EA
:101190009983AA83BB83C554D14082E39DE2A2E632
:1011A000B9E7C75BDE4F88839983AA83BB83C954A1
:1011B000D14084E795E6A0E2BBE6C35BDE4F8883BF
:1011C0009983AA83BB83CD54D140C25FDD4F088190
:1011D00019812A813B81CE50D240CF5ADE4F0883FD
:1011E00019832A833B83C155D140CE5EDD4F2881D0
:1011F00039814A815B81C251D240CB5ADE4F28836C
:1012000039834A835B83C555D140C75ADE4FC882B4
:10121000D982EA82FB82C955D140C35ADE4F888207
:101220009982AA82BB82CD55D140CF59DE4F4882E8
:1012300059826A827B82C156D14080E49EEBACE445
:10124000BAEECB59DE4F88839983AA83BB83C556F8
:10125000D1408CE89BE6A6EFB7E5C759DE4F8883FF
:101260009983AA83BB83C956D1408AE990EFACE544
:10127000B0E4C359DE4F88839983AA83BB83CD56DC
:10128000D140CF58DE4F188219821A821B82C15773
:10129000D140CE5FDD4F88819981AA81BB81C25048
:1012A000D240CB58DE4F88839983AA83BB83C5572E
:1012B000D140CA5FDD4F88819981AA81BB81C65028
:1012C000D240C758DE4F88839983AA83BB83C9570E
:1012D000D14080E4FE01EF5BFE4FDE0111960190EC
:1012E0000D928A95E1F749815A816B817C81C65EB6
:1012F000DD4F488359836A837B83CA51D2408989F1
:101300009A89AB89BC8989A89AA8ABA8BCA809A16D
:101310001AA12BA13CA14D805E806F807884C85CAF
:10132000DD4F488259826A827B82C853D2404D8801
:101330005E886F88788CCDA8DEA8EFA8F8ACC25E76
:10134000DD4FC882D982EA82FB82CE51D2404DA1C4
:101350005EA16FA178A5C984DA84EB84FC84C45CA7
:10136000DD4FC882D982EA82FB82CC53D240C98C3D
:10137000DA8CEB8CFC8CC25FDD4FC882D982EA82AA
:10138000FB82CE50D240C9ACDAACEBACFCACCA5D4F
:10139000DD4FC882D982EA82FB82C652D240C9A4FC
:1013A000DAA4EBA4FCA4CC5CDD4FC882D982EA822B
:1013B000FB82C453D240CD84DE84EF84F888CE5EB5
:1013C000DD4FC882D982EA82FB82C251D240CD8CE5
:1013D000DE8CEF8CF8A0CA5EDD4FC882D982EA822B
:1013E000FB82C651D2402196CCACDDACEEACFFAC5A
:1013F0002197C65DDD4FC882D982EA82FB82CA523C
:10140000D240CDA4DEA4EFA4F8A8C25DDD4FC8820F
:10141000D982EA82FB82CE52D240EAE02E2E312CD3
:10142000C65EDD4FC880D980EA80FB80CA51D240B9
:10143000C80ED91EEA1EFB1EC45BDD4FC882D982CE
:10144000EA82FB82CC54D2408C249D24AE24BF245B
:1014500074014501570168017901C80CD91CEA1CC7
:10146000FB1CCE5DDD4FC882D982EA82FB82C2526C
:10147000D2408C259D25AE25BF256C017D011CE049
:10148000CC0CDD1CEE1CFF1C1A95D1F704E1B695BF
:10149000A795979587950A95D1F78C299D29AE290F
:1014A000BF29C45BDD4FE880F9800A811B81CC54E1
:1014B000D240E80EF91E0A1F1B1FC65EDD4FE882F0
:1014C000F9820A831B83CA51D2408E249F24A0260E
:1014D000B126182D292D3A2D0B2DC45BDD4F088325
:1014E00019832A833B83CC54D240CE5DDD4F888064
:1014F0009980AA80BB80C252D240080D191D2A1DB6
:101500003B1DC05BDD4F088319832A833B83C05595
:10151000D24080279127A227B3278C019D01E7E0C5
:10152000000F111F221F331FEA95D1F75C016D01D7
:10153000F9E1D694C794B794A794FA95D1F7A02A65
:10154000B12AC22AD32ACE5DDD4FA882B982CA82CF
:10155000DB82C252D240C85CDD4F88819981AA816A
:10156000BB81C853D240840D951DA61DB71DC25E18
:10157000DD4FC880D980EA80FB80CE51D240C8269A
:10158000D926EA26FB268601670178014C0D5D1DF0
:101590006E1D7F1D8A019B010425152526253725F3
:1015A00048015901ECE0880C991CAA1CBB1CEA9567
:1015B000D1F7F4E13695279517950795FA95D1F768
:1015C000082919292A293B292C013D01400E511EC9
:1015D000621E731EC25EDD4F488259826A827B8220
:1015E000CE51D240C424D524E624F7247C2C8D2C63
:1015F0009E2C6F2CCC5ADD4F688279828A829B8226
:10160000C455D240640E751E861E971EC85ADD4F03
:10161000688279828A829B82C855D2400625172526
:1016200028253925D901C80147E0880F991FAA1F2D
:10163000BB1F4A95D1F74801590159E1B694A794C7
:10164000979487945A95D1F7882A992AAA2ABB2A6F
:10165000C25FDD4FC880D980EA80FB80CE50D24087
:10166000C45CDD4F088119812A813B81CC53D24073
:10167000C00ED11EE21EF31ECA5DDD4F8881998126
:10168000AA81BB81C652D2408C259D25AE25BF259F
:101690009C01CD01D901CC5CDD4F488059806A8026
:1016A0007B80C453D240480E591E6A1E7B1EC25F07
:1016B000DD4F488159816A817B81CE50D2404425DB
:1016C0005525662577258A019B01ECE0000F111F47
:1016D000221F331FEA95D1F7F4E176956795579568
:1016E0004795FA95D1F7402B512B622B732B97011D
:1016F0008601040F151F261F371FCA5DDD4F0883A3
:1017000019832A833B83C652D24080279127A22780
:10171000B327D82EE92EFA2ECB2EC45ADD4FC8821D
:10172000D982EA82FB82CC55D240C40CD51CE61C7F
:10173000F71CCC5CDD4FC882D982EA82FB82C4539D
:10174000D2404C255D256E257F25DB01CA0117E0BF
:10175000880F991FAA1FBB1F1A95D1F72A013B01B9
:1017600009E176946794579447940A95D1F7482AEB
:10177000592A6A2A7B2AC25FDD4F488259826A82CF
:101780007B82CE50D240CE5EDD4FC880D980EA80C9
:10179000FB80C251D240CA5EDD4F088119812A8187
:1017A0003B81C651D240C00ED11EE21EF31EC65D63
:1017B000DD4F88819981AA81BB81CA52D2408C2594
:1017C0009D25AE25BF259C01CD01D901C25DDD4F10
:1017D000088119812A813B81CE52D240080F191FFE
:1017E0002A1F3B1FCA5EDD4F488159816A817B8178
:1017F000C651D24040275127622773272A013B0157
:10180000ECE0440C551C661C771CEA95D1F7F4E11A
:101810007695679557954795FA95D1F744295529B7
:101820006629772926013701440E551E661E771E4C
:10183000CE5EDD4F488259826A827B82C251D2409D
:1018400084259525A625B725582E8B2FBA2FA92F8D
:10185000952D080F191F2A1F3B1F4027512762276C
:1018600073276A017B01E7E0CC0CDD1CEE1CFF1C3A
:10187000EA95D1F72A013B01F9E1769467945794F0
:101880004794FA95D1F74C285D286E287F28CA5EC8
:10189000DD4F488259826A827B82C651D240C65E41
:1018A000DD4FC880D980EA80FB80CA51D240C80C85
:1018B000D91CEA1CFB1C8C259D25AE25BF253C01AF
:1018C000CD01D301CC5CDD4F488059806A807B809C
:1018D000C453D240480E591E6A1E7B1EB501A40196
:1018E00044255525662577254A015B01ECE0880CE7
:1018F000991CAA1CBB1CEA95D1F7F4E17695679573
:1019000057954795FA95D1F7482959296A297B298E
:1019100046015701840E951EA61EB71EC65EDD4FFA
:1019200088829982AA82BB82CA51D2408825992591
:10193000AA25BB25B82EC92EDA2EAB2EC65DDD4FEB
:10194000A882B982CA82DB82CA52D240A40CB51CDA
:10195000C61CD71CCC5CDD4FA882B982CA82DB8250
:10196000C453D2404A255B256C257D25DB01CA0185
:10197000E7E0880F991FAA1FBB1FEA95D1F72A013C
:101980003B01F9E17694679457944794FA95D1F71F
:10199000482A592A6A2A7B2AC25EDD4F88819981AA
:1019A000AA81BB81CE51D240C25FDD4F48815981AF
:1019B0006A817B81CE50D240840F951FA61FB71F2E
:1019C000C45BDD4F88809980AA80BB80CC54D24014
:1019D00088269926AA26BB26B40145015B01080D7D
:1019E000191D2A1D3B1DC25FDD4F488159816A8147
:1019F0007B81CE50D24040275127622773276A014E
:101A00007B01ECE0CC0CDD1CEE1CFF1CEA95D1F751
:101A1000F4E17695679557954795FA95D1F74C2956
:101A20005D296E297F296C017D01C40ED51EE61E3D
:101A3000F71EC85CDD4FC882D982EA82FB82C85398
:101A4000D2408C249D24AE24BF24D82C8B2CBA2CBD
:101A5000A92C9D2CD901C801880D991DAA1DBB1D5B
:101A6000C25DDD4F88839983AA83BB83CE52D24067
:101A7000482759276A277B27DB01CA0117E0880F0F
:101A8000991FAA1FBB1F1A95D1F76A017B0109E1B3
:101A9000F694E794D794C7940A95D1F7C82AD92A1F
:101AA000EA2AFB2AC25FDD4FC882D982EA82FB8222
:101AB000CE50D240CA5DDD4FC880D980EA80FB801D
:101AC000C652D240CA5EDD4F088119812A813B810E
:101AD000C651D240C00ED11EE21EF31ECC5ADD4FBD
:101AE00088819981AA81BB81C455D2408C259D25CE
:101AF000AE25BF259C01CD01D901C05BDD4F4881DA
:101B000059816A817B81C055D240480F591F6A1F95
:101B10007B1FCA5DDD4F488359836A837B83C6522E
:101B2000D240CA5EDD4F488159816A817B81C651AE
:101B3000D240CA5DDD4F088119812A813B81C6529E
:101B4000D24040275127622773278A019B01ECE08E
:101B5000000F111F221F331FEA95D1F7F4E176958C
:101B6000679557954795FA95D1F7402B512B622BE6
:101B7000732B97018601040F151F261F371FC45CA6
:101B8000DD4F088319832A833B83CC53D2408027BF
:101B90009127A227B327D82EE92EFA2ECB2EC25E8C
:101BA000DD4FC882D982EA82FB82CE51D240CA5D23
:101BB000DD4F088119812A813B81C652D2400C0D2C
:101BC0001D1D2E1D3F1D4027512762277327DB0156
:101BD000CA01E7E0880F991FAA1FBB1FEA95D1F73A
:101BE0006A017B01F9E1F694E794D794C794FA95DA
:101BF000D1F7C82AD92AEA2AFB2ACA5EDD4FC88251
:101C0000D982EA82FB82C651D240CE5DDD4F488147
:101C100059816A817B81C252D240CE5EDD4F88817C
:101C20009981AA81BB81C251D240480F591F6A1FB6
:101C30007B1FCE5EDD4F488359836A837B83C2510D
:101C4000D240C45ADD4FC880D980EA80FB80CC5591
:101C5000D240C426D526E626F726D60167017D01A7
:101C6000C85ADD4F488159816A817B81C855D2406D
:101C70004C0D5D1D6E1D7F1DC45BDD4F4883598378
:101C80006A837B83CC54D240CE5DDD4F88819981BD
:101C9000AA81BB81C252D24084279527A627B727A5
:101CA000AC01BD01ECE0440F551F661F771FEA959C
:101CB000D1F7F4E1B695A79597958795FA95D1F761
:101CC000842B952BA62BB72BCE5EDD4F48815981F7
:101CD0006A817B81C251D240480F591F6A1F7B1F06
:101CE000CE5EDD4F488359836A837B83C251D240E5
:101CF000C426D526E626F7265C2D6D2D7E2D4F2D8C
:101D0000CA5DDD4F488359836A837B83C652D240C4
:101D1000C45BDD4F488159816A817B81CC54D240BC
:101D2000CA5DDD4FC880D980EA80FB80C652D240B0
:101D30004C0D5D1D6E1D7F1D84279527A627B72797
:101D40006C017D01E7E0CC0CDD1CEE1CFF1CEA956C
:101D5000D1F7F9E1B695A79597958795FA95D1F7BB
:101D60008C299D29AE29BF29E1E02E1A310809F0FE
:101D700057CBC65EDD4FC880D980EA80FB80CA5150
:101D8000D240C982DA82EB82FC82898B9A8BAB8B40
:101D9000BC8B89AA9AAAABAABCAA09A31AA32BA393
:101DA0003CA3C85CDD4FE880F9800A811B81C853E1
:101DB000D240ED82FE820F8318874D8A5E8A6F8A39
:101DC000788EC25EDD4F088119812A813B81CE5118
:101DD000D2400DAB1EAB2FAB38AF4DA35EA36FA3AC
:101DE00078A7C45CDD4F288139814A815B81CC535F
:101DF000D24029873A874B875C87C25FDD4F488195
:101E000059816A817B81CE50D240498F5A8F6B8F26
:101E10007C8FCA5DDD4F688179818A819B81C65242
:101E2000D24069AF7AAF8BAF9CAFCC5CDD4F88817D
:101E30009981AA81BB81C453D24089A79AA7ABA735
:101E4000BCA7CE5EDD4F488059806A807B80C2513E
:101E5000D2404D865E866F86788ACA5EDD4F688086
:101E600079808A809B80C651D2406D8E7E8E8F8E07
:101E700098A2C65DDD4F88809980AA80BB80CA5237
:101E8000D24021968CAE9DAEAEAEBFAE2197C25D64
:101E9000DD4FA880B980CA80DB80CE52D240ADA68B
:101EA000BEA6CFA6D8AA8E010F5F1F4FCE018F5BB3
:101EB0009E4F9E012F5B3F4FF801C190D190E19062
:101EC000F190DC018D909D90AD90BD90CD01AF0162
:101ED00044505109C80CD91CEA1CFB1CDA01CD92F4
:101EE000DD92ED92FC9213972E173F0731F7CE014A
:101EF0008F579E4F9C01D8014D915D916D917D91C1
:101F00008D01D9014D935D936D937D939D01E017F4
:101F1000F10789F7CE5BDD4FE880F980C254D240EB
:101F2000CE5CDD4F48815981C253D2404F5D5F4F37
:101F3000F701CE5CDD4F48805980C253D240441532
:101F4000550509F4C8C0D2012D91CE5CDD4FB9838F
:101F5000A883C253D240DC013D91CD0123272193B8
:101F6000E8CFCE5EDD4F88839983AA83BB83C251BD
:101F7000D24095018401460157010C942F07D101ED
:101F8000D4964D915D916D917C91D79790968D915E
:101F90009D910D90BC91A02D84279527A627B7274A
:101FA000F101408551856285738584279527A62791
:101FB000B727408151816281738184279527A627A5
:101FC000B727880F991FAA1FBB1F811DCA5EDD4F4F
:101FD000E881F981C651D24080839183A283B38383
:101FE000C25FDD4FF881CE50D240F43110F40C9432
:101FF0004C07C25FDD4F4881CE50D2404832F0F4EA
:10200000D301C20180279127A227B3276C017D014C
:10201000C824D924EA24FB24CC5CDD4FC882D982B1
:10202000EA82FB82C453D24081EAC82E8BEED82EBE
:1020300089EDE82E8EE6F82E0C946C07C25FDD4F1A
:102040004881CE50D2404C3340F5D901C80188298F
:102050009929AA29BB2984219521A621B721B90153
:10206000A801482159216A217B216C017D01C42AE4
:10207000D52AE62AF72ACC5CDD4FC882D982EA82CB
:10208000FB82C453D240BCEDCB2EBCEBDB2EBBE1BC
:10209000EB2EBFE8FB2E0C946C07D301C201802706
:1020A0009127A227B327AC01BD01482559256A25F0
:1020B0007B25CC5CDD4F488359836A837B83C45383
:1020C000D240A6EDCA2EA1ECDA2EA2E6EA2EAAECA8
:1020D000FA2E0C946C07CC5BDD4F2881C454D2409F
:1020E000CB5BDD4F3881C554D240CA5BDD4F4881A0
:1020F000C654D240C95BDD4F5881C754D240C85B3B
:10210000DD4F6881C854D240C75BDD4F7881C95428
:10211000D240C65BDD4F8881CA54D240C55BDD4FDB
:102120009881CB54D240A1E00E94B214D22EC32E8B
:10213000942E852E762E672E582E492ECC5BDD4FA1
:102140002883C454D240CB5BDD4F3883C554D24082
:10215000CA5BDD4F4883C654D240C95BDD4F58830C
:10216000C754D240C85BDD4F6883C854D240C75BB8
:10217000DD4F7883C954D240C65BDD4F8883CA5493
:10218000D240C55BDD4F9883CB54D240CE5BDD4F50
:10219000A880B980C254D240B1E2AB0EB11C10E0AD
:1021A00000E0F70181917F01813009F000C1011544
:1021B000110521F40E94630301E010E064EF71E077
:1021C00080E090E00E94E403AE14BF0451F70130B8
:1021D000110519F484E00E9463038091CE028C30D3
:1021E00008F050C089E00E94CD028091CE02282FD5
:1021F00030E0F901EE0FFF1FE20FF31FEB55FD4F2B
:102200009081907C996090831092CF021092D002BE
:102210002CE0622F0E948914829FB00111249B013F
:10222000220D331DF901EE0FFF1FE20FF31FEB55D7
:10223000FD4F908196FD18C0FFEF2F1A3F0A0CE06A
:102240002016310461F781110FC01092800082E0E6
:10225000809381001092850010928400B19A809141
:102260006F00826080936F00E091CE028E2F90E02D
:10227000FC01EE0FFF1FE80FF91FEB55FD4F8081AA
:1022800080648083E091CE02EC30E0F42091CF02B4
:1022900088E890E0821B910927FD939533E0880F31
:1022A000991F3A95E1F704974FB7F8942E2F30E035
:1022B000F901EE0FFF1FE20FF31FEB55FD4F928365
:1022C00081834FBF60ED77E080E090E00E94E403FF
:1022D000E091CE028E2F90E0FC01EE0FFF1FE80F81
:1022E000F91FEB55FD4F80818F7B808364EF71E098
:1022F00080E090E00E94E403C05ADD4FA880B980DE
:10230000C056D2400FB6F894BEBE0FBEADBEC05C84
:10231000DD4F08811981C054D2400F5D1F4FC05C52
:10232000DD4F19830883C054D2402D2D3C2D492DFB
:10233000582D672D762D852D942D2A343F464D41FD
:102340005105610571058105910511F00C94BB05DE
:1023500085E791E00E942B0586E092E00E945204FE
:102360008A30D1F7CE59DD4F48805980C256D240CD
:102370000FB6F8945EBE0FBE4DBECD59DD4F0FB601
:10238000F894DEBF0FBECDBFDF91CF911F910F91AB
:10239000FF90EF90DF90CF90BF90AF909F908F9085
:1023A0007F906F905F904F903F902F90089584E0C2
:1023B0000E94630310E000E001CF1F920F920FB65E
:1023C0000F9211242F933F938F939F93AF93BF93BB
:1023D0008091FE019091FF01A0910002B091010255
:1023E0003091FD0123E0230F2D3758F50196A11DF3
:1023F000B11D2093FD018093FE019093FF01A093F6
:102400000002B09301028091020290910302A09118
:102410000402B09105020196A11DB11D8093020234
:1024200090930302A0930402B0930502BF91AF9171
:102430009F918F913F912F910F900FBE0F901F9002
:10244000189526E8230F0296A11DB11DD2CF1F9229
:102450000F920FB60F9211242F933F934F935F93D8
:102460006F937F938F939F93AF93BF93EF93FF935C
:1024700086E092E00E949404FF91EF91BF91AF91AA
:102480009F918F917F916F915F914F913F912F918C
:102490000F900FBE0F901F9018951F920F920FB6BE
:1024A0000F9211242F938F939F93EF93FF93E091BB
:1024B0001602F09117028081E0911C02F0911D023A
:1024C00082FD1BC0908180911F028F5F8F732091CE
:1024D0002002821741F0E0911F02F0E0EA5FFD4F19
:1024E000958F80931F02FF91EF919F918F912F9174
:1024F0000F900FBE0F901F9018958081F4CF1F9200
:102500000F920FB60F9211242F933F934F935F9327
:102510006F937F938F939F93AF93BF93CF93DF93EB
:10252000EF93FF938091FA01C091C902D0E087FF39
:1025300024C010928500109284008091FA018F5F70
:102540008093FA018091FA01082E000C990B8C17E8
:102550009D0724F48091FA018C30C4F180918400AD
:1025600090918500049680349C4908F47AC080914B
:10257000840090918500049676C08091FA01082E1F
:10258000000C990B8C179D07C4F6E091FA018E2F71
:10259000EE0F990BFC01EE0FFF1FE80FF91FEB5533
:1025A000FD4F808186FFC9CFE091FA018E2FEE0F9B
:1025B000990BFC01EE0FFF1FE80FF91FEB55FD4FC4
:1025C000808160E08F730E94EC02B7CF209184007D
:1025D00030918500E091FA018E2FEE0F990BFC01EE
:1025E000EE0FFF1FE80FF91FEB55FD4F8181928120
:1025F000820F931F9093890080938800E091FA01E5
:102600008E2FEE0F990BFC01EE0FFF1FE80FF91F45
:10261000EB55FD4F808186FF11C0E091FA018E2FAE
:10262000EE0F990BFC01EE0FFF1FE80FF91FEB55A2
:10263000FD4F808161E08F730E94EC02FF91EF916A
:10264000DF91CF91BF91AF919F918F917F916F91CA
:102650005F914F913F912F910F900FBE0F901F9060
:10266000189580E49CE990938900809388008FEF0F
:102670008093FA01E3CF8CE00E94CD0287E00E94B4
:10268000CD0288E00E94CD0284E00E94CD0210922B
:10269000A3020E94380360E087E00C94EC02CF9321
:1026A000109209021092080288EE93E0A0E0B0E0D8
:1026B00080930A0290930B02A0930C02B0930D0238
:1026C00084E291E0909307028093060285EC90E00B
:1026D000909313028093120284EC90E09093150281
:1026E0008093140280EC90E090931702809316027E
:1026F00081EC90E0909319028093180282EC90E0B4
:1027000090931B0280931A0286EC90E090931D0236
:1027100080931C0210921F0210922002109221023C
:10272000109222021092A4028091C9028C30A0F56E
:1027300091E0980F9093C9028093CE0290E0FC0143
:10274000EE0FFF1FE80FF91FEB55FD4F88EB9BE0E5
:102750009283818381E08093CC02C2E0C093CD025A
:102760000E943B138091A302837F8093A3020E9467
:1027700038038091B00083688093B000C093B100AB
:102780001092B3008BE00E94CD021092CA02C09357
:10279000CB02CF910C943B138FEF8093CE02DACF14
:1027A000789484B5826084BD84B5816084BD85B52C
:1027B000826085BD85B5816085BD80916E00816038
:1027C00080936E00109281008091810082608093DE
:1027D00081008091810081608093810080918000E0
:1027E0008160809380008091B10084608093B1000B
:1027F0008091B00081608093B00080917A00846005
:1028000080937A0080917A00826080937A00809130
:102810007A00816080937A0080917A00806880934A
:102820007A001092C100E0911602F091170282E046
:102830008083E0911202F09113021082E091140261
:10284000F091150280E1808310921E02E0911A023D
:10285000F0911B0286E08083E0911802F09119024A
:10286000808180618083E0911802F091190280815B
:1028700088608083E0911802F0911902808180685D
:102880008083E0911802F091190280818F7D80830E
:1028900068EE73E080E090E00E94E4038091FB0129
:1028A0009091FC01805C9D419093FC018093FB0121
:1028B0000E94420581ED91E00E942B058091CC029F
:1028C000823001F1A0F48130C9F084E00E946303FA
:1028D0000E944205C0E0D0E00E9455052097E1F338
:1028E0000E9480048823C1F30E940000F5CF83304A
:1028F00069F0843051F784E688BDE7CF84E68093A1
:10290000B300E3CF84E68093B400DFCF84E687BDD5
:10291000DCCF991B79E004C0991F961708F0961B2D
:10292000881F7A95C9F78095089597FD1094002E19
:10293000083098F00850232F342F452F562F672F3B
:10294000782F892F912DF4CF1594979587957795AA
:10295000679557954795379527950A95AAF71124B6
:10296000002D08950024A7FD00942A0F301D401D5E
:10297000501D601D701D801D901D0895EE0FFF1FDE
:0C2980000590F491E02D0994F894FFCF2D
:10298C0041B308549FA30791CAC638A55B7D630A5F
:10299C0062A89B9F40BE4CEA8C6BF6579AF05C4049
:1029AC0000000000B604160443040305740452042A
:1029BC0066040D0A004F62667573636174696F6E0D
:1029CC0020697320696E76616C69642E20506C6589
:1029DC0061736520636F6E74616374206368616CEE
:1029EC006C656E67652061646D696E697374726184
:1029FC00746F722E00596F75206861766520616C5A
:102A0C006C2074686520696E666F726D6174696F95
:102A1C006E20796F75206E6565642E2043616E2083
:102A2C00796F7520666967757265207468697320A3
:102A3C006F75743F20707265737320656E74657268
:102A4C0020746F20737461727420616761696E2EDB
:102A5C000057656C636F6D6520746F204E6F726DDF
:102A6C00616C204F722054686F7567682E20476F19
:0A2A7C006F64206C75636B2100008D
:00000001FF
