:100000000C94CC000C94F4000C94F4000C94F400C8
:100010000C94F4000C94F4000C94F4000C94F40090
:100020000C94F4000C94F4000C94F4000C94050669
:100030000C94F4000C94F4000C94F4000C94F40070
:100040000C9463050C94F4000C94D3050C94AD054A
:100050000C94F4000C94F4000C94F4000C94F40050
:100060000C94F4000C94F4002F2A2A2A2A2A2A2A13
:100070002A2A2A2A2A2A2A2A2A2A2A2A2A2A2A2AE0
:100080002A2A2A2A2A2A2A2A2A2A2A2A2A2A2A2AD0
:100090002A2A2A2A2A2A2A2A2A2A2A2A2A2A2A2AC0
:1000A0002A2A2A2A2A2A2A2A2A2A2A2A2A2A2A2AB0
:1000B0002A2F002F2A2A2A2A2A2A2A2A2A2A2A2AC0
:1000C0002A2A2A2A2A2A2A2A2020594F55204245FC
:1000D000415420544845204348414C4C454E4745E7
:1000E0002121212020202A2A2A2A2A2A2A2A2A2AA9
:1000F0002A2A2A2A2A2A2A2A2A2A2F002F2A2A2A80
:100100002A2A2A2A2A2A2A2A2A2A2A2A2A2A2A2A4F
:100110002A20202020202020202020436F6E67727C
:100120006174732121212020202020202020202ADA
:100130002A2A2A2A2A2A2A2A2A2A2A2A2A2A2A2A1F
:100140002A2A2A2F000000000800020100000304F0
:10015000070000000000000000000000002500284B
:10016000002B0000000000240027002A00040404E3
:100170000404040404020202020202030303030350
:10018000030102040810204080010204081020012D
:10019000020408102000C10611241FBECFEFD8E0D2
:1001A000DEBFCDBF11E0A0E0B1E0E0EBF3E102C0C3
:1001B00005900D92AC3BB107D9F722E0ACEBB1E072
:1001C00001C01D92A13AB207E1F710E0CCECD0E0FB
:1001D00004C02197FE010E94D009CB3CD107C9F78A
:1001E0000E9471070C94D6090C94000090E0FC0169
:1001F000EF57FE4F249183599E4FFC018491882331
:1002000099F090E0880F991FFC01ED59FE4FA591E0
:10021000B491FC01E75AFE4F859194918FB7F89401
:10022000EC91E22BEC938FBF089590919F02923056
:1002300061F018F4913031F00895933049F0943022
:1002400049F008958093B30008958093B400089511
:1002500087BD089588BD0895CF92DF92EF92FF92F7
:10026000DC01A03282E0B807D4F5A53BB10514F05B
:10027000A4EBB0E040919D0228E830E0241B310956
:1002800047FD3395220F331F220F331F6901330FB0
:10029000EE08FF0840919E0228E532E0241B310958
:1002A00047FD3395220F331F220F331F032E000CFF
:1002B000440B550B2C193D094E095F09B7FF02C0CD
:1002C000B0E0A0E00E948B0924EB30E040E050E079
:1002D0000E946109C20ED31EE41EF51ED601E091F4
:1002E0009C02EC3080F520919D0288E890E0821B12
:1002F000910927FD9395880F991F880F991FA817BB
:10030000B90784F020919E0288E592E0821B910952
:1003100027FD9395880F991F880F991FA817B90774
:100320000CF4CD010297880F991F4FB7F8942E2F28
:1003300030E0F901EE0FFF1FE20FF31FE759FD4F09
:10034000928381834FBFFF90EF90DF90CF9008950D
:1003500090E0FC01EB5BFE4F2491FC01EF57FE4F58
:100360003491FC01E359FE4FE491EE23C9F02223BE
:1003700039F0233001F1A8F4213019F1223029F1AC
:10038000F0E0EE0FFF1FE75AFE4FA591B4918FB733
:10039000F894EC91611126C030953E233C938FBFB9
:1003A00008952730A9F02830C9F0243049F780910A
:1003B00080008F7D03C0809180008F7780938000C4
:1003C000DFCF84B58F7784BDDBCF84B58F7DFBCF46
:1003D0008091B0008F778093B000D2CF8091B00031
:1003E0008F7DF9CF3E2BDACFCF93DF9360E08CE0A7
:1003F0000E94A80160E088E00E94A801C7E0D0E068
:1004000060E084E00E94A80180918E0290E00C2EB2
:1004100002C0959587950A94E2F761E080FF60E05D
:1004200088E00E94A80161E084E00E94A801219771
:1004300038F761E08CE0DF91CF910C94A8019091A6
:100440009F02923049F018F4913049F108959330A9
:1004500001F1943009F1089524E091E0823011F126
:100460008430A9F1813009F045C041E050E0BA0183
:1004700001C0660F9A95EAF780918E02862B01C023
:10048000440F2A95EAF74095482340938E020C9436
:10049000F40127E095E0E2CF26E090E0DFCF23E013
:1004A00092E0DCCF41E050E0BA0102C0660F771F56
:1004B0009A95E2F7CB01809590918E02892301C035
:1004C000440F2A95EAF7842B80938E02E0CF41E017
:1004D00050E0BA0102C0660F771F9A95E2F7CB0190
:1004E00001C0440F2A95EAF7842B809590918E02E3
:1004F0008923EACF0895CF93DF93709192027130F0
:1005000009F4BAC0723009F4C7C080E0DF91CF911E
:100510000895985090939B029FEF8FEFE0919B027C
:10052000EF73E0939B02713009F07CC09093B300AD
:100530008093B400722F752BA32FA42B972F9A2B87
:10054000909580918E02892380938E02E0919B0288
:10055000643009F06DC0E03118F4782B70938E028E
:1005600080EF8E0F803138F4852F832B90918E028F
:10057000892B80938E0280EE8E0F803128F480913B
:100580008E028A2B80938E02E053E03138F4822F62
:10059000842B90918E02892B80938E020E94F4010D
:1005A00080919B02B3CF813011F4905FB3CF905113
:1005B000B1CF633009F46BC08130B9F49F5F909381
:1005C0009B0290919B029F7390939B02A92FB0E096
:1005D000FD01E050FF4F903150F480E191E0EC01DB
:1005E000CA1BDB0B9881808199CF9150E8CF80EFB7
:1005F000890F803138F470979081E0E2F1E0EA1BD6
:10060000FB0BF1CF9052903140F480E391E0EC018C
:10061000CA1BDB0B9881B097E6CFF0979081E0E49E
:10062000F1E0EDCF723009F085CF97BD88BD82CF64
:10063000F0E093E0F595E7959A95E1F7E830F1055C
:1006400008F0ACCFEA5DFC4F0C94D0093A032E03BE
:10065000300332033303350337033903872B9CCF31
:10066000852B9ACF352B832B97CF8A2B95CF842B35
:1006700093CF242B822B90CF40E138E052E024E04E
:1006800090919B02623009F094CF93FD8CCF813022
:1006900009F03FCF985F3ECF40E430E851E020E2E0
:1006A000EFCF8CE00E94F60087E00E94F60088E021
:1006B0000E94F60084E00E94F60010928E020E94D2
:1006C000F40160E087E00C94A8013FB7F8948091B2
:1006D000C8019091C901A091CA01B091CB0126B582
:1006E000A89B05C02F3F19F00196A11DB11D3FBF6A
:1006F000BA2FA92F982F8827BC01CD01620F711D39
:10070000811D911D42E0660F771F881F991F4A9532
:10071000D1F708958F929F92AF92BF92CF92DF92BE
:10072000EF92FF926B017C010E9465034B015C011B
:10073000C114D104E104F104B9F00E946503681901
:1007400079098A099B09683E73408105910580F308
:1007500021E0C21AD108E108F10888EE880E83E092
:10076000981EA11CB11CE4CFFF90EF90DF90CF90BA
:10077000BF90AF909F908F900895CF92DF92EF92AD
:10078000FF92C0909302D0909402E0909502F09076
:100790009602633021F4F694E794D794C7940E94AC
:1007A0007B02C701B60128EE33E040E050E00E9432
:1007B00093096B017C01CA01B9010E948A038091EF
:1007C000970290919802A0919902B0919A02C80E56
:1007D000D91EEA1EFB1EC0929702D0929802E092A8
:1007E0009902F0929A0288EEC81683E0D806E104D6
:1007F000F104D0F061E070E080E090E00E948A03B4
:100800008091970290919802A0919902B0919A02DA
:10081000885E9340A109B109809397029093980252
:10082000A0939902B0939A02FF90EF90DF90CF903F
:100830000895AF92BF92CF92DF92EF92FF920F9303
:100840001F93CF93DF936C017B018B01040F151F66
:10085000EB015E01AE18BF08C017D10759F06991CE
:10086000D601ED91FC910190F081E02DC601099532
:10087000892B79F7C501DF91CF911F910F91FF90DF
:10088000EF90DF90CF90BF90AF900895FC01538D13
:10089000448D252F30E0842F90E0821B930B54175A
:1008A00010F0CF96089501970895FC01918D828DE7
:1008B000981761F0A28DAE0FBF2FB11D5D968C9180
:1008C000928D9F5F9F73928F90E008958FEF9FEFBF
:1008D0000895FC01918D828D981731F0828DE80F7B
:1008E000F11D858D90E008958FEF9FEF0895FC0135
:1008F000918D228D892F90E0805C9F4F821B910902
:100900008F73992708958CEC91E00E94770421E081
:10091000892B09F420E0822F089580E090E0892B54
:1009200029F00E94830481110C9400000895FC01B9
:10093000A48DA80FB92FB11DA35ABF4F2C91848D40
:1009400090E001968F739927848FA689B7892C939D
:10095000A089B1898C91837080648C93938D848DF0
:10096000981306C00288F389E02D80818F7D8083F3
:100970000895EF92FF920F931F93CF93DF93EC01B3
:1009800081E0888F9B8D8C8D98131AC0E889F98936
:10099000808185FF15C09FB7F894EE89FF89608339
:1009A000E889F98980818370806480839FBF81E0BA
:1009B00090E0DF91CF911F910F91FF90EF900895FC
:1009C000F62E0B8D10E00F5F1F4F0F731127E02ED7
:1009D0008C8D8E110CC00FB607FCFACFE889F9890F
:1009E000808185FFF5CFCE010E949704F1CFEB8D7A
:1009F000EC0FFD2FF11DE35AFF4FF0829FB7F894E3
:100A00000B8FEA89FB8980818062CFCFCF93DF9300
:100A1000EC01888D8823B9F0AA89BB89E889F98916
:100A20008C9185FD03C0808186FD0DC00FB607FC4B
:100A3000F7CF8C9185FFF2CF808185FFEDCFCE017E
:100A40000E949704E9CFDF91CF91089542E050E0F2
:100A500063E271E08CEC91E00C9419040F931F9306
:100A6000CF93DF938C01D0E0C0E0F801EC0FFD1FC5
:100A70006491662341F08CEC91E00E94B904892BCB
:100A800011F02196F2CF0E9426058C0F9D1FDF9159
:100A9000CF911F910F910895CF93DF93FC010190A7
:100AA0000020E9F73197AF01481B590BBC018CECD2
:100AB00091E00E941904EC010E9426058C0F9D1FF5
:100AC000DF91CF9108951F920F920FB60F921124CC
:100AD0002F933F938F939F93AF93BF938091C401C4
:100AE0009091C501A091C601B091C7013091C30199
:100AF00023E0230F2D3758F50196A11DB11D20933A
:100B0000C3018093C4019093C501A093C601B09323
:100B1000C7018091C8019091C901A091CA01B0910B
:100B2000CB010196A11DB11D8093C8019093C9010D
:100B3000A093CA01B093CB01BF91AF919F918F91C8
:100B40003F912F910F900FBE0F901F90189526E8A0
:100B5000230F0296A11DB11DD2CF1F920F920FB687
:100B60000F9211242F933F934F935F936F937F9333
:100B70008F939F93AF93BF93EF93FF938CEC91E090
:100B80000E949704FF91EF91BF91AF919F918F9138
:100B90007F916F915F914F913F912F910F900FBE79
:100BA0000F901F9018951F920F920FB60F9211245D
:100BB0002F938F939F93EF93FF93E091DC01F0913C
:100BC000DD018081E091E201F091E30182FD1BC033
:100BD00090818091E5018F5F8F732091E6018217EC
:100BE00041F0E091E501F0E0E453FE4F958F8093F2
:100BF000E501FF91EF919F918F912F910F900FBE83
:100C00000F901F9018958081F4CF1F920F920FB60E
:100C10000F9211242F933F934F935F936F937F9382
:100C20008F939F93AF93BF93CF93DF93EF93FF93F4
:100C30008091BC01C0918D02D0E087FF24C010924A
:100C40008500109284008091BC018F5F8093BC016D
:100C50008091BC01082E000C990B8C179D0724F481
:100C60008091BC018C30C4F180918400909185000A
:100C7000049680349C4908F47AC080918400909155
:100C80008500049676C08091BC01082E000C990B5B
:100C90008C179D07C4F6E091BC018E2FEE0F990BC7
:100CA000FC01EE0FFF1FE80FF91FE759FD4F808190
:100CB00086FFC9CFE091BC018E2FEE0F990BFC018E
:100CC000EE0FFF1FE80FF91FE759FD4F808160E02D
:100CD0008F730E94A801B7CF2091840030918500C6
:100CE000E091BC018E2FEE0F990BFC01EE0FFF1F60
:100CF000E80FF91FE759FD4F81819281820F931F01
:100D00009093890080938800E091BC018E2FEE0FB4
:100D1000990BFC01EE0FFF1FE80FF91FE759FD4F7C
:100D2000808186FF11C0E091BC018E2FEE0F990BE0
:100D3000FC01EE0FFF1FE80FF91FE759FD4F8081FF
:100D400061E08F730E94A801FF91EF91DF91CF9135
:100D5000BF91AF919F918F917F916F915F914F91D3
:100D60003F912F910F900FBE0F901F90189580E428
:100D70009CE990938900809388008FEF8093BC0159
:100D8000E3CFCF931092CF011092CE0188EE93E083
:100D9000A0E0B0E08093D0019093D101A093D20164
:100DA000B093D30185E191E09093CD018093CC0184
:100DB00085EC90E09093D9018093D80184EC90E089
:100DC0009093DB018093DA0180EC90E09093DD0159
:100DD0008093DC0181EC90E09093DF018093DE0151
:100DE00082EC90E09093E1018093E00186EC90E04A
:100DF0009093E3018093E2011092E5011092E601E5
:100E00001092E7011092E80110928F0281E0809326
:100E10009F02C2E0C093A0020E94510380918E0203
:100E2000837F80938E020E94F4018091B0008368DA
:100E30008093B000C093B1001092B3008BE00E9489
:100E4000F60080918D028C3008F047C091E0980F39
:100E500090938D0280939C0290E0FC01EE0FFF1FA7
:100E6000E80FF91FE759FD4F88EB9BE092838183E0
:100E70000E94510380E390E090939102809390024E
:100E800082E08093920210929B0280918E028E717A
:100E900080938E020E94F40185E00E94F60086E0B5
:100EA0000E94F60061E085E00E94A80161E086E012
:100EB0000E94A80184B5836884BD17BC86E00E94A7
:100EC000F60084B5836284BD18BC85E00E94F600FC
:100ED0008FEF87BD88BDCF9108958FEF80939C02DF
:100EE000C7CF789484B5826084BD84B5816084BDA9
:100EF00085B5826085BD85B5816085BD80916E00B8
:100F0000816080936E0010928100809181008260E8
:100F10008093810080918100816080938100809125
:100F200080008160809380008091B1008460809314
:100F3000B1008091B00081608093B00080917A0010
:100F4000846080937A0080917A00826080937A0036
:100F500080917A00816080937A0080917A00806825
:100F600080937A001092C1008091BD019091BE01E2
:100F7000805C9D419093BE018093BD01E091DC01B6
:100F8000F091DD0182E08083E091D801F091D901F8
:100F90001082E091DA01F091DB0180E18083109210
:100FA000E401E091E001F091E10186E08083E091CD
:100FB000DE01F091DF01808180618083E091DE01BC
:100FC000F091DF01808188608083E091DE01F09103
:100FD000DF01808180688083E091DE01F091DF0194
:100FE00080818F7D808388E690E00E942E0586E2D6
:100FF00091E00E944C0586E591E00E944C0588E650
:1010000090E00E942E05CCE0DC2ED2E0CD2E00E058
:1010100010E0CFEFD0E08091C1019091C201892B07
:1010200009F059C080919C028C3008F04EC089E0D4
:101030000E94F60080919C02282F30E0F901EE0F0B
:10104000FF1FE20FF31FE759FD4F9081907C9960DD
:10105000908310929D0210929E026D2D0E94C409F1
:101060008D9DB001112430E020E0AB01420F531FF1
:10107000FA01EE0FFF1FE40FF51FE759FD4F9081B6
:1010800096FD15C02F5F3F4F2C30310571F7811150
:101090000EC010928000C0928100109285001092C4
:1010A0008400B19A80916F00826080936F00E0911C
:1010B0009C028E2F90E0FC01EE0FFF1FE80FF91F3E
:1010C000E759FD4F80818064808388EC0E94150180
:1010D00084E00E941F028091C1019091C20184317D
:1010E00091050CF099C081E00E941F021092C0018E
:1010F0001092BF01E090BF01F090C0018FEFE816A1
:10110000F104C4F4C7010E942C018E2D0E94150128
:1011100063E081E00E94BD0363E070E080E090E066
:101120000E948A038FEFE81AF80AF092C001E09259
:10113000BF01E0CFD093C001C093BF01E090BF01D9
:10114000F090C001E114F104D1F0C7018F5F910963
:101150000E942C018E2D0E94150163E082E00E9406
:10116000BD0363E070E080E090E00E948A0381E0CC
:10117000E81AF108F092C001E092BF01DFCF82E0EF
:101180000E941F021092C0011092BF01E090BF01A7
:10119000F090C0018FEFE816F104C4F4C7010E947B
:1011A0002C018E2D0E94150163E070E080E090E03C
:1011B0000E948A0362E081E00E94BD038FEFE81A7B
:1011C000F80AF092C001E092BF01E0CFD093C001D5
:1011D000C093BF01E090BF01F090C001E114F104A1
:1011E00009F44DC0C7018F5F91090E942C018E2D1B
:1011F0000E94150162E082E00E94BD0363E070E09E
:1012000080E090E00E948A0381E0E81AF108F09201
:10121000C001E092BF01DECF449709F04BC084E0EB
:101220000E941F02809192028130F1F580918E021E
:10123000817E80938E020E94F401E0919C028E2FA9
:1012400090E0FC01EE0FFF1FE80FF91FE759FD4F7B
:1012500080818F7B80830E9426050E94260583EB78
:1012600090E00E942E058BE891E00E944C058CEFE7
:1012700090E00E942E050E9426050E94260580917E
:10128000C1019091C20101969093C2018093C10166
:101290000115110509F4BFCE0E948304882309F4C7
:1012A000BACE0E940000B7CE823039F680918E020D
:1012B0008E71BFCF68EE73E080E090E00E948A03F9
:1012C000DECF052E97FB1EF400940E94780957FD8F
:1012D00007D00E94930907FC03D04EF40C947809C0
:1012E00050954095309521953F4F4F4F5F4F089552
:1012F00090958095709561957F4F8F4F9F4F089582
:101300000E94B509A59F900DB49F900DA49F800DDC
:10131000911D11240895B7FF0C9480090E94800943
:10132000821B930B0895A1E21A2EAA1BBB1BFD0181
:101330000DC0AA1FBB1FEE1FFF1FA217B307E407B4
:10134000F50720F0A21BB30BE40BF50B661F771F0C
:10135000881F991F1A9469F76095709580959095EC
:101360009B01AC01BD01CF010895A29FB001B39FC5
:10137000C001A39F700D811D1124911DB29F700D9E
:10138000811D1124911D0895991B79E004C0991FB6
:10139000961708F0961B881F7A95C9F780950895CF
:1013A000EE0FFF1F0590F491E02D0994F894FFCF04
:1013B0000019324A62788DA2B4C5D4E1ECF4FAFD8A
:1013C000FF00000000B9041904460406057704551F
:1013D0000469040D0A0057656C636F6D6520746FB6
:1013E00020746865203230323420456D6265646453
:1013F0006564205365637572697479204368616C14
:101400006C656E6765005468697320697320746841
:1014100065206D6F746F7220746573742E20416C3B
:101420006C207468726565206D6F746F72732073C1
:10143000686F756C642072756E2E004D6F746F72DC
:10144000205465737420436F6D706C6574652E2035
:101450004E6F7720646F20746865207265616C2020
:0C1460006368616C6C656E67657300006A
:00000001FF
